{
  "contractName": "Case",
  "abi": [
    {
      "inputs": [
        {
          "internalType": "contract IJudgeManager",
          "name": "judgesContract",
          "type": "address"
        },
        {
          "internalType": "address",
          "name": "requesterAddress",
          "type": "address"
        },
        {
          "internalType": "address",
          "name": "opponentAddress",
          "type": "address"
        },
        {
          "internalType": "bytes32",
          "name": "proofHash",
          "type": "bytes32"
        },
        {
          "internalType": "uint256",
          "name": "collateral",
          "type": "uint256"
        }
      ],
      "stateMutability": "payable",
      "type": "constructor"
    },
    {
      "anonymous": false,
      "inputs": [],
      "name": "CaseAborted",
      "type": "event"
    },
    {
      "anonymous": false,
      "inputs": [
        {
          "indexed": true,
          "internalType": "address",
          "name": "requester",
          "type": "address"
        },
        {
          "indexed": true,
          "internalType": "address",
          "name": "opponent",
          "type": "address"
        }
      ],
      "name": "CaseAccepted",
      "type": "event"
    },
    {
      "anonymous": false,
      "inputs": [],
      "name": "CaseClosed",
      "type": "event"
    },
    {
      "anonymous": false,
      "inputs": [
        {
          "indexed": true,
          "internalType": "address",
          "name": "requester",
          "type": "address"
        },
        {
          "indexed": true,
          "internalType": "address",
          "name": "opponent",
          "type": "address"
        }
      ],
      "name": "CaseRequested",
      "type": "event"
    },
    {
      "anonymous": false,
      "inputs": [
        {
          "indexed": true,
          "internalType": "address",
          "name": "judge",
          "type": "address"
        },
        {
          "indexed": false,
          "internalType": "uint256",
          "name": "caseId",
          "type": "uint256"
        }
      ],
      "name": "JudgeAssigned",
      "type": "event"
    },
    {
      "inputs": [],
      "name": "getCaseData",
      "outputs": [
        {
          "components": [
            {
              "components": [
                {
                  "internalType": "address",
                  "name": "addr",
                  "type": "address"
                },
                {
                  "internalType": "bytes32",
                  "name": "proofHash",
                  "type": "bytes32"
                },
                {
                  "internalType": "string",
                  "name": "proof",
                  "type": "string"
                },
                {
                  "internalType": "uint256",
                  "name": "collateral",
                  "type": "uint256"
                }
              ],
              "internalType": "struct CaseParticipant",
              "name": "requester",
              "type": "tuple"
            },
            {
              "components": [
                {
                  "internalType": "address",
                  "name": "addr",
                  "type": "address"
                },
                {
                  "internalType": "bytes32",
                  "name": "proofHash",
                  "type": "bytes32"
                },
                {
                  "internalType": "string",
                  "name": "proof",
                  "type": "string"
                },
                {
                  "internalType": "uint256",
                  "name": "collateral",
                  "type": "uint256"
                }
              ],
              "internalType": "struct CaseParticipant",
              "name": "opponent",
              "type": "tuple"
            },
            {
              "internalType": "address",
              "name": "judge",
              "type": "address"
            },
            {
              "internalType": "enum CaseStates",
              "name": "state",
              "type": "uint8"
            },
            {
              "internalType": "uint256",
              "name": "baseCollateral",
              "type": "uint256"
            },
            {
              "internalType": "uint256",
              "name": "expiration",
              "type": "uint256"
            }
          ],
          "internalType": "struct CaseData",
          "name": "",
          "type": "tuple"
        }
      ],
      "stateMutability": "view",
      "type": "function"
    },
    {
      "inputs": [],
      "name": "isExpired",
      "outputs": [
        {
          "internalType": "bool",
          "name": "",
          "type": "bool"
        }
      ],
      "stateMutability": "view",
      "type": "function"
    },
    {
      "inputs": [
        {
          "internalType": "address",
          "name": "addr",
          "type": "address"
        }
      ],
      "name": "isRequester",
      "outputs": [
        {
          "internalType": "bool",
          "name": "",
          "type": "bool"
        }
      ],
      "stateMutability": "view",
      "type": "function"
    },
    {
      "inputs": [
        {
          "internalType": "address",
          "name": "addr",
          "type": "address"
        }
      ],
      "name": "isOpponent",
      "outputs": [
        {
          "internalType": "bool",
          "name": "",
          "type": "bool"
        }
      ],
      "stateMutability": "view",
      "type": "function"
    },
    {
      "inputs": [
        {
          "internalType": "address",
          "name": "addr",
          "type": "address"
        }
      ],
      "name": "isJudge",
      "outputs": [
        {
          "internalType": "bool",
          "name": "",
          "type": "bool"
        }
      ],
      "stateMutability": "view",
      "type": "function"
    },
    {
      "inputs": [
        {
          "internalType": "bytes32",
          "name": "proofHash",
          "type": "bytes32"
        }
      ],
      "name": "acceptCase",
      "outputs": [],
      "stateMutability": "payable",
      "type": "function"
    },
    {
      "inputs": [
        {
          "internalType": "string",
          "name": "proof",
          "type": "string"
        }
      ],
      "name": "discloseRequesterProof",
      "outputs": [],
      "stateMutability": "nonpayable",
      "type": "function"
    },
    {
      "inputs": [
        {
          "internalType": "string",
          "name": "proof",
          "type": "string"
        }
      ],
      "name": "discloseOpponentProof",
      "outputs": [],
      "stateMutability": "nonpayable",
      "type": "function"
    },
    {
      "inputs": [
        {
          "internalType": "address",
          "name": "judgeAddress",
          "type": "address"
        }
      ],
      "name": "assignJudge",
      "outputs": [
        {
          "internalType": "bool",
          "name": "",
          "type": "bool"
        }
      ],
      "stateMutability": "nonpayable",
      "type": "function"
    },
    {
      "inputs": [
        {
          "internalType": "bool",
          "name": "win",
          "type": "bool"
        }
      ],
      "name": "setDecision",
      "outputs": [],
      "stateMutability": "nonpayable",
      "type": "function"
    },
    {
      "inputs": [
        {
          "internalType": "address",
          "name": "appealer",
          "type": "address"
        }
      ],
      "name": "appeal",
      "outputs": [],
      "stateMutability": "payable",
      "type": "function"
    },
    {
      "inputs": [],
      "name": "claim",
      "outputs": [],
      "stateMutability": "nonpayable",
      "type": "function"
    }
  ],
  "bytecode": "0x6080604052604051620030863803806200308683398181016040528101906200002991906200057c565b8034146200006e576040517f08c379a0000000000000000000000000000000000000000000000000000000008152600401620000659062000665565b60405180910390fd5b84600b60006101000a81548173ffffffffffffffffffffffffffffffffffffffff021916908373ffffffffffffffffffffffffffffffffffffffff1602179055506040518060c0016040528060405180608001604052808773ffffffffffffffffffffffffffffffffffffffff16815260200185815260200160405180602001604052806000815250815260200184815250815260200160405180608001604052808673ffffffffffffffffffffffffffffffffffffffff1681526020016000801916815260200160405180602001604052806000815250815260200160008152508152602001600073ffffffffffffffffffffffffffffffffffffffff1681526020016001600881111562000189576200018862000687565b5b8152602001828152602001601e42620001a39190620006e5565b8152506000808201518160000160008201518160000160006101000a81548173ffffffffffffffffffffffffffffffffffffffff021916908373ffffffffffffffffffffffffffffffffffffffff1602179055506020820151816001015560408201518160020190805190602001906200021f929190620003a7565b5060608201518160030155505060208201518160040160008201518160000160006101000a81548173ffffffffffffffffffffffffffffffffffffffff021916908373ffffffffffffffffffffffffffffffffffffffff160217905550602082015181600101556040820151816002019080519060200190620002a4929190620003a7565b5060608201518160030155505060408201518160080160006101000a81548173ffffffffffffffffffffffffffffffffffffffff021916908373ffffffffffffffffffffffffffffffffffffffff16021790555060608201518160080160146101000a81548160ff0219169083600881111562000326576200032562000687565b5b02179055506080820151816009015560a082015181600a01559050508273ffffffffffffffffffffffffffffffffffffffff168473ffffffffffffffffffffffffffffffffffffffff167fb957e4dc3b04409e6c4b14ee40d0d8e5efe8caf593e96b517b5afcdbbc7ff32660405160405180910390a35050505050620007a7565b828054620003b59062000771565b90600052602060002090601f016020900481019282620003d9576000855562000425565b82601f10620003f457805160ff191683800117855562000425565b8280016001018555821562000425579182015b828111156200042457825182559160200191906001019062000407565b5b50905062000434919062000438565b5090565b5b808211156200045357600081600090555060010162000439565b5090565b600080fd5b600073ffffffffffffffffffffffffffffffffffffffff82169050919050565b600062000489826200045c565b9050919050565b60006200049d826200047c565b9050919050565b620004af8162000490565b8114620004bb57600080fd5b50565b600081519050620004cf81620004a4565b92915050565b620004e0816200047c565b8114620004ec57600080fd5b50565b6000815190506200050081620004d5565b92915050565b6000819050919050565b6200051b8162000506565b81146200052757600080fd5b50565b6000815190506200053b8162000510565b92915050565b6000819050919050565b620005568162000541565b81146200056257600080fd5b50565b60008151905062000576816200054b565b92915050565b600080600080600060a086880312156200059b576200059a62000457565b5b6000620005ab88828901620004be565b9550506020620005be88828901620004ef565b9450506040620005d188828901620004ef565b9350506060620005e4888289016200052a565b9250506080620005f78882890162000565565b9150509295509295909350565b600082825260208201905092915050565b7f496e76616c696420636f6c6c61746572616c2070726f76696465640000000000600082015250565b60006200064d601b8362000604565b91506200065a8262000615565b602082019050919050565b6000602082019050818103600083015262000680816200063e565b9050919050565b7f4e487b7100000000000000000000000000000000000000000000000000000000600052602160045260246000fd5b7f4e487b7100000000000000000000000000000000000000000000000000000000600052601160045260246000fd5b6000620006f28262000541565b9150620006ff8362000541565b9250827fffffffffffffffffffffffffffffffffffffffffffffffffffffffffffffffff03821115620007375762000736620006b6565b5b828201905092915050565b7f4e487b7100000000000000000000000000000000000000000000000000000000600052602260045260246000fd5b600060028204905060018216806200078a57607f821691505b60208210811415620007a157620007a062000742565b5b50919050565b6128cf80620007b76000396000f3fe6080604052600436106100a75760003560e01c80639896d250116100645780639896d250146101a8578063c0d3e848146101c4578063ca04ddcb146101e0578063d0f63a631461021d578063e7e3cf2a1461025a578063ed896d6614610283576100a7565b806302529177146100ac5780630befd51f146100e95780632f13b60c146101125780634e71d92d1461013d5780635eaea3b2146101545780636af081361461017f575b600080fd5b3480156100b857600080fd5b506100d360048036038101906100ce9190611eb3565b6102c0565b6040516100e09190611efb565b60405180910390f35b3480156100f557600080fd5b50610110600480360381019061010b9190611f7b565b61031f565b005b34801561011e57600080fd5b506101276105e1565b6040516101349190611efb565b60405180910390f35b34801561014957600080fd5b506101526105f0565b005b34801561016057600080fd5b50610169610641565b604051610176919061220c565b60405180910390f35b34801561018b57600080fd5b506101a660048036038101906101a19190611f7b565b610920565b005b6101c260048036038101906101bd919061225a565b610be5565b005b6101de60048036038101906101d99190611eb3565b610e29565b005b3480156101ec57600080fd5b5061020760048036038101906102029190611eb3565b61110a565b6040516102149190611efb565b60405180910390f35b34801561022957600080fd5b50610244600480360381019061023f9190611eb3565b61124d565b6040516102519190611efb565b60405180910390f35b34801561026657600080fd5b50610281600480360381019061027c91906122b3565b6112ad565b005b34801561028f57600080fd5b506102aa60048036038101906102a59190611eb3565b611504565b6040516102b79190611efb565b60405180910390f35b60008173ffffffffffffffffffffffffffffffffffffffff166000800160000160009054906101000a900473ffffffffffffffffffffffffffffffffffffffff1673ffffffffffffffffffffffffffffffffffffffff16149050919050565b6103276105e1565b1561033957610334611561565b6105dd565b600b60009054906101000a900473ffffffffffffffffffffffffffffffffffffffff1673ffffffffffffffffffffffffffffffffffffffff163373ffffffffffffffffffffffffffffffffffffffff16146103c9576040517f08c379a00000000000000000000000000000000000000000000000000000000081526004016103c09061233d565b60405180910390fd5b600260088111156103dd576103dc612105565b5b600060080160149054906101000a900460ff16600881111561040257610401612105565b5b148061044457506003600881111561041d5761041c612105565b5b600060080160149054906101000a900460ff16600881111561044257610441612105565b5b145b610483576040517f08c379a000000000000000000000000000000000000000000000000000000000815260040161047a906123a9565b60405180910390fd5b61048f60008001611b43565b156104cf576040517f08c379a00000000000000000000000000000000000000000000000000000000081526004016104c690612415565b60405180910390fd5b600080016001015482826040516020016104ea929190612474565b6040516020818303038152906040528051906020012014610540576040517f08c379a0000000000000000000000000000000000000000000000000000000008152600401610537906124d9565b60405180910390fd5b8181600080016002019190610556929190611cfd565b506001600060080160149054906101000a900460ff16600881111561057e5761057d612105565b5b6105889190612528565b600881111561059a57610599612105565b5b600060080160146101000a81548160ff021916908360088111156105c1576105c0612105565b5b0217905550601e426105d39190612528565b6000600a01819055505b5050565b6000426000600a015410905090565b6105f86105e1565b610637576040517f08c379a000000000000000000000000000000000000000000000000000000000815260040161062e906125ca565b60405180910390fd5b61063f611561565b565b610649611d83565b60006040518060c0016040529081600082016040518060800160405290816000820160009054906101000a900473ffffffffffffffffffffffffffffffffffffffff1673ffffffffffffffffffffffffffffffffffffffff1673ffffffffffffffffffffffffffffffffffffffff168152602001600182015481526020016002820180546106d690612619565b80601f016020809104026020016040519081016040528092919081815260200182805461070290612619565b801561074f5780601f106107245761010080835404028352916020019161074f565b820191906000526020600020905b81548152906001019060200180831161073257829003601f168201915b505050505081526020016003820154815250508152602001600482016040518060800160405290816000820160009054906101000a900473ffffffffffffffffffffffffffffffffffffffff1673ffffffffffffffffffffffffffffffffffffffff1673ffffffffffffffffffffffffffffffffffffffff168152602001600182015481526020016002820180546107e690612619565b80601f016020809104026020016040519081016040528092919081815260200182805461081290612619565b801561085f5780601f106108345761010080835404028352916020019161085f565b820191906000526020600020905b81548152906001019060200180831161084257829003601f168201915b5050505050815260200160038201548152505081526020016008820160009054906101000a900473ffffffffffffffffffffffffffffffffffffffff1673ffffffffffffffffffffffffffffffffffffffff1673ffffffffffffffffffffffffffffffffffffffff1681526020016008820160149054906101000a900460ff1660088111156108f1576108f0612105565b5b600881111561090357610902612105565b5b815260200160098201548152602001600a82015481525050905090565b6109286105e1565b1561093a57610935611561565b610be1565b600b60009054906101000a900473ffffffffffffffffffffffffffffffffffffffff1673ffffffffffffffffffffffffffffffffffffffff163373ffffffffffffffffffffffffffffffffffffffff16146109ca576040517f08c379a00000000000000000000000000000000000000000000000000000000081526004016109c19061233d565b60405180910390fd5b600260088111156109de576109dd612105565b5b600060080160149054906101000a900460ff166008811115610a0357610a02612105565b5b1480610a45575060036008811115610a1e57610a1d612105565b5b600060080160149054906101000a900460ff166008811115610a4357610a42612105565b5b145b610a84576040517f08c379a0000000000000000000000000000000000000000000000000000000008152600401610a7b906123a9565b60405180910390fd5b610a916000600401611b43565b15610ad1576040517f08c379a0000000000000000000000000000000000000000000000000000000008152600401610ac890612415565b60405180910390fd5b6000600401600101548282604051602001610aed929190612474565b6040516020818303038152906040528051906020012014610b43576040517f08c379a0000000000000000000000000000000000000000000000000000000008152600401610b3a906124d9565b60405180910390fd5b818160006004016002019190610b5a929190611cfd565b506001600060080160149054906101000a900460ff166008811115610b8257610b81612105565b5b610b8c9190612528565b6008811115610b9e57610b9d612105565b5b600060080160146101000a81548160ff02191690836008811115610bc557610bc4612105565b5b0217905550601e42610bd79190612528565b6000600a01819055505b5050565b610bed6105e1565b15610bff57610bfa611561565b610e26565b600b60009054906101000a900473ffffffffffffffffffffffffffffffffffffffff1673ffffffffffffffffffffffffffffffffffffffff163373ffffffffffffffffffffffffffffffffffffffff1614610c8f576040517f08c379a0000000000000000000000000000000000000000000000000000000008152600401610c869061233d565b60405180910390fd5b60016008811115610ca357610ca2612105565b5b600060080160149054906101000a900460ff166008811115610cc857610cc7612105565b5b14610cd257600080fd5b3460006009015414610d19576040517f08c379a0000000000000000000000000000000000000000000000000000000008152600401610d10906126bd565b60405180910390fd5b806000600401600101819055506000600901546000600401600301819055506002600060080160146101000a81548160ff02191690836008811115610d6157610d60612105565b5b0217905550600060040160000160009054906101000a900473ffffffffffffffffffffffffffffffffffffffff1673ffffffffffffffffffffffffffffffffffffffff166000800160000160009054906101000a900473ffffffffffffffffffffffffffffffffffffffff1673ffffffffffffffffffffffffffffffffffffffff167fdd5f05630ec0ad93ddee9d95393a7402ae7eac8de7af06b03249fee0478b876d60405160405180910390a3601e42610e1c9190612528565b6000600a01819055505b50565b610e316105e1565b15610e4357610e3e611561565b611107565b600b60009054906101000a900473ffffffffffffffffffffffffffffffffffffffff1673ffffffffffffffffffffffffffffffffffffffff163373ffffffffffffffffffffffffffffffffffffffff1614610ed3576040517f08c379a0000000000000000000000000000000000000000000000000000000008152600401610eca9061233d565b60405180910390fd5b60056008811115610ee757610ee6612105565b5b600060080160149054906101000a900460ff166008811115610f0c57610f0b612105565b5b1480610f4e575060066008811115610f2757610f26612105565b5b600060080160149054906101000a900460ff166008811115610f4c57610f4b612105565b5b145b610f8d576040517f08c379a0000000000000000000000000000000000000000000000000000000008152600401610f8490612729565b60405180910390fd5b6003600060090154610f9f9190612749565b3414610faa57600080fd5b8073ffffffffffffffffffffffffffffffffffffffff166000800160000160009054906101000a900473ffffffffffffffffffffffffffffffffffffffff1673ffffffffffffffffffffffffffffffffffffffff161415611028573460008001600301600082825461101c9190612528565b925050819055506110a5565b8073ffffffffffffffffffffffffffffffffffffffff16600060040160000160009054906101000a900473ffffffffffffffffffffffffffffffffffffffff1673ffffffffffffffffffffffffffffffffffffffff1614156110a457346000600401600301600082825461109c9190612528565b925050819055505b5b6003600060090160008282546110bb9190612749565b925050819055506004600060080160146101000a81548160ff021916908360088111156110eb576110ea612105565b5b0217905550601e426110fd9190612528565b6000600a01819055505b50565b60006111146105e1565b1561112657611121611561565b611248565b600b60009054906101000a900473ffffffffffffffffffffffffffffffffffffffff1673ffffffffffffffffffffffffffffffffffffffff163373ffffffffffffffffffffffffffffffffffffffff16146111b6576040517f08c379a00000000000000000000000000000000000000000000000000000000081526004016111ad9061233d565b60405180910390fd5b600460088111156111ca576111c9612105565b5b600060080160149054906101000a900460ff1660088111156111ef576111ee612105565b5b14156112425781600060080160006101000a81548173ffffffffffffffffffffffffffffffffffffffff021916908373ffffffffffffffffffffffffffffffffffffffff16021790555060019050611247565b600090505b5b919050565b60008173ffffffffffffffffffffffffffffffffffffffff16600060040160000160009054906101000a900473ffffffffffffffffffffffffffffffffffffffff1673ffffffffffffffffffffffffffffffffffffffff16149050919050565b6112b56105e1565b156112c7576112c2611561565b611501565b600b60009054906101000a900473ffffffffffffffffffffffffffffffffffffffff1673ffffffffffffffffffffffffffffffffffffffff163373ffffffffffffffffffffffffffffffffffffffff1614611357576040517f08c379a000000000000000000000000000000000000000000000000000000000815260040161134e9061233d565b60405180910390fd5b6004600881111561136b5761136a612105565b5b600060080160149054906101000a900460ff1660088111156113905761138f612105565b5b146113d0576040517f08c379a00000000000000000000000000000000000000000000000000000000081526004016113c7906127ef565b60405180910390fd5b8015611409576005600060080160146101000a81548160ff021916908360088111156113ff576113fe612105565b5b0217905550611438565b6006600060080160146101000a81548160ff0219169083600881111561143257611431612105565b5b02179055505b600b60009054906101000a900473ffffffffffffffffffffffffffffffffffffffff1673ffffffffffffffffffffffffffffffffffffffff16638d5cf4d8600060080160009054906101000a900473ffffffffffffffffffffffffffffffffffffffff166040518263ffffffff1660e01b81526004016114b8919061281e565b600060405180830381600087803b1580156114d257600080fd5b505af11580156114e6573d6000803e3d6000fd5b50505050601e426114f79190612528565b6000600a01819055505b50565b60008173ffffffffffffffffffffffffffffffffffffffff16600060080160009054906101000a900473ffffffffffffffffffffffffffffffffffffffff1673ffffffffffffffffffffffffffffffffffffffff16149050919050565b6001600881111561157557611574612105565b5b600060080160149054906101000a900460ff16600881111561159a57611599612105565b5b14806115dc5750600260088111156115b5576115b4612105565b5b600060080160149054906101000a900460ff1660088111156115da576115d9612105565b5b145b15611648576007600060080160146101000a81548160ff0219169083600881111561160a57611609612105565b5b0217905550611617611b5f565b7f3b0a072432f66c2c62b2ffa05c0384d649697f4a86708232650b4b37372f232c60405160405180910390a1611b41565b6003600881111561165c5761165b612105565b5b600060080160149054906101000a900460ff16600881111561168157611680612105565b5b14156117af5760006116966000600401611b43565b156116cb57600060040160000160009054906101000a900473ffffffffffffffffffffffffffffffffffffffff169050611708565b6116d760008001611b43565b15611707576000800160000160009054906101000a900473ffffffffffffffffffffffffffffffffffffffff1690505b5b6007600060080160146101000a81548160ff0219169083600881111561173157611730612105565b5b02179055508073ffffffffffffffffffffffffffffffffffffffff166108fc479081150290604051600060405180830381858888f1935050505015801561177c573d6000803e3d6000fd5b507f3b0a072432f66c2c62b2ffa05c0384d649697f4a86708232650b4b37372f232c60405160405180910390a150611b40565b600460088111156117c3576117c2612105565b5b600060080160149054906101000a900460ff1660088111156117e8576117e7612105565b5b1415611907576007600060080160146101000a81548160ff0219169083600881111561181757611816612105565b5b0217905550611824611b5f565b600b60009054906101000a900473ffffffffffffffffffffffffffffffffffffffff1673ffffffffffffffffffffffffffffffffffffffff1663f3181bff600060080160009054906101000a900473ffffffffffffffffffffffffffffffffffffffff166040518263ffffffff1660e01b81526004016118a4919061281e565b600060405180830381600087803b1580156118be57600080fd5b505af11580156118d2573d6000803e3d6000fd5b505050507f3b0a072432f66c2c62b2ffa05c0384d649697f4a86708232650b4b37372f232c60405160405180910390a1611b3f565b6005600881111561191b5761191a612105565b5b600060080160149054906101000a900460ff1660088111156119405761193f612105565b5b1415611a24576008600060080160146101000a81548160ff0219169083600881111561196f5761196e612105565b5b0217905550611985600060040160030154611c6d565b6000800160000160009054906101000a900473ffffffffffffffffffffffffffffffffffffffff1673ffffffffffffffffffffffffffffffffffffffff166108fc479081150290604051600060405180830381858888f193505050501580156119f2573d6000803e3d6000fd5b507f9ab8bf53a18ac51a5a24e74d7dcf0f9e8f30c86b3009a4934fb1489632e7953e60405160405180910390a1611b3e565b60066008811115611a3857611a37612105565b5b600060080160149054906101000a900460ff166008811115611a5d57611a5c612105565b5b1415611b3d576008600060080160146101000a81548160ff02191690836008811115611a8c57611a8b612105565b5b0217905550611aa16000800160030154611c6d565b600060040160000160009054906101000a900473ffffffffffffffffffffffffffffffffffffffff1673ffffffffffffffffffffffffffffffffffffffff166108fc479081150290604051600060405180830381858888f19350505050158015611b0f573d6000803e3d6000fd5b507f9ab8bf53a18ac51a5a24e74d7dcf0f9e8f30c86b3009a4934fb1489632e7953e60405160405180910390a15b5b5b5b5b565b600080826002018054611b5590612619565b9050119050919050565b6000806000016003015414611be4576000800160000160009054906101000a900473ffffffffffffffffffffffffffffffffffffffff1673ffffffffffffffffffffffffffffffffffffffff166108fc60008001600301549081150290604051600060405180830381858888f19350505050158015611be2573d6000803e3d6000fd5b505b6000806004016003015414611c6b57600060040160000160009054906101000a900473ffffffffffffffffffffffffffffffffffffffff1673ffffffffffffffffffffffffffffffffffffffff166108fc6000600401600301549081150290604051600060405180830381858888f19350505050158015611c69573d6000803e3d6000fd5b505b565b6000620186a06103e883611c819190612749565b611c8b9190612868565b9050600060080160009054906101000a900473ffffffffffffffffffffffffffffffffffffffff1673ffffffffffffffffffffffffffffffffffffffff166108fc829081150290604051600060405180830381858888f19350505050158015611cf8573d6000803e3d6000fd5b505050565b828054611d0990612619565b90600052602060002090601f016020900481019282611d2b5760008555611d72565b82601f10611d4457803560ff1916838001178555611d72565b82800160010185558215611d72579182015b82811115611d71578235825591602001919060010190611d56565b5b509050611d7f9190611ded565b5090565b6040518060c00160405280611d96611e0a565b8152602001611da3611e0a565b8152602001600073ffffffffffffffffffffffffffffffffffffffff16815260200160006008811115611dd957611dd8612105565b5b815260200160008152602001600081525090565b5b80821115611e06576000816000905550600101611dee565b5090565b6040518060800160405280600073ffffffffffffffffffffffffffffffffffffffff1681526020016000801916815260200160608152602001600081525090565b600080fd5b600080fd5b600073ffffffffffffffffffffffffffffffffffffffff82169050919050565b6000611e8082611e55565b9050919050565b611e9081611e75565b8114611e9b57600080fd5b50565b600081359050611ead81611e87565b92915050565b600060208284031215611ec957611ec8611e4b565b5b6000611ed784828501611e9e565b91505092915050565b60008115159050919050565b611ef581611ee0565b82525050565b6000602082019050611f106000830184611eec565b92915050565b600080fd5b600080fd5b600080fd5b60008083601f840112611f3b57611f3a611f16565b5b8235905067ffffffffffffffff811115611f5857611f57611f1b565b5b602083019150836001820283011115611f7457611f73611f20565b5b9250929050565b60008060208385031215611f9257611f91611e4b565b5b600083013567ffffffffffffffff811115611fb057611faf611e50565b5b611fbc85828601611f25565b92509250509250929050565b611fd181611e75565b82525050565b6000819050919050565b611fea81611fd7565b82525050565b600081519050919050565b600082825260208201905092915050565b60005b8381101561202a57808201518184015260208101905061200f565b83811115612039576000848401525b50505050565b6000601f19601f8301169050919050565b600061205b82611ff0565b6120658185611ffb565b935061207581856020860161200c565b61207e8161203f565b840191505092915050565b6000819050919050565b61209c81612089565b82525050565b60006080830160008301516120ba6000860182611fc8565b5060208301516120cd6020860182611fe1565b50604083015184820360408601526120e58282612050565b91505060608301516120fa6060860182612093565b508091505092915050565b7f4e487b7100000000000000000000000000000000000000000000000000000000600052602160045260246000fd5b6009811061214557612144612105565b5b50565b600081905061215682612134565b919050565b600061216682612148565b9050919050565b6121768161215b565b82525050565b600060c083016000830151848203600086015261219982826120a2565b915050602083015184820360208601526121b382826120a2565b91505060408301516121c86040860182611fc8565b5060608301516121db606086018261216d565b5060808301516121ee6080860182612093565b5060a083015161220160a0860182612093565b508091505092915050565b60006020820190508181036000830152612226818461217c565b905092915050565b61223781611fd7565b811461224257600080fd5b50565b6000813590506122548161222e565b92915050565b6000602082840312156122705761226f611e4b565b5b600061227e84828501612245565b91505092915050565b61229081611ee0565b811461229b57600080fd5b50565b6000813590506122ad81612287565b92915050565b6000602082840312156122c9576122c8611e4b565b5b60006122d78482850161229e565b91505092915050565b600082825260208201905092915050565b7f496e76616c69642066756e6374696f6e2063616c6c0000000000000000000000600082015250565b60006123276015836122e0565b9150612332826122f1565b602082019050919050565b600060208201905081810360008301526123568161231a565b9050919050565b7f54686973206361736520646f6573206e6f74206163636570742070726f6f6673600082015250565b60006123936020836122e0565b915061239e8261235d565b602082019050919050565b600060208201905081810360008301526123c281612386565b9050919050565b7f5468652070726f6f6620697320616c72656164792070726f7669646564000000600082015250565b60006123ff601d836122e0565b915061240a826123c9565b602082019050919050565b6000602082019050818103600083015261242e816123f2565b9050919050565b600081905092915050565b82818337600083830152505050565b600061245b8385612435565b9350612468838584612440565b82840190509392505050565b600061248182848661244f565b91508190509392505050565b7f50726f6f6620646f6573206e6f74206d617463682070726f6f66206861736800600082015250565b60006124c3601f836122e0565b91506124ce8261248d565b602082019050919050565b600060208201905081810360008301526124f2816124b6565b9050919050565b7f4e487b7100000000000000000000000000000000000000000000000000000000600052601160045260246000fd5b600061253382612089565b915061253e83612089565b9250827fffffffffffffffffffffffffffffffffffffffffffffffffffffffffffffffff03821115612573576125726124f9565b5b828201905092915050565b7f5468652063617365206973206e6f742065787069726564000000000000000000600082015250565b60006125b46017836122e0565b91506125bf8261257e565b602082019050919050565b600060208201905081810360008301526125e3816125a7565b9050919050565b7f4e487b7100000000000000000000000000000000000000000000000000000000600052602260045260246000fd5b6000600282049050600182168061263157607f821691505b60208210811415612645576126446125ea565b5b50919050565b7f50726f766964652074686520726967687420616d6f756e74206f6620636f6c6c60008201527f61746572616c0000000000000000000000000000000000000000000000000000602082015250565b60006126a76026836122e0565b91506126b28261264b565b604082019050919050565b600060208201905081810360008301526126d68161269a565b9050919050565b7f54686520636173652063616e6e6f742062652061707065616c65640000000000600082015250565b6000612713601b836122e0565b915061271e826126dd565b602082019050919050565b6000602082019050818103600083015261274281612706565b9050919050565b600061275482612089565b915061275f83612089565b9250817fffffffffffffffffffffffffffffffffffffffffffffffffffffffffffffffff0483118215151615612798576127976124f9565b5b828202905092915050565b7f546869732063617365206973206e6f74206265696e67206a7564676564000000600082015250565b60006127d9601d836122e0565b91506127e4826127a3565b602082019050919050565b60006020820190508181036000830152612808816127cc565b9050919050565b61281881611e75565b82525050565b6000602082019050612833600083018461280f565b92915050565b7f4e487b7100000000000000000000000000000000000000000000000000000000600052601260045260246000fd5b600061287382612089565b915061287e83612089565b92508261288e5761288d612839565b5b82820490509291505056fea2646970667358221220fb16accb008e7722ad4df03853c84e306d47a359621199a938850024d399589864736f6c63430008090033",
  "immutableReferences": {},
  "source": "// SPDX-License-Identifier: MIT\npragma solidity 0.8.9;\nimport './IJudgeManager.sol';\n\nstruct CaseParticipant {\n\taddress addr;\n\tbytes32 proofHash;\n\tstring proof;\n\tuint collateral;\n}\n\nenum CaseStates {\n\tUndefined,\n\tRequested,\n\tAccepted,\n\tDisclosingProofs,\n\tJudging,\n\tWon,\n\tLost,\n\tAborted,\n\tClosed\n}\n\nstruct CaseData {\n\tCaseParticipant requester;\t\n\tCaseParticipant opponent;\n\taddress judge;\n\n\tCaseStates state;\n\tuint baseCollateral;\n\tuint expiration;\n}\n\ncontract Case {\n\tuint constant STEP_EXPIRATION_TIME = 30 seconds; //1 days;\n\tuint constant JUDGE_CUT_DENOMINATOR = 100000; // 100%\n\tuint constant JUDGE_CUT = 1000; // 1%\n\n\tCaseData data;\n\tIJudgeManager judges;\n\n\tevent CaseRequested(address indexed requester, address indexed opponent);\n\tevent CaseAccepted(address indexed requester, address indexed opponent);\n\tevent JudgeAssigned(address indexed judge, uint caseId);\n\tevent CaseAborted();\n\tevent CaseClosed();\n\n\tconstructor(IJudgeManager judgesContract, address requesterAddress, address opponentAddress, bytes32 proofHash, uint collateral) payable {\n\t\trequire(msg.value == collateral, \"Invalid collateral provided\");\n\n\t\tjudges = judgesContract;\n\t\tdata = CaseData(\n\t\t\tCaseParticipant(requesterAddress, proofHash, \"\", collateral),\n\t\t\tCaseParticipant(opponentAddress, \"\", \"\", 0),\n\t\t\taddress(0x0),\n\t\t\tCaseStates.Requested,\n\t\t\tcollateral,\n\t\t\tblock.timestamp + STEP_EXPIRATION_TIME\n\t\t);\n\n\t\temit CaseRequested(requesterAddress, opponentAddress);\n\t}\n\n\tfunction getCaseData() public view returns (CaseData memory) {\n\t\treturn data;\n\t}\n\n\tfunction isExpired() public view returns (bool) {\n\t\treturn data.expiration < block.timestamp;\n\t}\n\n\tfunction isRequester(address addr) public view returns (bool) {\n\t\treturn data.requester.addr == addr;\n\t}\n\t\n\tfunction isOpponent(address addr) public view returns (bool) {\n\t\treturn data.opponent.addr == addr;\n\t}\n\n\tfunction isJudge(address addr) public view returns (bool) {\n\t\treturn data.judge == addr;\n\t}\n\n\tmodifier onlyJudgesContract {\n\t\trequire(msg.sender == address(judges), \"Invalid function call\");\n\t\t_;\n\t}\n\n\tmodifier handlesExpired {\n\t\tif (isExpired()) {\n\t\t\thandleExpiredCase();\n\t\t} else {\n\t\t\t_;\n\t\t}\n\t}\n\n\tmodifier bumpsExpiration {\n\t\t_;\n\t\tdata.expiration = block.timestamp + STEP_EXPIRATION_TIME;\n\t}\n\n\tfunction acceptCase(bytes32 proofHash) public payable handlesExpired bumpsExpiration onlyJudgesContract {\n\t\trequire(data.state == CaseStates.Requested);\n\t\trequire(data.baseCollateral == msg.value, \"Provide the right amount of collateral\");\n\n\t\tdata.opponent.proofHash = proofHash;\n\t\tdata.opponent.collateral = data.baseCollateral;\n\t\tdata.state = CaseStates.Accepted;\n\n\t\temit CaseAccepted(data.requester.addr, data.opponent.addr);\n\t}\n\n\tfunction discloseRequesterProof(string calldata proof) public handlesExpired bumpsExpiration onlyJudgesContract {\n\t\trequire(data.state == CaseStates.Accepted || data.state == CaseStates.DisclosingProofs, \"This case does not accept proofs\");\n\t\trequire(!isDisclosedProof(data.requester), \"The proof is already provided\");\n\t\trequire(keccak256(abi.encodePacked(proof)) == data.requester.proofHash, \"Proof does not match proof hash\");\n\t\t\n\t\tdata.requester.proof = proof;\n\t\tdata.state = CaseStates(uint(data.state) + 1); // move on to next state (either Disclosing or Judging)\n\t}\n\n\tfunction discloseOpponentProof(string calldata proof) public handlesExpired bumpsExpiration onlyJudgesContract {\n\t\trequire(data.state == CaseStates.Accepted || data.state == CaseStates.DisclosingProofs, \"This case does not accept proofs\");\n\t\trequire(!isDisclosedProof(data.opponent), \"The proof is already provided\");\n\t\trequire(keccak256(abi.encodePacked(proof)) == data.opponent.proofHash, \"Proof does not match proof hash\");\n\t\t\n\t\tdata.opponent.proof = proof;\n\t\tdata.state = CaseStates(uint(data.state) + 1); // move on to next state (either Disclosing or Judging)\n\t}\n\t\n\tfunction assignJudge(address judgeAddress) public handlesExpired onlyJudgesContract returns (bool) {\n\t\tif (data.state == CaseStates.Judging) { // Don't fail for other states to allow calling multiple times\n\t\t\tdata.judge = judgeAddress;\n\t\t\treturn true;\n\t\t}\n\t\treturn false;\n\t}\n\n\tfunction setDecision(bool win) public handlesExpired bumpsExpiration onlyJudgesContract {\n\t\trequire(data.state == CaseStates.Judging, \"This case is not being judged\");\n\n\t\tif (win) {\n\t\t\tdata.state = CaseStates.Won;\n\t\t} else {\n\t\t\tdata.state = CaseStates.Lost;\n\t\t}\n\n\t\tjudges.reportGood(data.judge);\n\t}\n\n\tfunction appeal(address appealer) public payable handlesExpired bumpsExpiration onlyJudgesContract {\n\t\trequire(data.state == CaseStates.Won || data.state == CaseStates.Lost, \"The case cannot be appealed\");\n\t\trequire(msg.value == data.baseCollateral * 3);\n\n\t\tif (data.requester.addr == appealer) {\n\t\t\tdata.requester.collateral += msg.value;\n\t\t} else if (data.opponent.addr == appealer) {\n\t\t\tdata.opponent.collateral += msg.value;\n\t\t}\n\t\tdata.baseCollateral *= 3;\n\t\tdata.state = CaseStates.Judging;\n\t}\n\t\n\tfunction claim() public {\n\t\trequire(isExpired(), \"The case is not expired\");\n\t\thandleExpiredCase(); // win or lose, either way someone has to receive money\n\t}\n\n\tfunction isDisclosedProof(CaseParticipant storage participant) private view returns (bool) {\n\t\treturn bytes(participant.proof).length > 0;\n\t}\n\n\tfunction refundAll() private {\n\t\tif (data.requester.collateral != 0) {\n\t\t\tpayable(data.requester.addr).transfer(data.requester.collateral);\n\t\t}\n\n\t\tif (data.opponent.collateral != 0) {\n\t\t\tpayable(data.opponent.addr).transfer(data.opponent.collateral);\n\t\t}\n\t}\n\n\tfunction sendJudgeCut(uint losersCollateral) private {\n\t\tuint judgesCut = losersCollateral * JUDGE_CUT / JUDGE_CUT_DENOMINATOR;\n\t\tpayable(data.judge).transfer(judgesCut); // send the judge their cut\n\t}\n\n\tfunction handleExpiredCase() private {\n\t\tif (data.state == CaseStates.Requested || data.state == CaseStates.Accepted) {\n\t\t\tdata.state = CaseStates.Aborted;\n\t\t\trefundAll();\n\t\t\temit CaseAborted();\n\t\t\t\n\t\t} else if (data.state == CaseStates.DisclosingProofs) { // only one of participants disclosed proof\n\t\t\t// send everything to the one who disclosed proof\n\t\t\taddress goodBoy = address(0x0);\n\t\t\tif (isDisclosedProof(data.opponent)) {\n\t\t\t\tgoodBoy = data.opponent.addr;\n\t\t\t} else if (isDisclosedProof(data.requester)) {\n\t\t\t\tgoodBoy = data.requester.addr;\n\t\t\t}\n\n\t\t\tdata.state = CaseStates.Aborted;\n\t\t\tpayable(goodBoy).transfer(address(this).balance);\n\t\t\temit CaseAborted();\n\t\t\t\t\t\t\n\t\t} else if (data.state == CaseStates.Judging) { // Judging did not complete on time\n\t\t\t// refund both and report the bad judges\n\t\t\tdata.state = CaseStates.Aborted;\n\t\t\trefundAll();\n\t\t\tjudges.reportBad(data.judge);\n\t\t\temit CaseAborted();\n\t\t} else if (data.state == CaseStates.Won) { // requester wins\n\t\t\tdata.state = CaseStates.Closed;\n\t\t\tsendJudgeCut(data.opponent.collateral);\n\t\t\tpayable(data.requester.addr).transfer(address(this).balance); // send the rest to the requester\n\t\t\temit CaseClosed();\n\t\t} else if (data.state == CaseStates.Lost) { // requester loses, opponent wins\n\t\t\tdata.state = CaseStates.Closed;\n\t\t\tsendJudgeCut(data.requester.collateral);\n\t\t\tpayable(data.opponent.addr).transfer(address(this).balance); // send the rest to the opponent\n\t\t\temit CaseClosed();\n\t\t}\n\t}\n}\n",
  "sourcePath": "C:\\Users\\msotn\\Desktop\\Crypto Judges\\contracts\\Case.sol",
  "compiler": {
    "name": "solc",
    "version": "0.8.9+commit.e5eed63a.Emscripten.clang"
  },
  "schemaVersion": "3.4.3",
  "updatedAt": "2021-10-23T11:17:44.925Z",
  "devdoc": {
    "kind": "dev",
    "methods": {},
    "version": 1
  },
  "userdoc": {
    "kind": "user",
    "methods": {},
    "version": 1
  }
}