{
  "contractName": "Case",
  "abi": [
    {
      "inputs": [
        {
          "internalType": "contract IJudgeManager",
          "name": "judgesContract",
          "type": "address"
        },
        {
          "internalType": "uint256",
          "name": "caseId",
          "type": "uint256"
        },
        {
          "internalType": "address",
          "name": "requesterAddress",
          "type": "address"
        },
        {
          "internalType": "address",
          "name": "opponentAddress",
          "type": "address"
        },
        {
          "internalType": "string",
          "name": "description",
          "type": "string"
        },
        {
          "internalType": "bytes32",
          "name": "proofHash",
          "type": "bytes32"
        },
        {
          "internalType": "uint256",
          "name": "collateral",
          "type": "uint256"
        }
      ],
      "stateMutability": "payable",
      "type": "constructor"
    },
    {
      "anonymous": false,
      "inputs": [],
      "name": "CaseAborted",
      "type": "event"
    },
    {
      "anonymous": false,
      "inputs": [
        {
          "indexed": true,
          "internalType": "address",
          "name": "requester",
          "type": "address"
        },
        {
          "indexed": true,
          "internalType": "address",
          "name": "opponent",
          "type": "address"
        }
      ],
      "name": "CaseAccepted",
      "type": "event"
    },
    {
      "anonymous": false,
      "inputs": [],
      "name": "CaseClosed",
      "type": "event"
    },
    {
      "anonymous": false,
      "inputs": [
        {
          "indexed": true,
          "internalType": "address",
          "name": "requester",
          "type": "address"
        },
        {
          "indexed": true,
          "internalType": "address",
          "name": "opponent",
          "type": "address"
        }
      ],
      "name": "CaseRequested",
      "type": "event"
    },
    {
      "anonymous": false,
      "inputs": [
        {
          "indexed": true,
          "internalType": "address",
          "name": "judge",
          "type": "address"
        },
        {
          "indexed": false,
          "internalType": "uint256",
          "name": "caseId",
          "type": "uint256"
        }
      ],
      "name": "JudgeAssigned",
      "type": "event"
    },
    {
      "inputs": [],
      "name": "getCaseData",
      "outputs": [
        {
          "components": [
            {
              "internalType": "uint256",
              "name": "caseId",
              "type": "uint256"
            },
            {
              "components": [
                {
                  "internalType": "address",
                  "name": "addr",
                  "type": "address"
                },
                {
                  "internalType": "bytes32",
                  "name": "proofHash",
                  "type": "bytes32"
                },
                {
                  "internalType": "string",
                  "name": "proof",
                  "type": "string"
                },
                {
                  "internalType": "uint256",
                  "name": "collateral",
                  "type": "uint256"
                }
              ],
              "internalType": "struct CaseParticipant",
              "name": "requester",
              "type": "tuple"
            },
            {
              "components": [
                {
                  "internalType": "address",
                  "name": "addr",
                  "type": "address"
                },
                {
                  "internalType": "bytes32",
                  "name": "proofHash",
                  "type": "bytes32"
                },
                {
                  "internalType": "string",
                  "name": "proof",
                  "type": "string"
                },
                {
                  "internalType": "uint256",
                  "name": "collateral",
                  "type": "uint256"
                }
              ],
              "internalType": "struct CaseParticipant",
              "name": "opponent",
              "type": "tuple"
            },
            {
              "internalType": "address[]",
              "name": "judges",
              "type": "address[]"
            },
            {
              "internalType": "uint256",
              "name": "judgesRequired",
              "type": "uint256"
            },
            {
              "internalType": "string",
              "name": "description",
              "type": "string"
            },
            {
              "internalType": "enum CaseStates",
              "name": "state",
              "type": "uint8"
            },
            {
              "internalType": "uint256",
              "name": "tally",
              "type": "uint256"
            },
            {
              "internalType": "uint256",
              "name": "votes",
              "type": "uint256"
            },
            {
              "internalType": "uint256",
              "name": "baseCollateral",
              "type": "uint256"
            },
            {
              "internalType": "uint256",
              "name": "expiration",
              "type": "uint256"
            }
          ],
          "internalType": "struct CaseData",
          "name": "",
          "type": "tuple"
        }
      ],
      "stateMutability": "view",
      "type": "function"
    },
    {
      "inputs": [],
      "name": "isExpired",
      "outputs": [
        {
          "internalType": "bool",
          "name": "",
          "type": "bool"
        }
      ],
      "stateMutability": "view",
      "type": "function"
    },
    {
      "inputs": [
        {
          "internalType": "address",
          "name": "addr",
          "type": "address"
        }
      ],
      "name": "isRequester",
      "outputs": [
        {
          "internalType": "bool",
          "name": "",
          "type": "bool"
        }
      ],
      "stateMutability": "view",
      "type": "function"
    },
    {
      "inputs": [
        {
          "internalType": "address",
          "name": "addr",
          "type": "address"
        }
      ],
      "name": "isOpponent",
      "outputs": [
        {
          "internalType": "bool",
          "name": "",
          "type": "bool"
        }
      ],
      "stateMutability": "view",
      "type": "function"
    },
    {
      "inputs": [
        {
          "internalType": "address",
          "name": "addr",
          "type": "address"
        }
      ],
      "name": "isJudge",
      "outputs": [
        {
          "internalType": "bool",
          "name": "",
          "type": "bool"
        }
      ],
      "stateMutability": "view",
      "type": "function"
    },
    {
      "inputs": [],
      "name": "needsJudges",
      "outputs": [
        {
          "internalType": "bool",
          "name": "",
          "type": "bool"
        }
      ],
      "stateMutability": "view",
      "type": "function"
    },
    {
      "inputs": [
        {
          "internalType": "bytes32",
          "name": "proofHash",
          "type": "bytes32"
        }
      ],
      "name": "acceptCase",
      "outputs": [],
      "stateMutability": "payable",
      "type": "function"
    },
    {
      "inputs": [
        {
          "internalType": "string",
          "name": "proof",
          "type": "string"
        }
      ],
      "name": "discloseRequesterProof",
      "outputs": [],
      "stateMutability": "nonpayable",
      "type": "function"
    },
    {
      "inputs": [
        {
          "internalType": "string",
          "name": "proof",
          "type": "string"
        }
      ],
      "name": "discloseOpponentProof",
      "outputs": [],
      "stateMutability": "nonpayable",
      "type": "function"
    },
    {
      "inputs": [
        {
          "internalType": "address",
          "name": "judgeAddress",
          "type": "address"
        }
      ],
      "name": "assignJudge",
      "outputs": [
        {
          "internalType": "bool",
          "name": "",
          "type": "bool"
        }
      ],
      "stateMutability": "nonpayable",
      "type": "function"
    },
    {
      "inputs": [
        {
          "internalType": "bool",
          "name": "win",
          "type": "bool"
        },
        {
          "internalType": "address",
          "name": "judge",
          "type": "address"
        }
      ],
      "name": "setDecision",
      "outputs": [],
      "stateMutability": "nonpayable",
      "type": "function"
    },
    {
      "inputs": [
        {
          "internalType": "address",
          "name": "appealer",
          "type": "address"
        }
      ],
      "name": "appeal",
      "outputs": [],
      "stateMutability": "payable",
      "type": "function"
    },
    {
      "inputs": [],
      "name": "claim",
      "outputs": [],
      "stateMutability": "nonpayable",
      "type": "function"
    }
  ],
  "bytecode": "0x60806040526040516200213538038062002135833981016040819052620000269162000498565b8034146200007a5760405162461bcd60e51b815260206004820152601b60248201527f496e76616c696420636f6c6c61746572616c2070726f76696465640000000000604482015260640160405180910390fd5b86601260006101000a8154816001600160a01b0302191690836001600160a01b031602179055506040518061016001604052808781526020016040518060800160405280886001600160a01b031681526020018581526020016040518060200160405280600081525081526020018481525081526020016040518060800160405280876001600160a01b03168152602001600080191681526020016040518060200160405280600081525081526020016000815250815260200160006001600160401b0381111562000150576200015062000482565b6040519080825280602002602001820160405280156200017a578160200160208202803683370190505b5081526020016001815260200184815260200160016008811115620001a357620001a3620005d5565b8152602001600081526020016000815260200182815260200161025842620001cc9190620005eb565b9052805160009081556020808301518051600180546001600160a01b0319166001600160a01b039092169190911781558183015160025560408201518051929391926200021e9260039201906200036b565b506060919091015160039091015560408281015180516005840180546001600160a01b0319166001600160a01b039092169190911781556020808301516006860155928201518051929391926200027c92600787019201906200036b565b506060918201516003909101558201518051620002a4916009840191602090910190620003fa565b506080820151600a82015560a08201518051620002cc91600b8401916020909101906200036b565b5060c0820151600c8201805460ff19166001836008811115620002f357620002f3620005d5565b021790555060e0820151600d820155610100820151600e820155610120820151600f820155610140909101516010909101556040516001600160a01b0380861691908716907fb957e4dc3b04409e6c4b14ee40d0d8e5efe8caf593e96b517b5afcdbbc7ff32690600090a3505050505050506200064f565b828054620003799062000612565b90600052602060002090601f0160209004810192826200039d5760008555620003e8565b82601f10620003b857805160ff1916838001178555620003e8565b82800160010185558215620003e8579182015b82811115620003e8578251825591602001919060010190620003cb565b50620003f692915062000452565b5090565b828054828255906000526020600020908101928215620003e8579160200282015b82811115620003e857825182546001600160a01b0319166001600160a01b039091161782556020909201916001909101906200041b565b5b80821115620003f6576000815560010162000453565b6001600160a01b03811681146200047f57600080fd5b50565b634e487b7160e01b600052604160045260246000fd5b600080600080600080600060e0888a031215620004b457600080fd5b8751620004c18162000469565b8097505060208089015196506040890151620004dd8162000469565b60608a0151909650620004f08162000469565b60808a01519095506001600160401b03808211156200050e57600080fd5b818b0191508b601f8301126200052357600080fd5b81518181111562000538576200053862000482565b604051601f8201601f19908116603f0116810190838211818310171562000563576200056362000482565b816040528281528e868487010111156200057c57600080fd5b600093505b82841015620005a0578484018601518185018701529285019262000581565b82841115620005b25760008684830101525b80985050505050505060a0880151915060c0880151905092959891949750929550565b634e487b7160e01b600052602160045260246000fd5b600082198211156200060d57634e487b7160e01b600052601160045260246000fd5b500190565b600181811c908216806200062757607f821691505b602082108114156200064957634e487b7160e01b600052602260045260246000fd5b50919050565b611ad6806200065f6000396000f3fe6080604052600436106100c25760003560e01c80636af081361161007f578063c0d3e84811610059578063c0d3e848146101e3578063ca04ddcb146101f6578063d0f63a6314610216578063ed896d661461024557600080fd5b80636af081361461019057806377f29b1b146101b05780639896d250146101d057600080fd5b806302529177146100c75780630befd51f1461010b578063264118141461012d5780632f13b60c146101425780634e71d92d146101595780635eaea3b21461016e575b600080fd5b3480156100d357600080fd5b506100f66100e23660046116b5565b6001546001600160a01b0390811691161490565b60405190151581526020015b60405180910390f35b34801561011757600080fd5b5061012b6101263660046116d7565b610265565b005b34801561013957600080fd5b506100f6610479565b34801561014e57600080fd5b5060105442116100f6565b34801561016557600080fd5b5061012b6104a9565b34801561017a57600080fd5b50610183610504565b6040516101029190611857565b34801561019c57600080fd5b5061012b6101ab3660046116d7565b610816565b3480156101bc57600080fd5b5061012b6101cb366004611933565b6109b5565b61012b6101de36600461196d565b610bc0565b61012b6101f13660046116b5565b610ceb565b34801561020257600080fd5b506100f66102113660046116b5565b610ea5565b34801561022257600080fd5b506100f66102313660046116b5565b6005546001600160a01b0390811691161490565b34801561025157600080fd5b506100f66102603660046116b5565b610f91565b60105442111561027b57610277610ffe565b5050565b6012546001600160a01b031633146102ae5760405162461bcd60e51b81526004016102a590611986565b60405180910390fd5b6002600c5460ff1660088111156102c7576102c761181f565b14806102e957506003600c5460ff1660088111156102e7576102e761181f565b145b6103355760405162461bcd60e51b815260206004820181905260248201527f54686973206361736520646f6573206e6f74206163636570742070726f6f667360448201526064016102a5565b61033f60016113b2565b1561038c5760405162461bcd60e51b815260206004820152601d60248201527f5468652070726f6f6620697320616c72656164792070726f766964656400000060448201526064016102a5565b6002546040516103a290849084906020016119b5565b60405160208183030381529060405280519060200120146104055760405162461bcd60e51b815260206004820152601f60248201527f50726f6f6620646f6573206e6f74206d617463682070726f6f6620686173680060448201526064016102a5565b610411600383836114ef565b50600c5460ff1660088111156104295761042961181f565b6104349060016119db565b60088111156104455761044561181f565b600c805460ff191660018360088111156104615761046161181f565b0217905550610472610258426119db565b6010555050565b60006004600c5460ff1660088111156104945761049461181f565b1480156104a45750600a54600954105b905090565b60105442116104fa5760405162461bcd60e51b815260206004820152601760248201527f5468652063617365206973206e6f74206578706972656400000000000000000060448201526064016102a5565b610502610ffe565b565b61050c611573565b60408051610160810182526000805482528251608081018452600180546001600160a01b03168252600254602083810191909152600380549596949591870194840191610558906119f3565b80601f0160208091040260200160405190810160405280929190818152602001828054610584906119f3565b80156105d15780601f106105a6576101008083540402835291602001916105d1565b820191906000526020600020905b8154815290600101906020018083116105b457829003601f168201915b505050918352505060039190910154602091820152908252604080516080810182526005850180546001600160a01b03168252600686015482850152600786018054959094019491939092840191610628906119f3565b80601f0160208091040260200160405190810160405280929190818152602001828054610654906119f3565b80156106a15780601f10610676576101008083540402835291602001916106a1565b820191906000526020600020905b81548152906001019060200180831161068457829003601f168201915b5050505050815260200160038201548152505081526020016009820180548060200260200160405190810160405280929190818152602001828054801561071157602002820191906000526020600020905b81546001600160a01b031681526001909101906020018083116106f3575b50505050508152602001600a8201548152602001600b82018054610734906119f3565b80601f0160208091040260200160405190810160405280929190818152602001828054610760906119f3565b80156107ad5780601f10610782576101008083540402835291602001916107ad565b820191906000526020600020905b81548152906001019060200180831161079057829003601f168201915b5050509183525050600c82015460209091019060ff1660088111156107d4576107d461181f565b60088111156107e5576107e561181f565b8152602001600d8201548152602001600e8201548152602001600f8201548152602001601082015481525050905090565b60105442111561082857610277610ffe565b6012546001600160a01b031633146108525760405162461bcd60e51b81526004016102a590611986565b6002600c5460ff16600881111561086b5761086b61181f565b148061088d57506003600c5460ff16600881111561088b5761088b61181f565b145b6108d95760405162461bcd60e51b815260206004820181905260248201527f54686973206361736520646f6573206e6f74206163636570742070726f6f667360448201526064016102a5565b6108e360056113b2565b156109305760405162461bcd60e51b815260206004820152601d60248201527f5468652070726f6f6620697320616c72656164792070726f766964656400000060448201526064016102a5565b60065460405161094690849084906020016119b5565b60405160208183030381529060405280519060200120146109a95760405162461bcd60e51b815260206004820152601f60248201527f50726f6f6620646f6573206e6f74206d617463682070726f6f6620686173680060448201526064016102a5565b610411600783836114ef565b6010544211156109c757610277610ffe565b6012546001600160a01b031633146109f15760405162461bcd60e51b81526004016102a590611986565b6004600c5460ff166008811115610a0a57610a0a61181f565b14610a575760405162461bcd60e51b815260206004820152601d60248201527f546869732063617365206973206e6f74206265696e67206a756467656400000060448201526064016102a5565b6001600160a01b03811660009081526011602052604090205460ff16610ab65760405162461bcd60e51b8152602060048201526014602482015273151a1a5cc81a9d5919d9481a185cc81d9bdd195960621b60448201526064016102a5565b8115610ad85760016000600d016000828254610ad291906119db565b90915550505b6001600160a01b0381166000908152601160205260408120805460ff19169055600e805460019290610b0b9084906119db565b9091555050600a54600e541415610b5357600a54610b2b90600290611a2e565b600d5410610b4557600c805460ff19166005179055610b53565b600c805460ff191660061790555b6012546040516311ab9e9b60e31b81526001600160a01b03838116600483015290911690638d5cf4d890602401600060405180830381600087803b158015610b9a57600080fd5b505af1158015610bae573d6000803e3d6000fd5b505050506102584261047291906119db565b601054421115610bd557610bd2610ffe565b50565b6012546001600160a01b03163314610bff5760405162461bcd60e51b81526004016102a590611986565b6001600c5460ff166008811115610c1857610c1861181f565b14610c2257600080fd5b600f543414610c825760405162461bcd60e51b815260206004820152602660248201527f50726f766964652074686520726967687420616d6f756e74206f6620636f6c6c604482015265185d195c985b60d21b60648201526084016102a5565b6006819055600f54600855600c805460ff191660021790556005546001546040516001600160a01b0392831692909116907fdd5f05630ec0ad93ddee9d95393a7402ae7eac8de7af06b03249fee0478b876d90600090a3610ce5610258426119db565b60105550565b601054421115610cfd57610bd2610ffe565b6012546001600160a01b03163314610d275760405162461bcd60e51b81526004016102a590611986565b6005600c5460ff166008811115610d4057610d4061181f565b1480610d6257506006600c5460ff166008811115610d6057610d6061181f565b145b610dae5760405162461bcd60e51b815260206004820152601b60248201527f54686520636173652063616e6e6f742062652061707065616c6564000000000060448201526064016102a5565b600f54610dbc906003611a50565b3414610dc757600080fd5b6001546001600160a01b0382811691161415610dfd5760048054349190600090610df29084906119db565b90915550610e2e9050565b6005546001600160a01b0382811691161415610e2e5760088054349190600090610e289084906119db565b90915550505b60036000600f016000828254610e449190611a50565b9091555050600a805460039190600090610e5f908490611a50565b90915550506040805160008152602081019182905251610e8191600991611634565b506000600d819055600e55600c805460ff19166004179055610ce5610258426119db565b6000610eb2601054421190565b15610ec457610ebf610ffe565b919050565b6012546001600160a01b03163314610eee5760405162461bcd60e51b81526004016102a590611986565b6004600c5460ff166008811115610f0757610f0761181f565b148015610f1a5750610f1882610f91565b155b15610f8957506001600160a01b03166000818152601160205260408120805460ff1916600190811790915560098054808301825592527f6e1540171b6c0c960b71a7020d9f60077f6af931a8bbf590da0223dacf75c7af90910180546001600160a01b03191690921790915590565b506000919050565b6000805b600954811015610ff557826001600160a01b031660006009018281548110610fbf57610fbf611a6f565b6000918252602090912001546001600160a01b03161415610fe35750600192915050565b80610fed81611a85565b915050610f95565b50600092915050565b6001600c5460ff1660088111156110175761101761181f565b148061103957506002600c5460ff1660088111156110375761103761181f565b145b1561107e57600c805460ff191660071790556110536113ce565b6040517f3b0a072432f66c2c62b2ffa05c0384d649697f4a86708232650b4b37372f232c90600090a1565b6003600c5460ff1660088111156110975761109761181f565b141561114e5760006110a960056113b2565b156110c057506005546001600160a01b03166110dd565b6110ca60016113b2565b156110dd57506001546001600160a01b03165b600c8054600760ff199091161790556040516001600160a01b038216904780156108fc02916000818181858888f19350505050158015611121573d6000803e3d6000fd5b506040517f3b0a072432f66c2c62b2ffa05c0384d649697f4a86708232650b4b37372f232c90600090a150565b6004600c5460ff1660088111156111675761116761181f565b14156112a357600c805460ff191660071790556111826113ce565b60005b60095481101561127757601160008060090183815481106111a8576111a8611a6f565b60009182526020808320909101546001600160a01b0316835282019290925260400190205460ff161561126557601254600980546001600160a01b039092169163f3181bff9190849081106111ff576111ff611a6f565b60009182526020909120015460405160e083901b6001600160e01b03191681526001600160a01b039091166004820152602401600060405180830381600087803b15801561124c57600080fd5b505af1158015611260573d6000803e3d6000fd5b505050505b8061126f81611a85565b915050611185565b506040517f3b0a072432f66c2c62b2ffa05c0384d649697f4a86708232650b4b37372f232c90600090a1565b6005600c5460ff1660088111156112bc576112bc61181f565b141561134157600c805460ff19166008908117909155546112dc90611458565b6001546040516001600160a01b03909116904780156108fc02916000818181858888f19350505050158015611315573d6000803e3d6000fd5b506040517f9ab8bf53a18ac51a5a24e74d7dcf0f9e8f30c86b3009a4934fb1489632e7953e90600090a1565b6006600c5460ff16600881111561135a5761135a61181f565b141561050257600c805460ff1916600817905560045461137990611458565b6005546040516001600160a01b03909116904780156108fc02916000818181858888f19350505050158015611315573d6000803e3d6000fd5b6000808260020180546113c4906119f3565b9050119050919050565b60045415611414576001546004546040516001600160a01b039092169181156108fc0291906000818181858888f19350505050158015611412573d6000803e3d6000fd5b505b60085415610502576005546008546040516001600160a01b039092169181156108fc0291906000818181858888f19350505050158015610bd2573d6000803e3d6000fd5b6000620186a061146a6103e884611a50565b6114749190611a2e565b905060005b6009548110156114ea57600980548290811061149757611497611a6f565b60009182526020822001546040516001600160a01b039091169184156108fc02918591818181858888f193505050501580156114d7573d6000803e3d6000fd5b50806114e281611a85565b915050611479565b505050565b8280546114fb906119f3565b90600052602060002090601f01602090048101928261151d5760008555611563565b82601f106115365782800160ff19823516178555611563565b82800160010185558215611563579182015b82811115611563578235825591602001919060010190611548565b5061156f929150611689565b5090565b604051806101600160405280600081526020016115bd604051806080016040528060006001600160a01b031681526020016000801916815260200160608152602001600081525090565b815260408051608081018252600080825260208281018290526060938301849052928201529101908152602001606081526020016000815260200160608152602001600060088111156116125761161261181f565b8152602001600081526020016000815260200160008152602001600081525090565b828054828255906000526020600020908101928215611563579160200282015b8281111561156357825182546001600160a01b0319166001600160a01b03909116178255602090920191600190910190611654565b5b8082111561156f576000815560010161168a565b80356001600160a01b0381168114610ebf57600080fd5b6000602082840312156116c757600080fd5b6116d08261169e565b9392505050565b600080602083850312156116ea57600080fd5b823567ffffffffffffffff8082111561170257600080fd5b818501915085601f83011261171657600080fd5b81358181111561172557600080fd5b86602082850101111561173757600080fd5b60209290920196919550909350505050565b6000815180845260005b8181101561176f57602081850181015186830182015201611753565b81811115611781576000602083870101525b50601f01601f19169290920160200192915050565b60018060a01b0381511682526020810151602083015260006040820151608060408501526117c76080850182611749565b606093840151949093019390935250919050565b600081518084526020808501945080840160005b838110156118145781516001600160a01b0316875295820195908201906001016117ef565b509495945050505050565b634e487b7160e01b600052602160045260246000fd5b6009811061185357634e487b7160e01b600052602160045260246000fd5b9052565b602081528151602082015260006020830151610160806040850152611880610180850183611796565b91506040850151601f198086850301606087015261189e8483611796565b935060608701519150808685030160808701526118bb84836117db565b9350608087015160a087015260a08701519150808685030160c0870152506118e38382611749565b92505060c08501516118f860e0860182611835565b5060e0850151610100858101919091528501516101208086019190915285015161014080860191909152909401519390920192909252919050565b6000806040838503121561194657600080fd5b8235801515811461195657600080fd5b91506119646020840161169e565b90509250929050565b60006020828403121561197f57600080fd5b5035919050565b602080825260159082015274125b9d985b1a5908199d5b98dd1a5bdb8818d85b1b605a1b604082015260600190565b8183823760009101908152919050565b634e487b7160e01b600052601160045260246000fd5b600082198211156119ee576119ee6119c5565b500190565b600181811c90821680611a0757607f821691505b60208210811415611a2857634e487b7160e01b600052602260045260246000fd5b50919050565b600082611a4b57634e487b7160e01b600052601260045260246000fd5b500490565b6000816000190483118215151615611a6a57611a6a6119c5565b500290565b634e487b7160e01b600052603260045260246000fd5b6000600019821415611a9957611a996119c5565b506001019056fea26469706673582212209c92ecf8dbeeee94b1a295c7e6121a53f0a27eddeb8de7a4b33c972632f5970764736f6c63430008090033",
  "immutableReferences": {},
  "source": "// SPDX-License-Identifier: MIT\npragma solidity 0.8.9;\nimport './IJudgeManager.sol';\n\nstruct CaseParticipant {\n\taddress addr;\n\tbytes32 proofHash;\n\tstring proof;\n\tuint collateral;\n}\n\nenum CaseStates {\n\tUndefined,\n\tRequested,\n\tAccepted,\n\tDisclosingProofs,\n\tJudging,\n\tWon,\n\tLost,\n\tAborted,\n\tClosed\n}\n\nstruct CaseData {\n\tuint caseId;\n\tCaseParticipant requester;\t\n\tCaseParticipant opponent;\n\taddress[] judges;\n\tuint judgesRequired;\n\tstring description;\n\n\tCaseStates state;\n\tuint tally;\n\tuint votes;\n\tuint baseCollateral;\n\tuint expiration;\n}\n\ncontract Case {\n\tuint constant STEP_EXPIRATION_TIME = 10 minutes; //1 days;\n\tuint constant JUDGE_CUT_DENOMINATOR = 100000; // 100%\n\tuint constant JUDGE_CUT = 1000; // 1%\n\n\tCaseData data;\n\t\n\tmapping (address => bool) isJudgeVoteRequired;\n\n\tIJudgeManager judges;\n\n\tevent CaseRequested(address indexed requester, address indexed opponent);\n\tevent CaseAccepted(address indexed requester, address indexed opponent);\n\tevent JudgeAssigned(address indexed judge, uint caseId);\n\tevent CaseAborted();\n\tevent CaseClosed();\n\n\tconstructor(IJudgeManager judgesContract, uint caseId, address requesterAddress, address opponentAddress, string memory description, bytes32 proofHash, uint collateral) payable {\n\t\trequire(msg.value == collateral, \"Invalid collateral provided\");\n\n\t\tjudges = judgesContract;\n\t\tdata = CaseData(\n\t\t\tcaseId,\n\t\t\tCaseParticipant(requesterAddress, proofHash, \"\", collateral),\n\t\t\tCaseParticipant(opponentAddress, \"\", \"\", 0),\n\t\t\tnew address[](0),\n\t\t\t1,\n\t\t\tdescription,\n\t\t\tCaseStates.Requested,\n\t\t\t0,\n\t\t\t0,\n\t\t\tcollateral,\n\t\t\tblock.timestamp + STEP_EXPIRATION_TIME\n\t\t);\n\n\t\temit CaseRequested(requesterAddress, opponentAddress);\n\t}\n\n\tfunction getCaseData() public view returns (CaseData memory) {\n\t\treturn data;\n\t}\n\n\tfunction isExpired() public view returns (bool) {\n\t\treturn data.expiration < block.timestamp;\n\t}\n\n\tfunction isRequester(address addr) public view returns (bool) {\n\t\treturn data.requester.addr == addr;\n\t}\n\t\n\tfunction isOpponent(address addr) public view returns (bool) {\n\t\treturn data.opponent.addr == addr;\n\t}\n\n\tfunction isJudge(address addr) public view returns (bool) {\n\t\tfor (uint256 index = 0; index < data.judges.length; index++) {\n\t\t\tif (data.judges[index] == addr) {\n\t\t\t\treturn true;\n\t\t\t}\n\t\t}\n\t\treturn false;\n\t}\n\n\tfunction needsJudges() public view returns (bool) {\n\t\treturn data.state == CaseStates.Judging && data.judges.length < data.judgesRequired;\n\t}\n\n\tmodifier onlyJudgesContract {\n\t\trequire(msg.sender == address(judges), \"Invalid function call\");\n\t\t_;\n\t}\n\n\tmodifier handlesExpired {\n\t\tif (isExpired()) {\n\t\t\thandleExpiredCase();\n\t\t} else {\n\t\t\t_;\n\t\t}\n\t}\n\n\tmodifier bumpsExpiration {\n\t\t_;\n\t\tdata.expiration = block.timestamp + STEP_EXPIRATION_TIME;\n\t}\n\n\tfunction acceptCase(bytes32 proofHash) public payable handlesExpired bumpsExpiration onlyJudgesContract {\n\t\trequire(data.state == CaseStates.Requested);\n\t\trequire(data.baseCollateral == msg.value, \"Provide the right amount of collateral\");\n\n\t\tdata.opponent.proofHash = proofHash;\n\t\tdata.opponent.collateral = data.baseCollateral;\n\t\tdata.state = CaseStates.Accepted;\n\n\t\temit CaseAccepted(data.requester.addr, data.opponent.addr);\n\t}\n\n\tfunction discloseRequesterProof(string calldata proof) public handlesExpired bumpsExpiration onlyJudgesContract {\n\t\trequire(data.state == CaseStates.Accepted || data.state == CaseStates.DisclosingProofs, \"This case does not accept proofs\");\n\t\trequire(!isDisclosedProof(data.requester), \"The proof is already provided\");\n\t\trequire(keccak256(abi.encodePacked(proof)) == data.requester.proofHash, \"Proof does not match proof hash\");\n\t\t\n\t\tdata.requester.proof = proof;\n\t\tdata.state = CaseStates(uint(data.state) + 1); // move on to next state (either Disclosing or Judging)\n\t}\n\n\tfunction discloseOpponentProof(string calldata proof) public handlesExpired bumpsExpiration onlyJudgesContract {\n\t\trequire(data.state == CaseStates.Accepted || data.state == CaseStates.DisclosingProofs, \"This case does not accept proofs\");\n\t\trequire(!isDisclosedProof(data.opponent), \"The proof is already provided\");\n\t\trequire(keccak256(abi.encodePacked(proof)) == data.opponent.proofHash, \"Proof does not match proof hash\");\n\t\t\n\t\tdata.opponent.proof = proof;\n\t\tdata.state = CaseStates(uint(data.state) + 1); // move on to next state (either Disclosing or Judging)\n\t}\n\t\n\tfunction assignJudge(address judgeAddress) public handlesExpired onlyJudgesContract returns (bool) {\n\t\tif (data.state == CaseStates.Judging && !isJudge(judgeAddress)) { // Don't fail for other states to allow calling multiple times\n\t\t\tisJudgeVoteRequired[judgeAddress] = true;\n\t\t\tdata.judges.push(judgeAddress);\n\t\t\treturn true;\n\t\t}\n\t\treturn false;\n\t}\n\n\tfunction setDecision(bool win, address judge) public handlesExpired bumpsExpiration onlyJudgesContract {\n\t\trequire(data.state == CaseStates.Judging, \"This case is not being judged\");\n\t\trequire(isJudgeVoteRequired[judge], \"This judge has voted\");\n\n\t\tif (win) {\n\t\t\tdata.tally += 1;\n\t\t}\n\t\tisJudgeVoteRequired[judge] = false;\n\t\tdata.votes += 1;\n\n\t\tif (data.votes == data.judgesRequired) {\n\t\t\tif(data.tally >= data.judgesRequired / 2) {\n\t\t\t\tdata.state = CaseStates.Won;\n\t\t\t} else {\n\t\t\t\tdata.state = CaseStates.Lost;\n\t\t\t}\n\t\t}\n\n\t\tjudges.reportGood(judge);\n\t}\n\n\tfunction appeal(address appealer) public payable handlesExpired bumpsExpiration onlyJudgesContract {\n\t\trequire(data.state == CaseStates.Won || data.state == CaseStates.Lost, \"The case cannot be appealed\");\n\t\trequire(msg.value == data.baseCollateral * 3);\n\n\t\tif (data.requester.addr == appealer) {\n\t\t\tdata.requester.collateral += msg.value;\n\t\t} else if (data.opponent.addr == appealer) {\n\t\t\tdata.opponent.collateral += msg.value;\n\t\t}\n\t\tdata.baseCollateral *= 3;\n\t\tdata.judgesRequired *= 3;\n\t\tdata.judges = new address[](0);\n\t\tdata.tally = 0;\n\t\tdata.votes = 0;\n\t\tdata.state = CaseStates.Judging;\n\t}\n\t\n\tfunction claim() public {\n\t\trequire(isExpired(), \"The case is not expired\");\n\t\thandleExpiredCase(); // win or lose, either way someone has to receive money\n\t}\n\n\tfunction isDisclosedProof(CaseParticipant storage participant) private view returns (bool) {\n\t\treturn bytes(participant.proof).length > 0;\n\t}\n\n\tfunction refundAll() private {\n\t\tif (data.requester.collateral != 0) {\n\t\t\tpayable(data.requester.addr).transfer(data.requester.collateral);\n\t\t}\n\n\t\tif (data.opponent.collateral != 0) {\n\t\t\tpayable(data.opponent.addr).transfer(data.opponent.collateral);\n\t\t}\n\t}\n\n\tfunction sendJudgeCut(uint losersCollateral) private {\n\t\tuint judgesCut = losersCollateral * JUDGE_CUT / JUDGE_CUT_DENOMINATOR;\n\t\tfor (uint256 index = 0; index < data.judges.length; index++) {\n\t\t\tpayable(data.judges[index]).transfer(judgesCut); // send the judge their cut\n\t\t}\n\t}\n\n\tfunction handleExpiredCase() private {\n\t\tif (data.state == CaseStates.Requested || data.state == CaseStates.Accepted) {\n\t\t\tdata.state = CaseStates.Aborted;\n\t\t\trefundAll();\n\t\t\temit CaseAborted();\n\t\t\t\n\t\t} else if (data.state == CaseStates.DisclosingProofs) { // only one of participants disclosed proof\n\t\t\t// send everything to the one who disclosed proof\n\t\t\taddress goodBoy = address(0x0);\n\t\t\tif (isDisclosedProof(data.opponent)) {\n\t\t\t\tgoodBoy = data.opponent.addr;\n\t\t\t} else if (isDisclosedProof(data.requester)) {\n\t\t\t\tgoodBoy = data.requester.addr;\n\t\t\t}\n\n\t\t\tdata.state = CaseStates.Aborted;\n\t\t\tpayable(goodBoy).transfer(address(this).balance);\n\t\t\temit CaseAborted();\n\t\t\t\t\t\t\n\t\t} else if (data.state == CaseStates.Judging) { // Judging did not complete on time\n\t\t\t// refund both and report the bad judges\n\t\t\tdata.state = CaseStates.Aborted;\n\t\t\trefundAll();\n\t\t\tfor (uint256 index = 0; index < data.judges.length; index++) {\n\t\t\t\tif (isJudgeVoteRequired[data.judges[index]]) {\n\t\t\t\t\tjudges.reportBad(data.judges[index]);\n\t\t\t\t}\n\t\t\t}\n\t\t\temit CaseAborted();\n\t\t} else if (data.state == CaseStates.Won) { // requester wins\n\t\t\tdata.state = CaseStates.Closed;\n\t\t\tsendJudgeCut(data.opponent.collateral);\n\t\t\tpayable(data.requester.addr).transfer(address(this).balance); // send the rest to the requester\n\t\t\temit CaseClosed();\n\t\t} else if (data.state == CaseStates.Lost) { // requester loses, opponent wins\n\t\t\tdata.state = CaseStates.Closed;\n\t\t\tsendJudgeCut(data.requester.collateral);\n\t\t\tpayable(data.opponent.addr).transfer(address(this).balance); // send the rest to the opponent\n\t\t\temit CaseClosed();\n\t\t}\n\t}\n}\n",
  "sourcePath": "C:\\Users\\msotn\\Desktop\\Crypto Judges\\contracts\\Case.sol",
  "compiler": {
    "name": "solc",
    "version": "0.8.9+commit.e5eed63a.Emscripten.clang"
  },
  "schemaVersion": "3.4.3",
  "updatedAt": "2021-10-24T00:05:14.278Z",
  "devdoc": {
    "kind": "dev",
    "methods": {},
    "version": 1
  },
  "userdoc": {
    "kind": "user",
    "methods": {},
    "version": 1
  }
}