{
  "contractName": "Case",
  "abi": [
    {
      "inputs": [
        {
          "internalType": "contract IJudgeManager",
          "name": "judgesContract",
          "type": "address"
        },
        {
          "internalType": "address",
          "name": "requesterAddress",
          "type": "address"
        },
        {
          "internalType": "address",
          "name": "opponentAddress",
          "type": "address"
        },
        {
          "internalType": "string",
          "name": "description",
          "type": "string"
        },
        {
          "internalType": "bytes32",
          "name": "proofHash",
          "type": "bytes32"
        },
        {
          "internalType": "uint256",
          "name": "collateral",
          "type": "uint256"
        }
      ],
      "stateMutability": "payable",
      "type": "constructor"
    },
    {
      "anonymous": false,
      "inputs": [],
      "name": "CaseAborted",
      "type": "event"
    },
    {
      "anonymous": false,
      "inputs": [
        {
          "indexed": true,
          "internalType": "address",
          "name": "requester",
          "type": "address"
        },
        {
          "indexed": true,
          "internalType": "address",
          "name": "opponent",
          "type": "address"
        }
      ],
      "name": "CaseAccepted",
      "type": "event"
    },
    {
      "anonymous": false,
      "inputs": [],
      "name": "CaseClosed",
      "type": "event"
    },
    {
      "anonymous": false,
      "inputs": [
        {
          "indexed": true,
          "internalType": "address",
          "name": "requester",
          "type": "address"
        },
        {
          "indexed": true,
          "internalType": "address",
          "name": "opponent",
          "type": "address"
        }
      ],
      "name": "CaseRequested",
      "type": "event"
    },
    {
      "anonymous": false,
      "inputs": [
        {
          "indexed": true,
          "internalType": "address",
          "name": "judge",
          "type": "address"
        },
        {
          "indexed": false,
          "internalType": "uint256",
          "name": "caseId",
          "type": "uint256"
        }
      ],
      "name": "JudgeAssigned",
      "type": "event"
    },
    {
      "inputs": [],
      "name": "getCaseData",
      "outputs": [
        {
          "components": [
            {
              "components": [
                {
                  "internalType": "address",
                  "name": "addr",
                  "type": "address"
                },
                {
                  "internalType": "bytes32",
                  "name": "proofHash",
                  "type": "bytes32"
                },
                {
                  "internalType": "string",
                  "name": "proof",
                  "type": "string"
                },
                {
                  "internalType": "uint256",
                  "name": "collateral",
                  "type": "uint256"
                }
              ],
              "internalType": "struct CaseParticipant",
              "name": "requester",
              "type": "tuple"
            },
            {
              "components": [
                {
                  "internalType": "address",
                  "name": "addr",
                  "type": "address"
                },
                {
                  "internalType": "bytes32",
                  "name": "proofHash",
                  "type": "bytes32"
                },
                {
                  "internalType": "string",
                  "name": "proof",
                  "type": "string"
                },
                {
                  "internalType": "uint256",
                  "name": "collateral",
                  "type": "uint256"
                }
              ],
              "internalType": "struct CaseParticipant",
              "name": "opponent",
              "type": "tuple"
            },
            {
              "internalType": "address[]",
              "name": "judges",
              "type": "address[]"
            },
            {
              "internalType": "uint256",
              "name": "judgesRequired",
              "type": "uint256"
            },
            {
              "internalType": "string",
              "name": "description",
              "type": "string"
            },
            {
              "internalType": "enum CaseStates",
              "name": "state",
              "type": "uint8"
            },
            {
              "internalType": "uint256",
              "name": "tally",
              "type": "uint256"
            },
            {
              "internalType": "uint256",
              "name": "votes",
              "type": "uint256"
            },
            {
              "internalType": "uint256",
              "name": "baseCollateral",
              "type": "uint256"
            },
            {
              "internalType": "uint256",
              "name": "expiration",
              "type": "uint256"
            }
          ],
          "internalType": "struct CaseData",
          "name": "",
          "type": "tuple"
        }
      ],
      "stateMutability": "view",
      "type": "function"
    },
    {
      "inputs": [],
      "name": "isExpired",
      "outputs": [
        {
          "internalType": "bool",
          "name": "",
          "type": "bool"
        }
      ],
      "stateMutability": "view",
      "type": "function"
    },
    {
      "inputs": [
        {
          "internalType": "address",
          "name": "addr",
          "type": "address"
        }
      ],
      "name": "isRequester",
      "outputs": [
        {
          "internalType": "bool",
          "name": "",
          "type": "bool"
        }
      ],
      "stateMutability": "view",
      "type": "function"
    },
    {
      "inputs": [
        {
          "internalType": "address",
          "name": "addr",
          "type": "address"
        }
      ],
      "name": "isOpponent",
      "outputs": [
        {
          "internalType": "bool",
          "name": "",
          "type": "bool"
        }
      ],
      "stateMutability": "view",
      "type": "function"
    },
    {
      "inputs": [
        {
          "internalType": "address",
          "name": "addr",
          "type": "address"
        }
      ],
      "name": "isJudge",
      "outputs": [
        {
          "internalType": "bool",
          "name": "",
          "type": "bool"
        }
      ],
      "stateMutability": "view",
      "type": "function"
    },
    {
      "inputs": [],
      "name": "needsJudges",
      "outputs": [
        {
          "internalType": "bool",
          "name": "",
          "type": "bool"
        }
      ],
      "stateMutability": "view",
      "type": "function"
    },
    {
      "inputs": [
        {
          "internalType": "bytes32",
          "name": "proofHash",
          "type": "bytes32"
        }
      ],
      "name": "acceptCase",
      "outputs": [],
      "stateMutability": "payable",
      "type": "function"
    },
    {
      "inputs": [
        {
          "internalType": "string",
          "name": "proof",
          "type": "string"
        }
      ],
      "name": "discloseRequesterProof",
      "outputs": [],
      "stateMutability": "nonpayable",
      "type": "function"
    },
    {
      "inputs": [
        {
          "internalType": "string",
          "name": "proof",
          "type": "string"
        }
      ],
      "name": "discloseOpponentProof",
      "outputs": [],
      "stateMutability": "nonpayable",
      "type": "function"
    },
    {
      "inputs": [
        {
          "internalType": "address",
          "name": "judgeAddress",
          "type": "address"
        }
      ],
      "name": "assignJudge",
      "outputs": [
        {
          "internalType": "bool",
          "name": "",
          "type": "bool"
        }
      ],
      "stateMutability": "nonpayable",
      "type": "function"
    },
    {
      "inputs": [
        {
          "internalType": "bool",
          "name": "win",
          "type": "bool"
        },
        {
          "internalType": "address",
          "name": "judge",
          "type": "address"
        }
      ],
      "name": "setDecision",
      "outputs": [],
      "stateMutability": "nonpayable",
      "type": "function"
    },
    {
      "inputs": [
        {
          "internalType": "address",
          "name": "appealer",
          "type": "address"
        }
      ],
      "name": "appeal",
      "outputs": [],
      "stateMutability": "payable",
      "type": "function"
    },
    {
      "inputs": [],
      "name": "claim",
      "outputs": [],
      "stateMutability": "nonpayable",
      "type": "function"
    }
  ],
  "bytecode": "0x60806040526040516200208d3803806200208d83398101604081905262000026916200042f565b8034146200007a5760405162461bcd60e51b815260206004820152601b60248201527f496e76616c696420636f6c6c61746572616c2070726f76696465640000000000604482015260640160405180910390fd5b601180546001600160a01b0319166001600160a01b0388811691909117909155604080516101c0810182528783166101408201908152610160820186905282516020808201855260008083526101808501929092526101a08401879052918352835160808101855294891685528482018190528351808301855281815285850152606085018190528183019490945282518481529081018352909291830191508152602001600181526020018481526020016001600881111562000142576200014262000561565b81526020016000815260200160008152602001828152602001601e426200016a919062000577565b905280518051600080546001600160a01b0319166001600160a01b03909216919091178155602080830151600155604083015180519293928492620001b59260029291019062000302565b506060919091015160039091015560208281015180516004840180546001600160a01b0319166001600160a01b03909216919091178155818301516005850155604082015180519293919262000212926006870192019062000302565b5060608201518160030155505060408201518160080190805190602001906200023d92919062000391565b5060608201516009820155608082015180516200026591600a84019160209091019062000302565b5060a0820151600b8201805460ff191660018360088111156200028c576200028c62000561565b021790555060c0820151600c82015560e0820151600d820155610100820151600e82015561012090910151600f909101556040516001600160a01b0380861691908716907fb957e4dc3b04409e6c4b14ee40d0d8e5efe8caf593e96b517b5afcdbbc7ff32690600090a3505050505050620005db565b82805462000310906200059e565b90600052602060002090601f0160209004810192826200033457600085556200037f565b82601f106200034f57805160ff19168380011785556200037f565b828001600101855582156200037f579182015b828111156200037f57825182559160200191906001019062000362565b506200038d929150620003e9565b5090565b8280548282559060005260206000209081019282156200037f579160200282015b828111156200037f57825182546001600160a01b0319166001600160a01b03909116178255602090920191600190910190620003b2565b5b808211156200038d5760008155600101620003ea565b6001600160a01b03811681146200041657600080fd5b50565b634e487b7160e01b600052604160045260246000fd5b60008060008060008060c087890312156200044957600080fd5b8651620004568162000400565b809650506020808801516200046b8162000400565b60408901519096506200047e8162000400565b60608901519095506001600160401b03808211156200049c57600080fd5b818a0191508a601f830112620004b157600080fd5b815181811115620004c657620004c662000419565b604051601f8201601f19908116603f01168101908382118183101715620004f157620004f162000419565b816040528281528d868487010111156200050a57600080fd5b600093505b828410156200052e57848401860151818501870152928501926200050f565b82841115620005405760008684830101525b8098505050505050506080870151915060a087015190509295509295509295565b634e487b7160e01b600052602160045260246000fd5b600082198211156200059957634e487b7160e01b600052601160045260246000fd5b500190565b600181811c90821680620005b357607f821691505b60208210811415620005d557634e487b7160e01b600052602260045260246000fd5b50919050565b611aa280620005eb6000396000f3fe6080604052600436106100c25760003560e01c80636af081361161007f578063c0d3e84811610059578063c0d3e848146101e3578063ca04ddcb146101f6578063d0f63a6314610216578063ed896d661461024557600080fd5b80636af081361461019057806377f29b1b146101b05780639896d250146101d057600080fd5b806302529177146100c75780630befd51f1461010b578063264118141461012d5780632f13b60c146101425780634e71d92d146101595780635eaea3b21461016e575b600080fd5b3480156100d357600080fd5b506100f66100e236600461168c565b6000546001600160a01b0390811691161490565b60405190151581526020015b60405180910390f35b34801561011757600080fd5b5061012b6101263660046116ae565b610265565b005b34801561013957600080fd5b506100f6610478565b34801561014e57600080fd5b50600f5442116100f6565b34801561016557600080fd5b5061012b6104a8565b34801561017a57600080fd5b50610183610503565b604051610102919061182e565b34801561019c57600080fd5b5061012b6101ab3660046116ae565b61080c565b3480156101bc57600080fd5b5061012b6101cb3660046118ff565b6109ab565b61012b6101de366004611939565b610bb5565b61012b6101f136600461168c565b610cdd565b34801561020257600080fd5b506100f661021136600461168c565b610e96565b34801561022257600080fd5b506100f661023136600461168c565b6004546001600160a01b0390811691161490565b34801561025157600080fd5b506100f661026036600461168c565b610f82565b600f5442111561027b57610277610fef565b5050565b6011546001600160a01b031633146102ae5760405162461bcd60e51b81526004016102a590611952565b60405180910390fd5b6002600b5460ff1660088111156102c7576102c76117f6565b14806102e957506003600b5460ff1660088111156102e7576102e76117f6565b145b6103355760405162461bcd60e51b815260206004820181905260248201527f54686973206361736520646f6573206e6f74206163636570742070726f6f667360448201526064016102a5565b61033f60006113a3565b1561038c5760405162461bcd60e51b815260206004820152601d60248201527f5468652070726f6f6620697320616c72656164792070726f766964656400000060448201526064016102a5565b6001546040516103a29084908490602001611981565b60405160208183030381529060405280519060200120146104055760405162461bcd60e51b815260206004820152601f60248201527f50726f6f6620646f6573206e6f74206d617463682070726f6f6620686173680060448201526064016102a5565b610411600283836114df565b50600b5460ff166008811115610429576104296117f6565b6104349060016119a7565b6008811115610445576104456117f6565b600b805460ff19166001836008811115610461576104616117f6565b0217905550610471601e426119a7565b600f555050565b60006004600b5460ff166008811115610493576104936117f6565b1480156104a35750600954600854105b905090565b600f5442116104f95760405162461bcd60e51b815260206004820152601760248201527f5468652063617365206973206e6f74206578706972656400000000000000000060448201526064016102a5565b610501610fef565b565b61050b611563565b604080516101c08101909152600080546001600160a01b031661014083019081526001546101608401526002805484929184916101808501919061054e906119bf565b80601f016020809104026020016040519081016040528092919081815260200182805461057a906119bf565b80156105c75780601f1061059c576101008083540402835291602001916105c7565b820191906000526020600020905b8154815290600101906020018083116105aa57829003601f168201915b505050918352505060039190910154602091820152908252604080516080810182526004850180546001600160a01b0316825260058601548285015260068601805495909401949193909284019161061e906119bf565b80601f016020809104026020016040519081016040528092919081815260200182805461064a906119bf565b80156106975780601f1061066c57610100808354040283529160200191610697565b820191906000526020600020905b81548152906001019060200180831161067a57829003601f168201915b5050505050815260200160038201548152505081526020016008820180548060200260200160405190810160405280929190818152602001828054801561070757602002820191906000526020600020905b81546001600160a01b031681526001909101906020018083116106e9575b5050505050815260200160098201548152602001600a8201805461072a906119bf565b80601f0160208091040260200160405190810160405280929190818152602001828054610756906119bf565b80156107a35780601f10610778576101008083540402835291602001916107a3565b820191906000526020600020905b81548152906001019060200180831161078657829003601f168201915b5050509183525050600b82015460209091019060ff1660088111156107ca576107ca6117f6565b60088111156107db576107db6117f6565b8152602001600c8201548152602001600d8201548152602001600e8201548152602001600f82015481525050905090565b600f5442111561081e57610277610fef565b6011546001600160a01b031633146108485760405162461bcd60e51b81526004016102a590611952565b6002600b5460ff166008811115610861576108616117f6565b148061088357506003600b5460ff166008811115610881576108816117f6565b145b6108cf5760405162461bcd60e51b815260206004820181905260248201527f54686973206361736520646f6573206e6f74206163636570742070726f6f667360448201526064016102a5565b6108d960046113a3565b156109265760405162461bcd60e51b815260206004820152601d60248201527f5468652070726f6f6620697320616c72656164792070726f766964656400000060448201526064016102a5565b60055460405161093c9084908490602001611981565b604051602081830303815290604052805190602001201461099f5760405162461bcd60e51b815260206004820152601f60248201527f50726f6f6620646f6573206e6f74206d617463682070726f6f6620686173680060448201526064016102a5565b610411600683836114df565b600f544211156109bd57610277610fef565b6011546001600160a01b031633146109e75760405162461bcd60e51b81526004016102a590611952565b6004600b5460ff166008811115610a0057610a006117f6565b14610a4d5760405162461bcd60e51b815260206004820152601d60248201527f546869732063617365206973206e6f74206265696e67206a756467656400000060448201526064016102a5565b6001600160a01b03811660009081526010602052604090205460ff16610aac5760405162461bcd60e51b8152602060048201526014602482015273151a1a5cc81a9d5919d9481a185cc81d9bdd195960621b60448201526064016102a5565b8115610ace5760016000600c016000828254610ac891906119a7565b90915550505b6001600160a01b0381166000908152601060205260408120805460ff19169055600d805460019290610b019084906119a7565b9091555050600954600d541415610b4957600954610b21906002906119fa565b600c5410610b3b57600b805460ff19166005179055610b49565b600b805460ff191660061790555b6011546040516311ab9e9b60e31b81526001600160a01b03838116600483015290911690638d5cf4d890602401600060405180830381600087803b158015610b9057600080fd5b505af1158015610ba4573d6000803e3d6000fd5b50505050601e4261047191906119a7565b600f54421115610bca57610bc7610fef565b50565b6011546001600160a01b03163314610bf45760405162461bcd60e51b81526004016102a590611952565b6001600b5460ff166008811115610c0d57610c0d6117f6565b14610c1757600080fd5b600e543414610c775760405162461bcd60e51b815260206004820152602660248201527f50726f766964652074686520726967687420616d6f756e74206f6620636f6c6c604482015265185d195c985b60d21b60648201526084016102a5565b6005819055600e54600755600b805460ff19166002179055600454600080546040516001600160a01b0393841693909116917fdd5f05630ec0ad93ddee9d95393a7402ae7eac8de7af06b03249fee0478b876d91a3610cd7601e426119a7565b600f5550565b600f54421115610cef57610bc7610fef565b6011546001600160a01b03163314610d195760405162461bcd60e51b81526004016102a590611952565b6005600b5460ff166008811115610d3257610d326117f6565b1480610d5457506006600b5460ff166008811115610d5257610d526117f6565b145b610da05760405162461bcd60e51b815260206004820152601b60248201527f54686520636173652063616e6e6f742062652061707065616c6564000000000060448201526064016102a5565b600e54610dae906003611a1c565b3414610db957600080fd5b6000546001600160a01b0382811691161415610def5760038054349190600090610de49084906119a7565b90915550610e209050565b6004546001600160a01b0382811691161415610e205760078054349190600090610e1a9084906119a7565b90915550505b60036000600e016000828254610e369190611a1c565b90915550506009805460039190600090610e51908490611a1c565b90915550506040805160008152602081019182905251610e739160089161160b565b506000600c819055600d55600b805460ff19166004179055610cd7601e426119a7565b6000610ea3600f54421190565b15610eb557610eb0610fef565b919050565b6011546001600160a01b03163314610edf5760405162461bcd60e51b81526004016102a590611952565b6004600b5460ff166008811115610ef857610ef86117f6565b148015610f0b5750610f0982610f82565b155b15610f7a57506001600160a01b03166000818152601060205260408120805460ff1916600190811790915560088054808301825592527ff3f7a9fe364faab93b216da50a3214154f22a0a2b415b23a84c8169e8b636ee390910180546001600160a01b03191690921790915590565b506000919050565b6000805b600854811015610fe657826001600160a01b031660006008018281548110610fb057610fb0611a3b565b6000918252602090912001546001600160a01b03161415610fd45750600192915050565b80610fde81611a51565b915050610f86565b50600092915050565b6001600b5460ff166008811115611008576110086117f6565b148061102a57506002600b5460ff166008811115611028576110286117f6565b145b1561106f57600b805460ff191660071790556110446113bf565b6040517f3b0a072432f66c2c62b2ffa05c0384d649697f4a86708232650b4b37372f232c90600090a1565b6003600b5460ff166008811115611088576110886117f6565b141561113f57600061109a60046113a3565b156110b157506004546001600160a01b03166110ce565b6110bb60006113a3565b156110ce57506000546001600160a01b03165b600b8054600760ff199091161790556040516001600160a01b038216904780156108fc02916000818181858888f19350505050158015611112573d6000803e3d6000fd5b506040517f3b0a072432f66c2c62b2ffa05c0384d649697f4a86708232650b4b37372f232c90600090a150565b6004600b5460ff166008811115611158576111586117f6565b141561129457600b805460ff191660071790556111736113bf565b60005b600854811015611268576010600080600801838154811061119957611199611a3b565b60009182526020808320909101546001600160a01b0316835282019290925260400190205460ff161561125657601154600880546001600160a01b039092169163f3181bff9190849081106111f0576111f0611a3b565b60009182526020909120015460405160e083901b6001600160e01b03191681526001600160a01b039091166004820152602401600060405180830381600087803b15801561123d57600080fd5b505af1158015611251573d6000803e3d6000fd5b505050505b8061126081611a51565b915050611176565b506040517f3b0a072432f66c2c62b2ffa05c0384d649697f4a86708232650b4b37372f232c90600090a1565b6005600b5460ff1660088111156112ad576112ad6117f6565b141561133257600b805460ff191660081790556007546112cc90611448565b600080546040516001600160a01b03909116914780156108fc02929091818181858888f19350505050158015611306573d6000803e3d6000fd5b506040517f9ab8bf53a18ac51a5a24e74d7dcf0f9e8f30c86b3009a4934fb1489632e7953e90600090a1565b6006600b5460ff16600881111561134b5761134b6117f6565b141561050157600b805460ff1916600817905560035461136a90611448565b6004546040516001600160a01b03909116904780156108fc02916000818181858888f19350505050158015611306573d6000803e3d6000fd5b6000808260020180546113b5906119bf565b9050119050919050565b6003541561140457600080546003546040516001600160a01b039092169281156108fc029290818181858888f19350505050158015611402573d6000803e3d6000fd5b505b60075415610501576004546007546040516001600160a01b039092169181156108fc0291906000818181858888f19350505050158015610bc7573d6000803e3d6000fd5b6000620186a061145a6103e884611a1c565b61146491906119fa565b905060005b6008548110156114da57600880548290811061148757611487611a3b565b60009182526020822001546040516001600160a01b039091169184156108fc02918591818181858888f193505050501580156114c7573d6000803e3d6000fd5b50806114d281611a51565b915050611469565b505050565b8280546114eb906119bf565b90600052602060002090601f01602090048101928261150d5760008555611553565b82601f106115265782800160ff19823516178555611553565b82800160010185558215611553579182015b82811115611553578235825591602001919060010190611538565b5061155f929150611660565b5090565b604080516101c0810190915260006101408201818152610160830182905260606101808401526101a08301919091528190815260408051608081018252600080825260208281018290526060938301849052928201529101908152602001606081526020016000815260200160608152602001600060088111156115e9576115e96117f6565b8152602001600081526020016000815260200160008152602001600081525090565b828054828255906000526020600020908101928215611553579160200282015b8281111561155357825182546001600160a01b0319166001600160a01b0390911617825560209092019160019091019061162b565b5b8082111561155f5760008155600101611661565b80356001600160a01b0381168114610eb057600080fd5b60006020828403121561169e57600080fd5b6116a782611675565b9392505050565b600080602083850312156116c157600080fd5b823567ffffffffffffffff808211156116d957600080fd5b818501915085601f8301126116ed57600080fd5b8135818111156116fc57600080fd5b86602082850101111561170e57600080fd5b60209290920196919550909350505050565b6000815180845260005b818110156117465760208185018101518683018201520161172a565b81811115611758576000602083870101525b50601f01601f19169290920160200192915050565b60018060a01b03815116825260208101516020830152600060408201516080604085015261179e6080850182611720565b606093840151949093019390935250919050565b600081518084526020808501945080840160005b838110156117eb5781516001600160a01b0316875295820195908201906001016117c6565b509495945050505050565b634e487b7160e01b600052602160045260246000fd5b6009811061182a57634e487b7160e01b600052602160045260246000fd5b9052565b602081526000825161014080602085015261184d61016085018361176d565b91506020850151601f198086850301604087015261186b848361176d565b9350604087015191508086850301606087015261188884836117b2565b93506060870151608087015260808701519150808685030160a0870152506118b08382611720565b92505060a08501516118c560c086018261180c565b5060c085015160e0858101919091528501516101008086019190915285015161012080860191909152909401519390920192909252919050565b6000806040838503121561191257600080fd5b8235801515811461192257600080fd5b915061193060208401611675565b90509250929050565b60006020828403121561194b57600080fd5b5035919050565b602080825260159082015274125b9d985b1a5908199d5b98dd1a5bdb8818d85b1b605a1b604082015260600190565b8183823760009101908152919050565b634e487b7160e01b600052601160045260246000fd5b600082198211156119ba576119ba611991565b500190565b600181811c908216806119d357607f821691505b602082108114156119f457634e487b7160e01b600052602260045260246000fd5b50919050565b600082611a1757634e487b7160e01b600052601260045260246000fd5b500490565b6000816000190483118215151615611a3657611a36611991565b500290565b634e487b7160e01b600052603260045260246000fd5b6000600019821415611a6557611a65611991565b506001019056fea264697066735822122070a80abdb170ef5dbcc6741025efc6921a6aa4aca8dce03c191126bfd29a680864736f6c63430008090033",
  "immutableReferences": {},
  "source": "// SPDX-License-Identifier: MIT\npragma solidity 0.8.9;\nimport './IJudgeManager.sol';\n\nstruct CaseParticipant {\n\taddress addr;\n\tbytes32 proofHash;\n\tstring proof;\n\tuint collateral;\n}\n\nenum CaseStates {\n\tUndefined,\n\tRequested,\n\tAccepted,\n\tDisclosingProofs,\n\tJudging,\n\tWon,\n\tLost,\n\tAborted,\n\tClosed\n}\n\nstruct CaseData {\n\tCaseParticipant requester;\t\n\tCaseParticipant opponent;\n\taddress[] judges;\n\tuint judgesRequired;\n\tstring description;\n\n\tCaseStates state;\n\tuint tally;\n\tuint votes;\n\tuint baseCollateral;\n\tuint expiration;\n}\n\ncontract Case {\n\tuint constant STEP_EXPIRATION_TIME = 30 seconds; //1 days;\n\tuint constant JUDGE_CUT_DENOMINATOR = 100000; // 100%\n\tuint constant JUDGE_CUT = 1000; // 1%\n\n\tCaseData data;\n\t\n\tmapping (address => bool) isJudgeVoteRequired;\n\n\tIJudgeManager judges;\n\n\tevent CaseRequested(address indexed requester, address indexed opponent);\n\tevent CaseAccepted(address indexed requester, address indexed opponent);\n\tevent JudgeAssigned(address indexed judge, uint caseId);\n\tevent CaseAborted();\n\tevent CaseClosed();\n\n\tconstructor(IJudgeManager judgesContract, address requesterAddress, address opponentAddress, string memory description, bytes32 proofHash, uint collateral) payable {\n\t\trequire(msg.value == collateral, \"Invalid collateral provided\");\n\n\t\tjudges = judgesContract;\n\t\tdata = CaseData(\n\t\t\tCaseParticipant(requesterAddress, proofHash, \"\", collateral),\n\t\t\tCaseParticipant(opponentAddress, \"\", \"\", 0),\n\t\t\tnew address[](0),\n\t\t\t1,\n\t\t\tdescription,\n\t\t\tCaseStates.Requested,\n\t\t\t0,\n\t\t\t0,\n\t\t\tcollateral,\n\t\t\tblock.timestamp + STEP_EXPIRATION_TIME\n\t\t);\n\n\t\temit CaseRequested(requesterAddress, opponentAddress);\n\t}\n\n\tfunction getCaseData() public view returns (CaseData memory) {\n\t\treturn data;\n\t}\n\n\tfunction isExpired() public view returns (bool) {\n\t\treturn data.expiration < block.timestamp;\n\t}\n\n\tfunction isRequester(address addr) public view returns (bool) {\n\t\treturn data.requester.addr == addr;\n\t}\n\t\n\tfunction isOpponent(address addr) public view returns (bool) {\n\t\treturn data.opponent.addr == addr;\n\t}\n\n\tfunction isJudge(address addr) public view returns (bool) {\n\t\tfor (uint256 index = 0; index < data.judges.length; index++) {\n\t\t\tif (data.judges[index] == addr) {\n\t\t\t\treturn true;\n\t\t\t}\n\t\t}\n\t\treturn false;\n\t}\n\n\tfunction needsJudges() public view returns (bool) {\n\t\treturn data.state == CaseStates.Judging && data.judges.length < data.judgesRequired;\n\t}\n\n\tmodifier onlyJudgesContract {\n\t\trequire(msg.sender == address(judges), \"Invalid function call\");\n\t\t_;\n\t}\n\n\tmodifier handlesExpired {\n\t\tif (isExpired()) {\n\t\t\thandleExpiredCase();\n\t\t} else {\n\t\t\t_;\n\t\t}\n\t}\n\n\tmodifier bumpsExpiration {\n\t\t_;\n\t\tdata.expiration = block.timestamp + STEP_EXPIRATION_TIME;\n\t}\n\n\tfunction acceptCase(bytes32 proofHash) public payable handlesExpired bumpsExpiration onlyJudgesContract {\n\t\trequire(data.state == CaseStates.Requested);\n\t\trequire(data.baseCollateral == msg.value, \"Provide the right amount of collateral\");\n\n\t\tdata.opponent.proofHash = proofHash;\n\t\tdata.opponent.collateral = data.baseCollateral;\n\t\tdata.state = CaseStates.Accepted;\n\n\t\temit CaseAccepted(data.requester.addr, data.opponent.addr);\n\t}\n\n\tfunction discloseRequesterProof(string calldata proof) public handlesExpired bumpsExpiration onlyJudgesContract {\n\t\trequire(data.state == CaseStates.Accepted || data.state == CaseStates.DisclosingProofs, \"This case does not accept proofs\");\n\t\trequire(!isDisclosedProof(data.requester), \"The proof is already provided\");\n\t\trequire(keccak256(abi.encodePacked(proof)) == data.requester.proofHash, \"Proof does not match proof hash\");\n\t\t\n\t\tdata.requester.proof = proof;\n\t\tdata.state = CaseStates(uint(data.state) + 1); // move on to next state (either Disclosing or Judging)\n\t}\n\n\tfunction discloseOpponentProof(string calldata proof) public handlesExpired bumpsExpiration onlyJudgesContract {\n\t\trequire(data.state == CaseStates.Accepted || data.state == CaseStates.DisclosingProofs, \"This case does not accept proofs\");\n\t\trequire(!isDisclosedProof(data.opponent), \"The proof is already provided\");\n\t\trequire(keccak256(abi.encodePacked(proof)) == data.opponent.proofHash, \"Proof does not match proof hash\");\n\t\t\n\t\tdata.opponent.proof = proof;\n\t\tdata.state = CaseStates(uint(data.state) + 1); // move on to next state (either Disclosing or Judging)\n\t}\n\t\n\tfunction assignJudge(address judgeAddress) public handlesExpired onlyJudgesContract returns (bool) {\n\t\tif (data.state == CaseStates.Judging && !isJudge(judgeAddress)) { // Don't fail for other states to allow calling multiple times\n\t\t\tisJudgeVoteRequired[judgeAddress] = true;\n\t\t\tdata.judges.push(judgeAddress);\n\t\t\treturn true;\n\t\t}\n\t\treturn false;\n\t}\n\n\tfunction setDecision(bool win, address judge) public handlesExpired bumpsExpiration onlyJudgesContract {\n\t\trequire(data.state == CaseStates.Judging, \"This case is not being judged\");\n\t\trequire(isJudgeVoteRequired[judge], \"This judge has voted\");\n\n\t\tif (win) {\n\t\t\tdata.tally += 1;\n\t\t}\n\t\tisJudgeVoteRequired[judge] = false;\n\t\tdata.votes += 1;\n\n\t\tif (data.votes == data.judgesRequired) {\n\t\t\tif(data.tally >= data.judgesRequired / 2) {\n\t\t\t\tdata.state = CaseStates.Won;\n\t\t\t} else {\n\t\t\t\tdata.state = CaseStates.Lost;\n\t\t\t}\n\t\t}\n\n\t\tjudges.reportGood(judge);\n\t}\n\n\tfunction appeal(address appealer) public payable handlesExpired bumpsExpiration onlyJudgesContract {\n\t\trequire(data.state == CaseStates.Won || data.state == CaseStates.Lost, \"The case cannot be appealed\");\n\t\trequire(msg.value == data.baseCollateral * 3);\n\n\t\tif (data.requester.addr == appealer) {\n\t\t\tdata.requester.collateral += msg.value;\n\t\t} else if (data.opponent.addr == appealer) {\n\t\t\tdata.opponent.collateral += msg.value;\n\t\t}\n\t\tdata.baseCollateral *= 3;\n\t\tdata.judgesRequired *= 3;\n\t\tdata.judges = new address[](0);\n\t\tdata.tally = 0;\n\t\tdata.votes = 0;\n\t\tdata.state = CaseStates.Judging;\n\t}\n\t\n\tfunction claim() public {\n\t\trequire(isExpired(), \"The case is not expired\");\n\t\thandleExpiredCase(); // win or lose, either way someone has to receive money\n\t}\n\n\tfunction isDisclosedProof(CaseParticipant storage participant) private view returns (bool) {\n\t\treturn bytes(participant.proof).length > 0;\n\t}\n\n\tfunction refundAll() private {\n\t\tif (data.requester.collateral != 0) {\n\t\t\tpayable(data.requester.addr).transfer(data.requester.collateral);\n\t\t}\n\n\t\tif (data.opponent.collateral != 0) {\n\t\t\tpayable(data.opponent.addr).transfer(data.opponent.collateral);\n\t\t}\n\t}\n\n\tfunction sendJudgeCut(uint losersCollateral) private {\n\t\tuint judgesCut = losersCollateral * JUDGE_CUT / JUDGE_CUT_DENOMINATOR;\n\t\tfor (uint256 index = 0; index < data.judges.length; index++) {\n\t\t\tpayable(data.judges[index]).transfer(judgesCut); // send the judge their cut\n\t\t}\n\t}\n\n\tfunction handleExpiredCase() private {\n\t\tif (data.state == CaseStates.Requested || data.state == CaseStates.Accepted) {\n\t\t\tdata.state = CaseStates.Aborted;\n\t\t\trefundAll();\n\t\t\temit CaseAborted();\n\t\t\t\n\t\t} else if (data.state == CaseStates.DisclosingProofs) { // only one of participants disclosed proof\n\t\t\t// send everything to the one who disclosed proof\n\t\t\taddress goodBoy = address(0x0);\n\t\t\tif (isDisclosedProof(data.opponent)) {\n\t\t\t\tgoodBoy = data.opponent.addr;\n\t\t\t} else if (isDisclosedProof(data.requester)) {\n\t\t\t\tgoodBoy = data.requester.addr;\n\t\t\t}\n\n\t\t\tdata.state = CaseStates.Aborted;\n\t\t\tpayable(goodBoy).transfer(address(this).balance);\n\t\t\temit CaseAborted();\n\t\t\t\t\t\t\n\t\t} else if (data.state == CaseStates.Judging) { // Judging did not complete on time\n\t\t\t// refund both and report the bad judges\n\t\t\tdata.state = CaseStates.Aborted;\n\t\t\trefundAll();\n\t\t\tfor (uint256 index = 0; index < data.judges.length; index++) {\n\t\t\t\tif (isJudgeVoteRequired[data.judges[index]]) {\n\t\t\t\t\tjudges.reportBad(data.judges[index]);\n\t\t\t\t}\n\t\t\t}\n\t\t\temit CaseAborted();\n\t\t} else if (data.state == CaseStates.Won) { // requester wins\n\t\t\tdata.state = CaseStates.Closed;\n\t\t\tsendJudgeCut(data.opponent.collateral);\n\t\t\tpayable(data.requester.addr).transfer(address(this).balance); // send the rest to the requester\n\t\t\temit CaseClosed();\n\t\t} else if (data.state == CaseStates.Lost) { // requester loses, opponent wins\n\t\t\tdata.state = CaseStates.Closed;\n\t\t\tsendJudgeCut(data.requester.collateral);\n\t\t\tpayable(data.opponent.addr).transfer(address(this).balance); // send the rest to the opponent\n\t\t\temit CaseClosed();\n\t\t}\n\t}\n}\n",
  "sourcePath": "C:\\Users\\msotn\\Desktop\\Crypto Judges\\contracts\\Case.sol",
  "compiler": {
    "name": "solc",
    "version": "0.8.9+commit.e5eed63a.Emscripten.clang"
  },
  "schemaVersion": "3.4.3",
  "updatedAt": "2021-10-23T14:34:42.530Z",
  "devdoc": {
    "kind": "dev",
    "methods": {},
    "version": 1
  },
  "userdoc": {
    "kind": "user",
    "methods": {},
    "version": 1
  }
}