{
  "contractName": "CryptoJudges",
  "abi": [
    {
      "inputs": [],
      "stateMutability": "nonpayable",
      "type": "constructor"
    },
    {
      "inputs": [],
      "name": "registerJudge",
      "outputs": [],
      "stateMutability": "payable",
      "type": "function"
    },
    {
      "inputs": [
        {
          "internalType": "address",
          "name": "judge",
          "type": "address"
        }
      ],
      "name": "reportGood",
      "outputs": [],
      "stateMutability": "nonpayable",
      "type": "function"
    },
    {
      "inputs": [
        {
          "internalType": "address",
          "name": "judge",
          "type": "address"
        }
      ],
      "name": "reportBad",
      "outputs": [],
      "stateMutability": "nonpayable",
      "type": "function"
    },
    {
      "inputs": [
        {
          "internalType": "address",
          "name": "opponent",
          "type": "address"
        },
        {
          "internalType": "bytes32",
          "name": "proofHash",
          "type": "bytes32"
        }
      ],
      "name": "createCase",
      "outputs": [
        {
          "internalType": "uint256",
          "name": "caseId",
          "type": "uint256"
        }
      ],
      "stateMutability": "payable",
      "type": "function"
    },
    {
      "inputs": [
        {
          "internalType": "address",
          "name": "participant",
          "type": "address"
        }
      ],
      "name": "getCase",
      "outputs": [
        {
          "components": [
            {
              "components": [
                {
                  "internalType": "address",
                  "name": "addr",
                  "type": "address"
                },
                {
                  "internalType": "bytes32",
                  "name": "proofHash",
                  "type": "bytes32"
                },
                {
                  "internalType": "string",
                  "name": "proof",
                  "type": "string"
                },
                {
                  "internalType": "uint256",
                  "name": "collateral",
                  "type": "uint256"
                }
              ],
              "internalType": "struct CaseParticipant",
              "name": "requester",
              "type": "tuple"
            },
            {
              "components": [
                {
                  "internalType": "address",
                  "name": "addr",
                  "type": "address"
                },
                {
                  "internalType": "bytes32",
                  "name": "proofHash",
                  "type": "bytes32"
                },
                {
                  "internalType": "string",
                  "name": "proof",
                  "type": "string"
                },
                {
                  "internalType": "uint256",
                  "name": "collateral",
                  "type": "uint256"
                }
              ],
              "internalType": "struct CaseParticipant",
              "name": "opponent",
              "type": "tuple"
            },
            {
              "internalType": "address",
              "name": "judge",
              "type": "address"
            },
            {
              "internalType": "enum CaseStates",
              "name": "state",
              "type": "uint8"
            },
            {
              "internalType": "uint256",
              "name": "baseCollateral",
              "type": "uint256"
            },
            {
              "internalType": "uint256",
              "name": "expiration",
              "type": "uint256"
            }
          ],
          "internalType": "struct CaseData",
          "name": "",
          "type": "tuple"
        }
      ],
      "stateMutability": "view",
      "type": "function"
    },
    {
      "inputs": [
        {
          "internalType": "uint256",
          "name": "caseId",
          "type": "uint256"
        }
      ],
      "name": "getCaseById",
      "outputs": [
        {
          "components": [
            {
              "components": [
                {
                  "internalType": "address",
                  "name": "addr",
                  "type": "address"
                },
                {
                  "internalType": "bytes32",
                  "name": "proofHash",
                  "type": "bytes32"
                },
                {
                  "internalType": "string",
                  "name": "proof",
                  "type": "string"
                },
                {
                  "internalType": "uint256",
                  "name": "collateral",
                  "type": "uint256"
                }
              ],
              "internalType": "struct CaseParticipant",
              "name": "requester",
              "type": "tuple"
            },
            {
              "components": [
                {
                  "internalType": "address",
                  "name": "addr",
                  "type": "address"
                },
                {
                  "internalType": "bytes32",
                  "name": "proofHash",
                  "type": "bytes32"
                },
                {
                  "internalType": "string",
                  "name": "proof",
                  "type": "string"
                },
                {
                  "internalType": "uint256",
                  "name": "collateral",
                  "type": "uint256"
                }
              ],
              "internalType": "struct CaseParticipant",
              "name": "opponent",
              "type": "tuple"
            },
            {
              "internalType": "address",
              "name": "judge",
              "type": "address"
            },
            {
              "internalType": "enum CaseStates",
              "name": "state",
              "type": "uint8"
            },
            {
              "internalType": "uint256",
              "name": "baseCollateral",
              "type": "uint256"
            },
            {
              "internalType": "uint256",
              "name": "expiration",
              "type": "uint256"
            }
          ],
          "internalType": "struct CaseData",
          "name": "",
          "type": "tuple"
        }
      ],
      "stateMutability": "view",
      "type": "function"
    },
    {
      "inputs": [
        {
          "internalType": "uint256",
          "name": "caseId",
          "type": "uint256"
        }
      ],
      "name": "caseContract",
      "outputs": [
        {
          "internalType": "address",
          "name": "",
          "type": "address"
        }
      ],
      "stateMutability": "view",
      "type": "function"
    },
    {
      "inputs": [
        {
          "internalType": "uint256",
          "name": "caseId",
          "type": "uint256"
        },
        {
          "internalType": "bytes32",
          "name": "proofHash",
          "type": "bytes32"
        }
      ],
      "name": "acceptCase",
      "outputs": [],
      "stateMutability": "payable",
      "type": "function"
    },
    {
      "inputs": [
        {
          "internalType": "uint256",
          "name": "caseId",
          "type": "uint256"
        },
        {
          "internalType": "string",
          "name": "proof",
          "type": "string"
        }
      ],
      "name": "discloseProof",
      "outputs": [],
      "stateMutability": "nonpayable",
      "type": "function"
    },
    {
      "inputs": [
        {
          "internalType": "uint256",
          "name": "caseId",
          "type": "uint256"
        },
        {
          "internalType": "bool",
          "name": "win",
          "type": "bool"
        }
      ],
      "name": "setDecision",
      "outputs": [],
      "stateMutability": "nonpayable",
      "type": "function"
    },
    {
      "inputs": [
        {
          "internalType": "uint256",
          "name": "caseId",
          "type": "uint256"
        }
      ],
      "name": "appeal",
      "outputs": [],
      "stateMutability": "payable",
      "type": "function"
    },
    {
      "inputs": [
        {
          "internalType": "uint256",
          "name": "caseId",
          "type": "uint256"
        }
      ],
      "name": "claim",
      "outputs": [],
      "stateMutability": "nonpayable",
      "type": "function"
    }
  ],
  "bytecode": "0x608060405234801561001057600080fd5b5060006002819055506000600581905550615b81806100306000396000f3fe608060405260043610620000b55760003560e01c80638d5cf4d8116200006d5780638d5cf4d814620001bc57806393e0ea0314620001ea5780639e070ce81462000218578063e04c3a7e146200024e578063e2c3b374146200027c578063f3181bff14620002c057620000b5565b806228434e14620000ba5780630d9de3f714620000c6578063272ba1c4146200010a578063379607f5146200012a5780635a08dce614620001585780637e69b7b0146200019c575b600080fd5b620000c4620002ee565b005b348015620000d357600080fd5b50620000f26004803603810190620000ec91906200194d565b620004e9565b60405162000101919062001bf1565b60405180910390f35b62000128600480360381019062000122919062001c77565b62000679565b005b3480156200013757600080fd5b5062000156600480360381019062000150919062001cbe565b62000824565b005b3480156200016557600080fd5b506200018460048036038101906200017e919062001cbe565b620008bc565b60405162000193919062001d01565b60405180910390f35b620001ba6004803603810190620001b4919062001cbe565b620008f9565b005b348015620001c957600080fd5b50620001e86004803603810190620001e291906200194d565b62000b78565b005b348015620001f757600080fd5b5062000216600480360381019062000210919062001d5b565b62000be9565b005b62000236600480360381019062000230919062001da2565b62000d93565b60405162000245919062001dfa565b60405180910390f35b3480156200025b57600080fd5b506200027a600480360381019062000274919062001e85565b62001032565b005b3480156200028957600080fd5b50620002a86004803603810190620002a2919062001cbe565b62001364565b604051620002b7919062001bf1565b60405180910390f35b348015620002cd57600080fd5b50620002ec6004803603810190620002e691906200194d565b620014d5565b005b6000600160003373ffffffffffffffffffffffffffffffffffffffff1673ffffffffffffffffffffffffffffffffffffffff168152602001908152602001600020541462000373576040517f08c379a00000000000000000000000000000000000000000000000000000000081526004016200036a9062001f50565b60405180910390fd5b60643414620003b9576040517f08c379a0000000000000000000000000000000000000000000000000000000008152600401620003b09062001fc2565b60405180910390fd5b60026000815480929190620003ce9062002013565b919050555060405180608001604052803373ffffffffffffffffffffffffffffffffffffffff168152602001606481526020016064815260200160001515815250600080600254815260200190815260200160002060008201518160000160006101000a81548173ffffffffffffffffffffffffffffffffffffffff021916908373ffffffffffffffffffffffffffffffffffffffff160217905550602082015181600101556040820151816002015560608201518160030160006101000a81548160ff021916908315150217905550905050600254600160003373ffffffffffffffffffffffffffffffffffffffff1673ffffffffffffffffffffffffffffffffffffffff16815260200190815260200160002081905550565b620004f362001814565b6000600460008473ffffffffffffffffffffffffffffffffffffffff1673ffffffffffffffffffffffffffffffffffffffff16815260200190815260200160002054141562000579576040517f08c379a00000000000000000000000000000000000000000000000000000000081526004016200057090620020b1565b60405180910390fd5b60036000600460008573ffffffffffffffffffffffffffffffffffffffff1673ffffffffffffffffffffffffffffffffffffffff16815260200190815260200160002054815260200190815260200160002060009054906101000a900473ffffffffffffffffffffffffffffffffffffffff1673ffffffffffffffffffffffffffffffffffffffff16635eaea3b26040518163ffffffff1660e01b815260040160006040518083038186803b1580156200063257600080fd5b505afa15801562000647573d6000803e3d6000fd5b505050506040513d6000823e3d601f19601f820116820180604052508101906200067291906200241a565b9050919050565b6003600083815260200190815260200160002060009054906101000a900473ffffffffffffffffffffffffffffffffffffffff1673ffffffffffffffffffffffffffffffffffffffff1663d0f63a63336040518263ffffffff1660e01b8152600401620006e7919062001d01565b60206040518083038186803b1580156200070057600080fd5b505afa15801562000715573d6000803e3d6000fd5b505050506040513d601f19601f820116820180604052508101906200073b919062002482565b6200077d576040517f08c379a0000000000000000000000000000000000000000000000000000000008152600401620007749062002504565b60405180910390fd5b6003600083815260200190815260200160002060009054906101000a900473ffffffffffffffffffffffffffffffffffffffff1673ffffffffffffffffffffffffffffffffffffffff16639896d25034836040518363ffffffff1660e01b8152600401620007ec919062002537565b6000604051808303818588803b1580156200080657600080fd5b505af11580156200081b573d6000803e3d6000fd5b50505050505050565b6003600082815260200190815260200160002060009054906101000a900473ffffffffffffffffffffffffffffffffffffffff1673ffffffffffffffffffffffffffffffffffffffff16634e71d92d6040518163ffffffff1660e01b8152600401600060405180830381600087803b158015620008a057600080fd5b505af1158015620008b5573d6000803e3d6000fd5b5050505050565b60006003600083815260200190815260200160002060009054906101000a900473ffffffffffffffffffffffffffffffffffffffff169050919050565b6003600082815260200190815260200160002060009054906101000a900473ffffffffffffffffffffffffffffffffffffffff1673ffffffffffffffffffffffffffffffffffffffff166302529177336040518263ffffffff1660e01b815260040162000967919062001d01565b60206040518083038186803b1580156200098057600080fd5b505afa15801562000995573d6000803e3d6000fd5b505050506040513d601f19601f82011682018060405250810190620009bb919062002482565b8062000a8557506003600082815260200190815260200160002060009054906101000a900473ffffffffffffffffffffffffffffffffffffffff1673ffffffffffffffffffffffffffffffffffffffff1663d0f63a63336040518263ffffffff1660e01b815260040162000a30919062001d01565b60206040518083038186803b15801562000a4957600080fd5b505afa15801562000a5e573d6000803e3d6000fd5b505050506040513d601f19601f8201168201806040525081019062000a84919062002482565b5b62000ac7576040517f08c379a000000000000000000000000000000000000000000000000000000000815260040162000abe90620025a4565b60405180910390fd5b6003600082815260200190815260200160002060009054906101000a900473ffffffffffffffffffffffffffffffffffffffff1673ffffffffffffffffffffffffffffffffffffffff1663c0d3e84834336040518363ffffffff1660e01b815260040162000b36919062001d01565b6000604051808303818588803b15801562000b5057600080fd5b505af115801562000b65573d6000803e3d6000fd5b505050505062000b7581620015ff565b50565b600a600080600160008573ffffffffffffffffffffffffffffffffffffffff1673ffffffffffffffffffffffffffffffffffffffff168152602001908152602001600020548152602001908152602001600020600101600082825462000bdf9190620025c6565b9250508190555050565b6003600083815260200190815260200160002060009054906101000a900473ffffffffffffffffffffffffffffffffffffffff1673ffffffffffffffffffffffffffffffffffffffff1663ed896d66336040518263ffffffff1660e01b815260040162000c57919062001d01565b60206040518083038186803b15801562000c7057600080fd5b505afa15801562000c85573d6000803e3d6000fd5b505050506040513d601f19601f8201168201806040525081019062000cab919062002482565b62000ced576040517f08c379a000000000000000000000000000000000000000000000000000000000815260040162000ce49062002673565b60405180910390fd5b6003600083815260200190815260200160002060009054906101000a900473ffffffffffffffffffffffffffffffffffffffff1673ffffffffffffffffffffffffffffffffffffffff1663e7e3cf2a826040518263ffffffff1660e01b815260040162000d5b9190620026a6565b600060405180830381600087803b15801562000d7657600080fd5b505af115801562000d8b573d6000803e3d6000fd5b505050505050565b600080600160003373ffffffffffffffffffffffffffffffffffffffff1673ffffffffffffffffffffffffffffffffffffffff168152602001908152602001600020541462000e19576040517f08c379a000000000000000000000000000000000000000000000000000000000815260040162000e109062002713565b60405180910390fd5b6000600160008573ffffffffffffffffffffffffffffffffffffffff1673ffffffffffffffffffffffffffffffffffffffff168152602001908152602001600020541462000e9e576040517f08c379a000000000000000000000000000000000000000000000000000000000815260040162000e959062002785565b60405180910390fd5b600134101562000ee5576040517f08c379a000000000000000000000000000000000000000000000000000000000815260040162000edc906200281d565b60405180910390fd5b6005600081548092919062000efa9062002013565b9190505550600034303386863460405162000f159062001885565b62000f25959493929190620028aa565b6040518091039082f090508015801562000f43573d6000803e3d6000fd5b5090508060036000600554815260200190815260200160002060006101000a81548173ffffffffffffffffffffffffffffffffffffffff021916908373ffffffffffffffffffffffffffffffffffffffff160217905550600554600460003373ffffffffffffffffffffffffffffffffffffffff1673ffffffffffffffffffffffffffffffffffffffff16815260200190815260200160002081905550600554600460008673ffffffffffffffffffffffffffffffffffffffff1673ffffffffffffffffffffffffffffffffffffffff1681526020019081526020016000208190555060055491505092915050565b6003600084815260200190815260200160002060009054906101000a900473ffffffffffffffffffffffffffffffffffffffff1673ffffffffffffffffffffffffffffffffffffffff166302529177336040518263ffffffff1660e01b8152600401620010a0919062001d01565b60206040518083038186803b158015620010b957600080fd5b505afa158015620010ce573d6000803e3d6000fd5b505050506040513d601f19601f82011682018060405250810190620010f4919062002482565b15620011a4576003600084815260200190815260200160002060009054906101000a900473ffffffffffffffffffffffffffffffffffffffff1673ffffffffffffffffffffffffffffffffffffffff16630befd51f83836040518363ffffffff1660e01b81526004016200116a92919062002949565b600060405180830381600087803b1580156200118557600080fd5b505af11580156200119a573d6000803e3d6000fd5b5050505062001354565b6003600084815260200190815260200160002060009054906101000a900473ffffffffffffffffffffffffffffffffffffffff1673ffffffffffffffffffffffffffffffffffffffff1663d0f63a63336040518263ffffffff1660e01b815260040162001212919062001d01565b60206040518083038186803b1580156200122b57600080fd5b505afa15801562001240573d6000803e3d6000fd5b505050506040513d601f19601f8201168201806040525081019062001266919062002482565b1562001316576003600084815260200190815260200160002060009054906101000a900473ffffffffffffffffffffffffffffffffffffffff1673ffffffffffffffffffffffffffffffffffffffff16636af0813683836040518363ffffffff1660e01b8152600401620012dc92919062002949565b600060405180830381600087803b158015620012f757600080fd5b505af11580156200130c573d6000803e3d6000fd5b5050505062001353565b6040517f08c379a00000000000000000000000000000000000000000000000000000000081526004016200134a90620025a4565b60405180910390fd5b5b6200135f83620015ff565b505050565b6200136e62001814565b600073ffffffffffffffffffffffffffffffffffffffff166003600084815260200190815260200160002060009054906101000a900473ffffffffffffffffffffffffffffffffffffffff1673ffffffffffffffffffffffffffffffffffffffff16141562001414576040517f08c379a00000000000000000000000000000000000000000000000000000000081526004016200140b90620029bf565b60405180910390fd5b6003600083815260200190815260200160002060009054906101000a900473ffffffffffffffffffffffffffffffffffffffff1673ffffffffffffffffffffffffffffffffffffffff16635eaea3b26040518163ffffffff1660e01b815260040160006040518083038186803b1580156200148e57600080fd5b505afa158015620014a3573d6000803e3d6000fd5b505050506040513d6000823e3d601f19601f82011682018060405250810190620014ce91906200241a565b9050919050565b6000600160008373ffffffffffffffffffffffffffffffffffffffff1673ffffffffffffffffffffffffffffffffffffffff1681526020019081526020016000205490506014600080838152602001908152602001600020600101541015620015cb57600160008083815260200190815260200160002060030160006101000a81548160ff021916908315150217905550600073ffffffffffffffffffffffffffffffffffffffff166108fc600080848152602001908152602001600020600201549081150290604051600060405180830381858888f19350505050158015620015c3573d6000803e3d6000fd5b5050620015fc565b60146000808381526020019081526020016000206001016000828254620015f39190620029e1565b92505081905550505b50565b60005b600081148062001631575060008082815260200190815260200160002060030160009054906101000a900460ff165b15620016975760016002546001436200164b9190620029e1565b406040516020016200165e919062002a41565b6040516020818303038152906040528051906020012060001c62001683919062002a8d565b6200168f9190620025c6565b905062001602565b6003600083815260200190815260200160002060009054906101000a900473ffffffffffffffffffffffffffffffffffffffff1673ffffffffffffffffffffffffffffffffffffffff1663ca04ddcb60008084815260200190815260200160002060000160009054906101000a900473ffffffffffffffffffffffffffffffffffffffff166040518263ffffffff1660e01b81526004016200173a919062001d01565b602060405180830381600087803b1580156200175557600080fd5b505af11580156200176a573d6000803e3d6000fd5b505050506040513d601f19601f8201168201806040525081019062001790919062002482565b156200181057816004600080600085815260200190815260200160002060000160009054906101000a900473ffffffffffffffffffffffffffffffffffffffff1673ffffffffffffffffffffffffffffffffffffffff1673ffffffffffffffffffffffffffffffffffffffff168152602001908152602001600020819055505b5050565b6040518060c001604052806200182962001893565b81526020016200183862001893565b8152602001600073ffffffffffffffffffffffffffffffffffffffff1681526020016000600881111562001871576200187062001ad5565b5b815260200160008152602001600081525090565b6130868062002ac683390190565b6040518060800160405280600073ffffffffffffffffffffffffffffffffffffffff1681526020016000801916815260200160608152602001600081525090565b6000604051905090565b600080fd5b600080fd5b600073ffffffffffffffffffffffffffffffffffffffff82169050919050565b60006200191582620018e8565b9050919050565b620019278162001908565b81146200193357600080fd5b50565b60008135905062001947816200191c565b92915050565b600060208284031215620019665762001965620018de565b5b6000620019768482850162001936565b91505092915050565b6200198a8162001908565b82525050565b6000819050919050565b620019a58162001990565b82525050565b600081519050919050565b600082825260208201905092915050565b60005b83811015620019e7578082015181840152602081019050620019ca565b83811115620019f7576000848401525b50505050565b6000601f19601f8301169050919050565b600062001a1b82620019ab565b62001a278185620019b6565b935062001a39818560208601620019c7565b62001a4481620019fd565b840191505092915050565b6000819050919050565b62001a648162001a4f565b82525050565b600060808301600083015162001a8460008601826200197f565b50602083015162001a9960208601826200199a565b506040830151848203604086015262001ab3828262001a0e565b915050606083015162001aca606086018262001a59565b508091505092915050565b7f4e487b7100000000000000000000000000000000000000000000000000000000600052602160045260246000fd5b6009811062001b185762001b1762001ad5565b5b50565b600081905062001b2b8262001b04565b919050565b600062001b3d8262001b1b565b9050919050565b62001b4f8162001b30565b82525050565b600060c083016000830151848203600086015262001b74828262001a6a565b9150506020830151848203602086015262001b90828262001a6a565b915050604083015162001ba760408601826200197f565b50606083015162001bbc606086018262001b44565b50608083015162001bd1608086018262001a59565b5060a083015162001be660a086018262001a59565b508091505092915050565b6000602082019050818103600083015262001c0d818462001b55565b905092915050565b62001c208162001a4f565b811462001c2c57600080fd5b50565b60008135905062001c408162001c15565b92915050565b62001c518162001990565b811462001c5d57600080fd5b50565b60008135905062001c718162001c46565b92915050565b6000806040838503121562001c915762001c90620018de565b5b600062001ca18582860162001c2f565b925050602062001cb48582860162001c60565b9150509250929050565b60006020828403121562001cd75762001cd6620018de565b5b600062001ce78482850162001c2f565b91505092915050565b62001cfb8162001908565b82525050565b600060208201905062001d18600083018462001cf0565b92915050565b60008115159050919050565b62001d358162001d1e565b811462001d4157600080fd5b50565b60008135905062001d558162001d2a565b92915050565b6000806040838503121562001d755762001d74620018de565b5b600062001d858582860162001c2f565b925050602062001d988582860162001d44565b9150509250929050565b6000806040838503121562001dbc5762001dbb620018de565b5b600062001dcc8582860162001936565b925050602062001ddf8582860162001c60565b9150509250929050565b62001df48162001a4f565b82525050565b600060208201905062001e11600083018462001de9565b92915050565b600080fd5b600080fd5b600080fd5b60008083601f84011262001e3f5762001e3e62001e17565b5b8235905067ffffffffffffffff81111562001e5f5762001e5e62001e1c565b5b60208301915083600182028301111562001e7e5762001e7d62001e21565b5b9250929050565b60008060006040848603121562001ea15762001ea0620018de565b5b600062001eb18682870162001c2f565b935050602084013567ffffffffffffffff81111562001ed55762001ed4620018e3565b5b62001ee38682870162001e26565b92509250509250925092565b600082825260208201905092915050565b7f54686973206164647265737320697320616c72656164792061206a7564676500600082015250565b600062001f38601f8362001eef565b915062001f458262001f00565b602082019050919050565b6000602082019050818103600083015262001f6b8162001f29565b9050919050565b7f496e76616c6964207374616b652070726f766964656400000000000000000000600082015250565b600062001faa60168362001eef565b915062001fb78262001f72565b602082019050919050565b6000602082019050818103600083015262001fdd8162001f9b565b9050919050565b7f4e487b7100000000000000000000000000000000000000000000000000000000600052601160045260246000fd5b6000620020208262001a4f565b91507fffffffffffffffffffffffffffffffffffffffffffffffffffffffffffffffff82141562002056576200205562001fe4565b5b600182019050919050565b7f4e6f206361736573000000000000000000000000000000000000000000000000600082015250565b60006200209960088362001eef565b9150620020a68262002061565b602082019050919050565b60006020820190508181036000830152620020cc816200208a565b9050919050565b600080fd5b7f4e487b7100000000000000000000000000000000000000000000000000000000600052604160045260246000fd5b6200211282620019fd565b810181811067ffffffffffffffff82111715620021345762002133620020d8565b5b80604052505050565b600062002149620018d4565b905062002157828262002107565b919050565b600080fd5b60008151905062002172816200191c565b92915050565b600081519050620021898162001c46565b92915050565b600080fd5b600067ffffffffffffffff821115620021b257620021b1620020d8565b5b620021bd82620019fd565b9050602081019050919050565b6000620021e1620021db8462002194565b6200213d565b9050828152602081018484840111156200220057620021ff6200218f565b5b6200220d848285620019c7565b509392505050565b600082601f8301126200222d576200222c62001e17565b5b81516200223f848260208601620021ca565b91505092915050565b600081519050620022598162001c15565b92915050565b600060808284031215620022785762002277620020d3565b5b6200228460806200213d565b90506000620022968482850162002161565b6000830152506020620022ac8482850162002178565b602083015250604082015167ffffffffffffffff811115620022d357620022d26200215c565b5b620022e18482850162002215565b6040830152506060620022f78482850162002248565b60608301525092915050565b600981106200231157600080fd5b50565b600081519050620023258162002303565b92915050565b600060c08284031215620023445762002343620020d3565b5b6200235060c06200213d565b9050600082015167ffffffffffffffff8111156200237357620023726200215c565b5b62002381848285016200225f565b600083015250602082015167ffffffffffffffff811115620023a857620023a76200215c565b5b620023b6848285016200225f565b6020830152506040620023cc8482850162002161565b6040830152506060620023e28482850162002314565b6060830152506080620023f88482850162002248565b60808301525060a06200240e8482850162002248565b60a08301525092915050565b600060208284031215620024335762002432620018de565b5b600082015167ffffffffffffffff811115620024545762002453620018e3565b5b62002462848285016200232b565b91505092915050565b6000815190506200247c8162001d2a565b92915050565b6000602082840312156200249b576200249a620018de565b5b6000620024ab848285016200246b565b91505092915050565b7f54686973206973206e6f7420796f757220636173650000000000000000000000600082015250565b6000620024ec60158362001eef565b9150620024f982620024b4565b602082019050919050565b600060208201905081810360008301526200251f81620024dd565b9050919050565b620025318162001990565b82525050565b60006020820190506200254e600083018462002526565b92915050565b7f596f7520617265206e6f742072656c6174656420746f20746869732063617365600082015250565b60006200258c60208362001eef565b9150620025998262002554565b602082019050919050565b60006020820190508181036000830152620025bf816200257d565b9050919050565b6000620025d38262001a4f565b9150620025e08362001a4f565b9250827fffffffffffffffffffffffffffffffffffffffffffffffffffffffffffffffff0382111562002618576200261762001fe4565b5b828201905092915050565b7f596f7520617265206e6f7420746865206a756467650000000000000000000000600082015250565b60006200265b60158362001eef565b9150620026688262002623565b602082019050919050565b600060208201905081810360008301526200268e816200264c565b9050919050565b620026a08162001d1e565b82525050565b6000602082019050620026bd600083018462002695565b92915050565b7f41206a756467652063616e6e6f74206f70656e20612063617365000000000000600082015250565b6000620026fb601a8362001eef565b91506200270882620026c3565b602082019050919050565b600060208201905081810360008301526200272e81620026ec565b9050919050565b7f41206a756467652063616e6e6f7420626520616e206f70706f6e656e74000000600082015250565b60006200276d601d8362001eef565b91506200277a8262002735565b602082019050919050565b60006020820190508181036000830152620027a0816200275e565b9050919050565b7f4d7573742070726f7669646520736f6d6520636f696e7320617320636f6c6c6160008201527f746572616c000000000000000000000000000000000000000000000000000000602082015250565b60006200280560258362001eef565b91506200281282620027a7565b604082019050919050565b600060208201905081810360008301526200283881620027f6565b9050919050565b6000819050919050565b60006200286a620028646200285e84620018e8565b6200283f565b620018e8565b9050919050565b60006200287e8262002849565b9050919050565b6000620028928262002871565b9050919050565b620028a48162002885565b82525050565b600060a082019050620028c1600083018862002899565b620028d0602083018762001cf0565b620028df604083018662001cf0565b620028ee606083018562002526565b620028fd608083018462001de9565b9695505050505050565b82818337600083830152505050565b600062002924838562001eef565b93506200293383858462002907565b6200293e83620019fd565b840190509392505050565b600060208201905081810360008301526200296681848662002916565b90509392505050565b7f4e6f206361736500000000000000000000000000000000000000000000000000600082015250565b6000620029a760078362001eef565b9150620029b4826200296f565b602082019050919050565b60006020820190508181036000830152620029da8162002998565b9050919050565b6000620029ee8262001a4f565b9150620029fb8362001a4f565b92508282101562002a115762002a1062001fe4565b5b828203905092915050565b6000819050919050565b62002a3b62002a358262001990565b62002a1c565b82525050565b600062002a4f828462002a26565b60208201915081905092915050565b7f4e487b7100000000000000000000000000000000000000000000000000000000600052601260045260246000fd5b600062002a9a8262001a4f565b915062002aa78362001a4f565b92508262002aba5762002ab962002a5e565b5b82820690509291505056fe6080604052604051620030863803806200308683398181016040528101906200002991906200057c565b8034146200006e576040517f08c379a0000000000000000000000000000000000000000000000000000000008152600401620000659062000665565b60405180910390fd5b84600b60006101000a81548173ffffffffffffffffffffffffffffffffffffffff021916908373ffffffffffffffffffffffffffffffffffffffff1602179055506040518060c0016040528060405180608001604052808773ffffffffffffffffffffffffffffffffffffffff16815260200185815260200160405180602001604052806000815250815260200184815250815260200160405180608001604052808673ffffffffffffffffffffffffffffffffffffffff1681526020016000801916815260200160405180602001604052806000815250815260200160008152508152602001600073ffffffffffffffffffffffffffffffffffffffff1681526020016001600881111562000189576200018862000687565b5b8152602001828152602001601e42620001a39190620006e5565b8152506000808201518160000160008201518160000160006101000a81548173ffffffffffffffffffffffffffffffffffffffff021916908373ffffffffffffffffffffffffffffffffffffffff1602179055506020820151816001015560408201518160020190805190602001906200021f929190620003a7565b5060608201518160030155505060208201518160040160008201518160000160006101000a81548173ffffffffffffffffffffffffffffffffffffffff021916908373ffffffffffffffffffffffffffffffffffffffff160217905550602082015181600101556040820151816002019080519060200190620002a4929190620003a7565b5060608201518160030155505060408201518160080160006101000a81548173ffffffffffffffffffffffffffffffffffffffff021916908373ffffffffffffffffffffffffffffffffffffffff16021790555060608201518160080160146101000a81548160ff0219169083600881111562000326576200032562000687565b5b02179055506080820151816009015560a082015181600a01559050508273ffffffffffffffffffffffffffffffffffffffff168473ffffffffffffffffffffffffffffffffffffffff167fb957e4dc3b04409e6c4b14ee40d0d8e5efe8caf593e96b517b5afcdbbc7ff32660405160405180910390a35050505050620007a7565b828054620003b59062000771565b90600052602060002090601f016020900481019282620003d9576000855562000425565b82601f10620003f457805160ff191683800117855562000425565b8280016001018555821562000425579182015b828111156200042457825182559160200191906001019062000407565b5b50905062000434919062000438565b5090565b5b808211156200045357600081600090555060010162000439565b5090565b600080fd5b600073ffffffffffffffffffffffffffffffffffffffff82169050919050565b600062000489826200045c565b9050919050565b60006200049d826200047c565b9050919050565b620004af8162000490565b8114620004bb57600080fd5b50565b600081519050620004cf81620004a4565b92915050565b620004e0816200047c565b8114620004ec57600080fd5b50565b6000815190506200050081620004d5565b92915050565b6000819050919050565b6200051b8162000506565b81146200052757600080fd5b50565b6000815190506200053b8162000510565b92915050565b6000819050919050565b620005568162000541565b81146200056257600080fd5b50565b60008151905062000576816200054b565b92915050565b600080600080600060a086880312156200059b576200059a62000457565b5b6000620005ab88828901620004be565b9550506020620005be88828901620004ef565b9450506040620005d188828901620004ef565b9350506060620005e4888289016200052a565b9250506080620005f78882890162000565565b9150509295509295909350565b600082825260208201905092915050565b7f496e76616c696420636f6c6c61746572616c2070726f76696465640000000000600082015250565b60006200064d601b8362000604565b91506200065a8262000615565b602082019050919050565b6000602082019050818103600083015262000680816200063e565b9050919050565b7f4e487b7100000000000000000000000000000000000000000000000000000000600052602160045260246000fd5b7f4e487b7100000000000000000000000000000000000000000000000000000000600052601160045260246000fd5b6000620006f28262000541565b9150620006ff8362000541565b9250827fffffffffffffffffffffffffffffffffffffffffffffffffffffffffffffffff03821115620007375762000736620006b6565b5b828201905092915050565b7f4e487b7100000000000000000000000000000000000000000000000000000000600052602260045260246000fd5b600060028204905060018216806200078a57607f821691505b60208210811415620007a157620007a062000742565b5b50919050565b6128cf80620007b76000396000f3fe6080604052600436106100a75760003560e01c80639896d250116100645780639896d250146101a8578063c0d3e848146101c4578063ca04ddcb146101e0578063d0f63a631461021d578063e7e3cf2a1461025a578063ed896d6614610283576100a7565b806302529177146100ac5780630befd51f146100e95780632f13b60c146101125780634e71d92d1461013d5780635eaea3b2146101545780636af081361461017f575b600080fd5b3480156100b857600080fd5b506100d360048036038101906100ce9190611eb3565b6102c0565b6040516100e09190611efb565b60405180910390f35b3480156100f557600080fd5b50610110600480360381019061010b9190611f7b565b61031f565b005b34801561011e57600080fd5b506101276105e1565b6040516101349190611efb565b60405180910390f35b34801561014957600080fd5b506101526105f0565b005b34801561016057600080fd5b50610169610641565b604051610176919061220c565b60405180910390f35b34801561018b57600080fd5b506101a660048036038101906101a19190611f7b565b610920565b005b6101c260048036038101906101bd919061225a565b610be5565b005b6101de60048036038101906101d99190611eb3565b610e29565b005b3480156101ec57600080fd5b5061020760048036038101906102029190611eb3565b61110a565b6040516102149190611efb565b60405180910390f35b34801561022957600080fd5b50610244600480360381019061023f9190611eb3565b61124d565b6040516102519190611efb565b60405180910390f35b34801561026657600080fd5b50610281600480360381019061027c91906122b3565b6112ad565b005b34801561028f57600080fd5b506102aa60048036038101906102a59190611eb3565b611504565b6040516102b79190611efb565b60405180910390f35b60008173ffffffffffffffffffffffffffffffffffffffff166000800160000160009054906101000a900473ffffffffffffffffffffffffffffffffffffffff1673ffffffffffffffffffffffffffffffffffffffff16149050919050565b6103276105e1565b1561033957610334611561565b6105dd565b600b60009054906101000a900473ffffffffffffffffffffffffffffffffffffffff1673ffffffffffffffffffffffffffffffffffffffff163373ffffffffffffffffffffffffffffffffffffffff16146103c9576040517f08c379a00000000000000000000000000000000000000000000000000000000081526004016103c09061233d565b60405180910390fd5b600260088111156103dd576103dc612105565b5b600060080160149054906101000a900460ff16600881111561040257610401612105565b5b148061044457506003600881111561041d5761041c612105565b5b600060080160149054906101000a900460ff16600881111561044257610441612105565b5b145b610483576040517f08c379a000000000000000000000000000000000000000000000000000000000815260040161047a906123a9565b60405180910390fd5b61048f60008001611b43565b156104cf576040517f08c379a00000000000000000000000000000000000000000000000000000000081526004016104c690612415565b60405180910390fd5b600080016001015482826040516020016104ea929190612474565b6040516020818303038152906040528051906020012014610540576040517f08c379a0000000000000000000000000000000000000000000000000000000008152600401610537906124d9565b60405180910390fd5b8181600080016002019190610556929190611cfd565b506001600060080160149054906101000a900460ff16600881111561057e5761057d612105565b5b6105889190612528565b600881111561059a57610599612105565b5b600060080160146101000a81548160ff021916908360088111156105c1576105c0612105565b5b0217905550601e426105d39190612528565b6000600a01819055505b5050565b6000426000600a015410905090565b6105f86105e1565b610637576040517f08c379a000000000000000000000000000000000000000000000000000000000815260040161062e906125ca565b60405180910390fd5b61063f611561565b565b610649611d83565b60006040518060c0016040529081600082016040518060800160405290816000820160009054906101000a900473ffffffffffffffffffffffffffffffffffffffff1673ffffffffffffffffffffffffffffffffffffffff1673ffffffffffffffffffffffffffffffffffffffff168152602001600182015481526020016002820180546106d690612619565b80601f016020809104026020016040519081016040528092919081815260200182805461070290612619565b801561074f5780601f106107245761010080835404028352916020019161074f565b820191906000526020600020905b81548152906001019060200180831161073257829003601f168201915b505050505081526020016003820154815250508152602001600482016040518060800160405290816000820160009054906101000a900473ffffffffffffffffffffffffffffffffffffffff1673ffffffffffffffffffffffffffffffffffffffff1673ffffffffffffffffffffffffffffffffffffffff168152602001600182015481526020016002820180546107e690612619565b80601f016020809104026020016040519081016040528092919081815260200182805461081290612619565b801561085f5780601f106108345761010080835404028352916020019161085f565b820191906000526020600020905b81548152906001019060200180831161084257829003601f168201915b5050505050815260200160038201548152505081526020016008820160009054906101000a900473ffffffffffffffffffffffffffffffffffffffff1673ffffffffffffffffffffffffffffffffffffffff1673ffffffffffffffffffffffffffffffffffffffff1681526020016008820160149054906101000a900460ff1660088111156108f1576108f0612105565b5b600881111561090357610902612105565b5b815260200160098201548152602001600a82015481525050905090565b6109286105e1565b1561093a57610935611561565b610be1565b600b60009054906101000a900473ffffffffffffffffffffffffffffffffffffffff1673ffffffffffffffffffffffffffffffffffffffff163373ffffffffffffffffffffffffffffffffffffffff16146109ca576040517f08c379a00000000000000000000000000000000000000000000000000000000081526004016109c19061233d565b60405180910390fd5b600260088111156109de576109dd612105565b5b600060080160149054906101000a900460ff166008811115610a0357610a02612105565b5b1480610a45575060036008811115610a1e57610a1d612105565b5b600060080160149054906101000a900460ff166008811115610a4357610a42612105565b5b145b610a84576040517f08c379a0000000000000000000000000000000000000000000000000000000008152600401610a7b906123a9565b60405180910390fd5b610a916000600401611b43565b15610ad1576040517f08c379a0000000000000000000000000000000000000000000000000000000008152600401610ac890612415565b60405180910390fd5b6000600401600101548282604051602001610aed929190612474565b6040516020818303038152906040528051906020012014610b43576040517f08c379a0000000000000000000000000000000000000000000000000000000008152600401610b3a906124d9565b60405180910390fd5b818160006004016002019190610b5a929190611cfd565b506001600060080160149054906101000a900460ff166008811115610b8257610b81612105565b5b610b8c9190612528565b6008811115610b9e57610b9d612105565b5b600060080160146101000a81548160ff02191690836008811115610bc557610bc4612105565b5b0217905550601e42610bd79190612528565b6000600a01819055505b5050565b610bed6105e1565b15610bff57610bfa611561565b610e26565b600b60009054906101000a900473ffffffffffffffffffffffffffffffffffffffff1673ffffffffffffffffffffffffffffffffffffffff163373ffffffffffffffffffffffffffffffffffffffff1614610c8f576040517f08c379a0000000000000000000000000000000000000000000000000000000008152600401610c869061233d565b60405180910390fd5b60016008811115610ca357610ca2612105565b5b600060080160149054906101000a900460ff166008811115610cc857610cc7612105565b5b14610cd257600080fd5b3460006009015414610d19576040517f08c379a0000000000000000000000000000000000000000000000000000000008152600401610d10906126bd565b60405180910390fd5b806000600401600101819055506000600901546000600401600301819055506002600060080160146101000a81548160ff02191690836008811115610d6157610d60612105565b5b0217905550600060040160000160009054906101000a900473ffffffffffffffffffffffffffffffffffffffff1673ffffffffffffffffffffffffffffffffffffffff166000800160000160009054906101000a900473ffffffffffffffffffffffffffffffffffffffff1673ffffffffffffffffffffffffffffffffffffffff167fdd5f05630ec0ad93ddee9d95393a7402ae7eac8de7af06b03249fee0478b876d60405160405180910390a3601e42610e1c9190612528565b6000600a01819055505b50565b610e316105e1565b15610e4357610e3e611561565b611107565b600b60009054906101000a900473ffffffffffffffffffffffffffffffffffffffff1673ffffffffffffffffffffffffffffffffffffffff163373ffffffffffffffffffffffffffffffffffffffff1614610ed3576040517f08c379a0000000000000000000000000000000000000000000000000000000008152600401610eca9061233d565b60405180910390fd5b60056008811115610ee757610ee6612105565b5b600060080160149054906101000a900460ff166008811115610f0c57610f0b612105565b5b1480610f4e575060066008811115610f2757610f26612105565b5b600060080160149054906101000a900460ff166008811115610f4c57610f4b612105565b5b145b610f8d576040517f08c379a0000000000000000000000000000000000000000000000000000000008152600401610f8490612729565b60405180910390fd5b6003600060090154610f9f9190612749565b3414610faa57600080fd5b8073ffffffffffffffffffffffffffffffffffffffff166000800160000160009054906101000a900473ffffffffffffffffffffffffffffffffffffffff1673ffffffffffffffffffffffffffffffffffffffff161415611028573460008001600301600082825461101c9190612528565b925050819055506110a5565b8073ffffffffffffffffffffffffffffffffffffffff16600060040160000160009054906101000a900473ffffffffffffffffffffffffffffffffffffffff1673ffffffffffffffffffffffffffffffffffffffff1614156110a457346000600401600301600082825461109c9190612528565b925050819055505b5b6003600060090160008282546110bb9190612749565b925050819055506004600060080160146101000a81548160ff021916908360088111156110eb576110ea612105565b5b0217905550601e426110fd9190612528565b6000600a01819055505b50565b60006111146105e1565b1561112657611121611561565b611248565b600b60009054906101000a900473ffffffffffffffffffffffffffffffffffffffff1673ffffffffffffffffffffffffffffffffffffffff163373ffffffffffffffffffffffffffffffffffffffff16146111b6576040517f08c379a00000000000000000000000000000000000000000000000000000000081526004016111ad9061233d565b60405180910390fd5b600460088111156111ca576111c9612105565b5b600060080160149054906101000a900460ff1660088111156111ef576111ee612105565b5b14156112425781600060080160006101000a81548173ffffffffffffffffffffffffffffffffffffffff021916908373ffffffffffffffffffffffffffffffffffffffff16021790555060019050611247565b600090505b5b919050565b60008173ffffffffffffffffffffffffffffffffffffffff16600060040160000160009054906101000a900473ffffffffffffffffffffffffffffffffffffffff1673ffffffffffffffffffffffffffffffffffffffff16149050919050565b6112b56105e1565b156112c7576112c2611561565b611501565b600b60009054906101000a900473ffffffffffffffffffffffffffffffffffffffff1673ffffffffffffffffffffffffffffffffffffffff163373ffffffffffffffffffffffffffffffffffffffff1614611357576040517f08c379a000000000000000000000000000000000000000000000000000000000815260040161134e9061233d565b60405180910390fd5b6004600881111561136b5761136a612105565b5b600060080160149054906101000a900460ff1660088111156113905761138f612105565b5b146113d0576040517f08c379a00000000000000000000000000000000000000000000000000000000081526004016113c7906127ef565b60405180910390fd5b8015611409576005600060080160146101000a81548160ff021916908360088111156113ff576113fe612105565b5b0217905550611438565b6006600060080160146101000a81548160ff0219169083600881111561143257611431612105565b5b02179055505b600b60009054906101000a900473ffffffffffffffffffffffffffffffffffffffff1673ffffffffffffffffffffffffffffffffffffffff16638d5cf4d8600060080160009054906101000a900473ffffffffffffffffffffffffffffffffffffffff166040518263ffffffff1660e01b81526004016114b8919061281e565b600060405180830381600087803b1580156114d257600080fd5b505af11580156114e6573d6000803e3d6000fd5b50505050601e426114f79190612528565b6000600a01819055505b50565b60008173ffffffffffffffffffffffffffffffffffffffff16600060080160009054906101000a900473ffffffffffffffffffffffffffffffffffffffff1673ffffffffffffffffffffffffffffffffffffffff16149050919050565b6001600881111561157557611574612105565b5b600060080160149054906101000a900460ff16600881111561159a57611599612105565b5b14806115dc5750600260088111156115b5576115b4612105565b5b600060080160149054906101000a900460ff1660088111156115da576115d9612105565b5b145b15611648576007600060080160146101000a81548160ff0219169083600881111561160a57611609612105565b5b0217905550611617611b5f565b7f3b0a072432f66c2c62b2ffa05c0384d649697f4a86708232650b4b37372f232c60405160405180910390a1611b41565b6003600881111561165c5761165b612105565b5b600060080160149054906101000a900460ff16600881111561168157611680612105565b5b14156117af5760006116966000600401611b43565b156116cb57600060040160000160009054906101000a900473ffffffffffffffffffffffffffffffffffffffff169050611708565b6116d760008001611b43565b15611707576000800160000160009054906101000a900473ffffffffffffffffffffffffffffffffffffffff1690505b5b6007600060080160146101000a81548160ff0219169083600881111561173157611730612105565b5b02179055508073ffffffffffffffffffffffffffffffffffffffff166108fc479081150290604051600060405180830381858888f1935050505015801561177c573d6000803e3d6000fd5b507f3b0a072432f66c2c62b2ffa05c0384d649697f4a86708232650b4b37372f232c60405160405180910390a150611b40565b600460088111156117c3576117c2612105565b5b600060080160149054906101000a900460ff1660088111156117e8576117e7612105565b5b1415611907576007600060080160146101000a81548160ff0219169083600881111561181757611816612105565b5b0217905550611824611b5f565b600b60009054906101000a900473ffffffffffffffffffffffffffffffffffffffff1673ffffffffffffffffffffffffffffffffffffffff1663f3181bff600060080160009054906101000a900473ffffffffffffffffffffffffffffffffffffffff166040518263ffffffff1660e01b81526004016118a4919061281e565b600060405180830381600087803b1580156118be57600080fd5b505af11580156118d2573d6000803e3d6000fd5b505050507f3b0a072432f66c2c62b2ffa05c0384d649697f4a86708232650b4b37372f232c60405160405180910390a1611b3f565b6005600881111561191b5761191a612105565b5b600060080160149054906101000a900460ff1660088111156119405761193f612105565b5b1415611a24576008600060080160146101000a81548160ff0219169083600881111561196f5761196e612105565b5b0217905550611985600060040160030154611c6d565b6000800160000160009054906101000a900473ffffffffffffffffffffffffffffffffffffffff1673ffffffffffffffffffffffffffffffffffffffff166108fc479081150290604051600060405180830381858888f193505050501580156119f2573d6000803e3d6000fd5b507f9ab8bf53a18ac51a5a24e74d7dcf0f9e8f30c86b3009a4934fb1489632e7953e60405160405180910390a1611b3e565b60066008811115611a3857611a37612105565b5b600060080160149054906101000a900460ff166008811115611a5d57611a5c612105565b5b1415611b3d576008600060080160146101000a81548160ff02191690836008811115611a8c57611a8b612105565b5b0217905550611aa16000800160030154611c6d565b600060040160000160009054906101000a900473ffffffffffffffffffffffffffffffffffffffff1673ffffffffffffffffffffffffffffffffffffffff166108fc479081150290604051600060405180830381858888f19350505050158015611b0f573d6000803e3d6000fd5b507f9ab8bf53a18ac51a5a24e74d7dcf0f9e8f30c86b3009a4934fb1489632e7953e60405160405180910390a15b5b5b5b5b565b600080826002018054611b5590612619565b9050119050919050565b6000806000016003015414611be4576000800160000160009054906101000a900473ffffffffffffffffffffffffffffffffffffffff1673ffffffffffffffffffffffffffffffffffffffff166108fc60008001600301549081150290604051600060405180830381858888f19350505050158015611be2573d6000803e3d6000fd5b505b6000806004016003015414611c6b57600060040160000160009054906101000a900473ffffffffffffffffffffffffffffffffffffffff1673ffffffffffffffffffffffffffffffffffffffff166108fc6000600401600301549081150290604051600060405180830381858888f19350505050158015611c69573d6000803e3d6000fd5b505b565b6000620186a06103e883611c819190612749565b611c8b9190612868565b9050600060080160009054906101000a900473ffffffffffffffffffffffffffffffffffffffff1673ffffffffffffffffffffffffffffffffffffffff166108fc829081150290604051600060405180830381858888f19350505050158015611cf8573d6000803e3d6000fd5b505050565b828054611d0990612619565b90600052602060002090601f016020900481019282611d2b5760008555611d72565b82601f10611d4457803560ff1916838001178555611d72565b82800160010185558215611d72579182015b82811115611d71578235825591602001919060010190611d56565b5b509050611d7f9190611ded565b5090565b6040518060c00160405280611d96611e0a565b8152602001611da3611e0a565b8152602001600073ffffffffffffffffffffffffffffffffffffffff16815260200160006008811115611dd957611dd8612105565b5b815260200160008152602001600081525090565b5b80821115611e06576000816000905550600101611dee565b5090565b6040518060800160405280600073ffffffffffffffffffffffffffffffffffffffff1681526020016000801916815260200160608152602001600081525090565b600080fd5b600080fd5b600073ffffffffffffffffffffffffffffffffffffffff82169050919050565b6000611e8082611e55565b9050919050565b611e9081611e75565b8114611e9b57600080fd5b50565b600081359050611ead81611e87565b92915050565b600060208284031215611ec957611ec8611e4b565b5b6000611ed784828501611e9e565b91505092915050565b60008115159050919050565b611ef581611ee0565b82525050565b6000602082019050611f106000830184611eec565b92915050565b600080fd5b600080fd5b600080fd5b60008083601f840112611f3b57611f3a611f16565b5b8235905067ffffffffffffffff811115611f5857611f57611f1b565b5b602083019150836001820283011115611f7457611f73611f20565b5b9250929050565b60008060208385031215611f9257611f91611e4b565b5b600083013567ffffffffffffffff811115611fb057611faf611e50565b5b611fbc85828601611f25565b92509250509250929050565b611fd181611e75565b82525050565b6000819050919050565b611fea81611fd7565b82525050565b600081519050919050565b600082825260208201905092915050565b60005b8381101561202a57808201518184015260208101905061200f565b83811115612039576000848401525b50505050565b6000601f19601f8301169050919050565b600061205b82611ff0565b6120658185611ffb565b935061207581856020860161200c565b61207e8161203f565b840191505092915050565b6000819050919050565b61209c81612089565b82525050565b60006080830160008301516120ba6000860182611fc8565b5060208301516120cd6020860182611fe1565b50604083015184820360408601526120e58282612050565b91505060608301516120fa6060860182612093565b508091505092915050565b7f4e487b7100000000000000000000000000000000000000000000000000000000600052602160045260246000fd5b6009811061214557612144612105565b5b50565b600081905061215682612134565b919050565b600061216682612148565b9050919050565b6121768161215b565b82525050565b600060c083016000830151848203600086015261219982826120a2565b915050602083015184820360208601526121b382826120a2565b91505060408301516121c86040860182611fc8565b5060608301516121db606086018261216d565b5060808301516121ee6080860182612093565b5060a083015161220160a0860182612093565b508091505092915050565b60006020820190508181036000830152612226818461217c565b905092915050565b61223781611fd7565b811461224257600080fd5b50565b6000813590506122548161222e565b92915050565b6000602082840312156122705761226f611e4b565b5b600061227e84828501612245565b91505092915050565b61229081611ee0565b811461229b57600080fd5b50565b6000813590506122ad81612287565b92915050565b6000602082840312156122c9576122c8611e4b565b5b60006122d78482850161229e565b91505092915050565b600082825260208201905092915050565b7f496e76616c69642066756e6374696f6e2063616c6c0000000000000000000000600082015250565b60006123276015836122e0565b9150612332826122f1565b602082019050919050565b600060208201905081810360008301526123568161231a565b9050919050565b7f54686973206361736520646f6573206e6f74206163636570742070726f6f6673600082015250565b60006123936020836122e0565b915061239e8261235d565b602082019050919050565b600060208201905081810360008301526123c281612386565b9050919050565b7f5468652070726f6f6620697320616c72656164792070726f7669646564000000600082015250565b60006123ff601d836122e0565b915061240a826123c9565b602082019050919050565b6000602082019050818103600083015261242e816123f2565b9050919050565b600081905092915050565b82818337600083830152505050565b600061245b8385612435565b9350612468838584612440565b82840190509392505050565b600061248182848661244f565b91508190509392505050565b7f50726f6f6620646f6573206e6f74206d617463682070726f6f66206861736800600082015250565b60006124c3601f836122e0565b91506124ce8261248d565b602082019050919050565b600060208201905081810360008301526124f2816124b6565b9050919050565b7f4e487b7100000000000000000000000000000000000000000000000000000000600052601160045260246000fd5b600061253382612089565b915061253e83612089565b9250827fffffffffffffffffffffffffffffffffffffffffffffffffffffffffffffffff03821115612573576125726124f9565b5b828201905092915050565b7f5468652063617365206973206e6f742065787069726564000000000000000000600082015250565b60006125b46017836122e0565b91506125bf8261257e565b602082019050919050565b600060208201905081810360008301526125e3816125a7565b9050919050565b7f4e487b7100000000000000000000000000000000000000000000000000000000600052602260045260246000fd5b6000600282049050600182168061263157607f821691505b60208210811415612645576126446125ea565b5b50919050565b7f50726f766964652074686520726967687420616d6f756e74206f6620636f6c6c60008201527f61746572616c0000000000000000000000000000000000000000000000000000602082015250565b60006126a76026836122e0565b91506126b28261264b565b604082019050919050565b600060208201905081810360008301526126d68161269a565b9050919050565b7f54686520636173652063616e6e6f742062652061707065616c65640000000000600082015250565b6000612713601b836122e0565b915061271e826126dd565b602082019050919050565b6000602082019050818103600083015261274281612706565b9050919050565b600061275482612089565b915061275f83612089565b9250817fffffffffffffffffffffffffffffffffffffffffffffffffffffffffffffffff0483118215151615612798576127976124f9565b5b828202905092915050565b7f546869732063617365206973206e6f74206265696e67206a7564676564000000600082015250565b60006127d9601d836122e0565b91506127e4826127a3565b602082019050919050565b60006020820190508181036000830152612808816127cc565b9050919050565b61281881611e75565b82525050565b6000602082019050612833600083018461280f565b92915050565b7f4e487b7100000000000000000000000000000000000000000000000000000000600052601260045260246000fd5b600061287382612089565b915061287e83612089565b92508261288e5761288d612839565b5b82820490509291505056fea2646970667358221220fb16accb008e7722ad4df03853c84e306d47a359621199a938850024d399589864736f6c63430008090033a2646970667358221220b39436c3dcddcba9d870412c3c775948da5273acf3ce81a56c1c9aed13b7947064736f6c63430008090033",
  "immutableReferences": {},
  "source": "// SPDX-License-Identifier: MIT\npragma solidity 0.8.9;\nimport './IJudgeManager.sol';\nimport './Case.sol';\n\ncontract CryptoJudges is IJudgeManager {\n\tstruct Judge {\n\t\taddress addr;\n\t\tuint score;\n\t\tuint stake;\n\t\tbool banned;\n\t}\n\n\tmapping (uint => Judge) JudgesData;\n\tmapping (address => uint) Judges;\n\tuint currentJudgeId;\n\n\tmapping (uint => Case) Cases;\n\tmapping (address => uint) lastCases;\n\tuint currentCaseId;\n\n\tuint constant REQUIRED_JUDGE_STAKE = 100; //1 ether;\n\tuint constant MINIMUM_CASE_COLLATERAL = 1; //gwei;\n\tuint constant JUDGE_SCORE_INITIAL = 100;\n\tuint constant JUDGE_SCORE_INCREMENT = 10;\n\tuint constant JUDGE_SCORE_DECREMENT = 20;\n\n\tconstructor() {\n\t\tcurrentJudgeId = 0; // id == 0 -> null judge/case/request\n\t\tcurrentCaseId = 0;\n\t}\n\n\t//////\n\t// Judge management\n\t//////\n\n\tfunction registerJudge() public payable {\n\t\trequire(Judges[msg.sender] == 0, \"This address is already a judge\");\n\t\trequire(msg.value == REQUIRED_JUDGE_STAKE, \"Invalid stake provided\");\n\n\t\tcurrentJudgeId++;\n\t\tJudgesData[currentJudgeId] = Judge(msg.sender, JUDGE_SCORE_INITIAL, REQUIRED_JUDGE_STAKE, false);\n\t\tJudges[msg.sender] = currentJudgeId;\n\t}\n\n\tfunction reportGood(address judge) public {\n\t\tJudgesData[Judges[judge]].score += JUDGE_SCORE_INCREMENT;\n\t}\n\n\tfunction reportBad(address judge) public {\n\t\tuint judgeId = Judges[judge];\n\t\tif (JudgesData[judgeId].score < JUDGE_SCORE_DECREMENT) { // score is too low, kick the judge\n\t\t\tJudgesData[judgeId].banned = true;\n\t\t\tpayable(address(0x0)).transfer(JudgesData[judgeId].stake);\n\t\t\treturn;\n\t\t}\n\t\tJudgesData[judgeId].score -= JUDGE_SCORE_DECREMENT;\n\t}\n\n\t//////\n\t// Case management\n\t//////\n\n\tfunction createCase(address opponent, bytes32 proofHash) public payable returns (uint caseId) {\n\t\trequire(Judges[msg.sender] == 0, \"A judge cannot open a case\");\n\t\trequire(Judges[opponent] == 0, \"A judge cannot be an opponent\");\n\t\trequire(msg.value >= MINIMUM_CASE_COLLATERAL, \"Must provide some coins as collateral\");\n\n\t\tcurrentCaseId++;\n\t\tCase newCase = (new Case){value:msg.value}(\n\t\t\tthis,\n\t\t\tmsg.sender,\n\t\t\topponent,\n\t\t\tproofHash,\n\t\t\tmsg.value);\n\t\tCases[currentCaseId] = newCase;\n\n\t\tlastCases[msg.sender] = currentCaseId;\n\t\tlastCases[opponent] = currentCaseId;\n\n\t\treturn currentCaseId;\n\t}\n\n\tfunction getCase(address participant) public view returns (CaseData memory) {\n\t\trequire(lastCases[participant] != 0, \"No cases\");\n\t\t\n\t\treturn Cases[lastCases[participant]].getCaseData();\n\t}\n\t\n\tfunction getCaseById(uint caseId) public view returns (CaseData memory) {\n\t\trequire(address(Cases[caseId]) != address(0x0), \"No case\");\n\t\treturn Cases[caseId].getCaseData();\n\t}\n\n\tfunction caseContract(uint caseId) public view returns (address) {\n\t\treturn address(Cases[caseId]);\n\t}\n\n\tfunction acceptCase(uint caseId, bytes32 proofHash) public payable {\n\t\trequire(Cases[caseId].isOpponent(msg.sender), \"This is not your case\");\n\t\t\n\t\tCases[caseId].acceptCase{value:msg.value}(proofHash);\n\t}\n\n\tfunction discloseProof(uint caseId, string calldata proof) public {\n\t\tif (Cases[caseId].isRequester(msg.sender)) {\n\t\t\tCases[caseId].discloseRequesterProof(proof);\n\t\t} else if (Cases[caseId].isOpponent(msg.sender)) {\n\t\t\tCases[caseId].discloseOpponentProof(proof);\n\t\t} else {\n\t\t\trevert(\"You are not related to this case\");\n\t\t}\n\n\t\tassignJudge(caseId);\n\t}\n\n\tfunction setDecision(uint caseId, bool win) public {\n\t\trequire(Cases[caseId].isJudge(msg.sender), \"You are not the judge\");\n\t\tCases[caseId].setDecision(win);\n\t}\n\n\tfunction appeal(uint caseId) public payable {\n\t\trequire(Cases[caseId].isRequester(msg.sender) || Cases[caseId].isOpponent(msg.sender), \"You are not related to this case\");\n\t\t\n\t\tCases[caseId].appeal{value:msg.value}(msg.sender);\n\t\tassignJudge(caseId);\n\t}\n\n\tfunction claim(uint caseId) public {\n\t\tCases[caseId].claim();\n\t}\n\n\tfunction assignJudge(uint caseId) private {\n\t\tuint judge = 0;\n\t\twhile (judge == 0 || JudgesData[judge].banned) { // keep rolling untill we find a judge\n\t\t\tjudge = (uint(keccak256(abi.encodePacked(blockhash(block.number - 1)))) % currentJudgeId) + 1;\n\t\t}\n\t\tif (Cases[caseId].assignJudge(JudgesData[judge].addr)) {\n\t\t\tlastCases[JudgesData[judge].addr] = caseId;\n\t\t}\n\t}\n}\n",
  "sourcePath": "C:\\Users\\msotn\\Desktop\\Crypto Judges\\contracts\\CryptoJudges.sol",
  "compiler": {
    "name": "solc",
    "version": "0.8.9+commit.e5eed63a.Emscripten.clang"
  },
  "schemaVersion": "3.4.3",
  "updatedAt": "2021-10-23T11:17:44.938Z",
  "devdoc": {
    "kind": "dev",
    "methods": {},
    "version": 1
  },
  "userdoc": {
    "kind": "user",
    "methods": {},
    "version": 1
  }
}