{
  "contractName": "CryptoJudges",
  "abi": [
    {
      "inputs": [],
      "stateMutability": "nonpayable",
      "type": "constructor"
    },
    {
      "inputs": [],
      "name": "registerJudge",
      "outputs": [],
      "stateMutability": "payable",
      "type": "function",
      "payable": true
    },
    {
      "inputs": [
        {
          "internalType": "address",
          "name": "judge",
          "type": "address"
        }
      ],
      "name": "reportGood",
      "outputs": [],
      "stateMutability": "nonpayable",
      "type": "function"
    },
    {
      "inputs": [
        {
          "internalType": "address",
          "name": "judge",
          "type": "address"
        }
      ],
      "name": "reportBad",
      "outputs": [],
      "stateMutability": "nonpayable",
      "type": "function"
    },
    {
      "inputs": [
        {
          "internalType": "address",
          "name": "opponent",
          "type": "address"
        },
        {
          "internalType": "string",
          "name": "description",
          "type": "string"
        },
        {
          "internalType": "bytes32",
          "name": "proofHash",
          "type": "bytes32"
        }
      ],
      "name": "createCase",
      "outputs": [
        {
          "internalType": "uint256",
          "name": "caseId",
          "type": "uint256"
        }
      ],
      "stateMutability": "payable",
      "type": "function",
      "payable": true
    },
    {
      "inputs": [
        {
          "internalType": "address",
          "name": "participant",
          "type": "address"
        }
      ],
      "name": "getCase",
      "outputs": [
        {
          "components": [
            {
              "internalType": "uint256",
              "name": "caseId",
              "type": "uint256"
            },
            {
              "components": [
                {
                  "internalType": "address",
                  "name": "addr",
                  "type": "address"
                },
                {
                  "internalType": "bytes32",
                  "name": "proofHash",
                  "type": "bytes32"
                },
                {
                  "internalType": "string",
                  "name": "proof",
                  "type": "string"
                },
                {
                  "internalType": "uint256",
                  "name": "collateral",
                  "type": "uint256"
                }
              ],
              "internalType": "struct CaseParticipant",
              "name": "requester",
              "type": "tuple"
            },
            {
              "components": [
                {
                  "internalType": "address",
                  "name": "addr",
                  "type": "address"
                },
                {
                  "internalType": "bytes32",
                  "name": "proofHash",
                  "type": "bytes32"
                },
                {
                  "internalType": "string",
                  "name": "proof",
                  "type": "string"
                },
                {
                  "internalType": "uint256",
                  "name": "collateral",
                  "type": "uint256"
                }
              ],
              "internalType": "struct CaseParticipant",
              "name": "opponent",
              "type": "tuple"
            },
            {
              "internalType": "address[]",
              "name": "judges",
              "type": "address[]"
            },
            {
              "internalType": "uint256",
              "name": "judgesRequired",
              "type": "uint256"
            },
            {
              "internalType": "string",
              "name": "description",
              "type": "string"
            },
            {
              "internalType": "enum CaseStates",
              "name": "state",
              "type": "uint8"
            },
            {
              "internalType": "uint256",
              "name": "tally",
              "type": "uint256"
            },
            {
              "internalType": "uint256",
              "name": "votes",
              "type": "uint256"
            },
            {
              "internalType": "uint256",
              "name": "baseCollateral",
              "type": "uint256"
            },
            {
              "internalType": "uint256",
              "name": "expiration",
              "type": "uint256"
            }
          ],
          "internalType": "struct CaseData",
          "name": "",
          "type": "tuple"
        }
      ],
      "stateMutability": "view",
      "type": "function",
      "constant": true
    },
    {
      "inputs": [
        {
          "internalType": "uint256",
          "name": "caseId",
          "type": "uint256"
        }
      ],
      "name": "getCaseById",
      "outputs": [
        {
          "components": [
            {
              "internalType": "uint256",
              "name": "caseId",
              "type": "uint256"
            },
            {
              "components": [
                {
                  "internalType": "address",
                  "name": "addr",
                  "type": "address"
                },
                {
                  "internalType": "bytes32",
                  "name": "proofHash",
                  "type": "bytes32"
                },
                {
                  "internalType": "string",
                  "name": "proof",
                  "type": "string"
                },
                {
                  "internalType": "uint256",
                  "name": "collateral",
                  "type": "uint256"
                }
              ],
              "internalType": "struct CaseParticipant",
              "name": "requester",
              "type": "tuple"
            },
            {
              "components": [
                {
                  "internalType": "address",
                  "name": "addr",
                  "type": "address"
                },
                {
                  "internalType": "bytes32",
                  "name": "proofHash",
                  "type": "bytes32"
                },
                {
                  "internalType": "string",
                  "name": "proof",
                  "type": "string"
                },
                {
                  "internalType": "uint256",
                  "name": "collateral",
                  "type": "uint256"
                }
              ],
              "internalType": "struct CaseParticipant",
              "name": "opponent",
              "type": "tuple"
            },
            {
              "internalType": "address[]",
              "name": "judges",
              "type": "address[]"
            },
            {
              "internalType": "uint256",
              "name": "judgesRequired",
              "type": "uint256"
            },
            {
              "internalType": "string",
              "name": "description",
              "type": "string"
            },
            {
              "internalType": "enum CaseStates",
              "name": "state",
              "type": "uint8"
            },
            {
              "internalType": "uint256",
              "name": "tally",
              "type": "uint256"
            },
            {
              "internalType": "uint256",
              "name": "votes",
              "type": "uint256"
            },
            {
              "internalType": "uint256",
              "name": "baseCollateral",
              "type": "uint256"
            },
            {
              "internalType": "uint256",
              "name": "expiration",
              "type": "uint256"
            }
          ],
          "internalType": "struct CaseData",
          "name": "",
          "type": "tuple"
        }
      ],
      "stateMutability": "view",
      "type": "function",
      "constant": true
    },
    {
      "inputs": [
        {
          "internalType": "uint256",
          "name": "caseId",
          "type": "uint256"
        }
      ],
      "name": "caseContract",
      "outputs": [
        {
          "internalType": "address",
          "name": "",
          "type": "address"
        }
      ],
      "stateMutability": "view",
      "type": "function",
      "constant": true
    },
    {
      "inputs": [
        {
          "internalType": "uint256",
          "name": "caseId",
          "type": "uint256"
        },
        {
          "internalType": "bytes32",
          "name": "proofHash",
          "type": "bytes32"
        }
      ],
      "name": "acceptCase",
      "outputs": [],
      "stateMutability": "payable",
      "type": "function",
      "payable": true
    },
    {
      "inputs": [
        {
          "internalType": "uint256",
          "name": "caseId",
          "type": "uint256"
        },
        {
          "internalType": "string",
          "name": "proof",
          "type": "string"
        }
      ],
      "name": "discloseProof",
      "outputs": [],
      "stateMutability": "nonpayable",
      "type": "function"
    },
    {
      "inputs": [
        {
          "internalType": "uint256",
          "name": "caseId",
          "type": "uint256"
        },
        {
          "internalType": "bool",
          "name": "win",
          "type": "bool"
        }
      ],
      "name": "setDecision",
      "outputs": [],
      "stateMutability": "nonpayable",
      "type": "function"
    },
    {
      "inputs": [
        {
          "internalType": "uint256",
          "name": "caseId",
          "type": "uint256"
        }
      ],
      "name": "appeal",
      "outputs": [],
      "stateMutability": "payable",
      "type": "function",
      "payable": true
    },
    {
      "inputs": [
        {
          "internalType": "uint256",
          "name": "caseId",
          "type": "uint256"
        }
      ],
      "name": "claim",
      "outputs": [],
      "stateMutability": "nonpayable",
      "type": "function"
    }
  ],
  "bytecode": "0x608060405234801561001057600080fd5b5060006002819055600555613c918061002a6000396000f3fe608060405260043610620000b45760003560e01c80638d5cf4d8116200006c5780638d5cf4d814620001a857806393e0ea0314620001cd578063a33338f714620001f2578063e04c3a7e1462000218578063e2c3b374146200023d578063f3181bff146200026257600080fd5b806228434e14620000b95780630d9de3f714620000c5578063272ba1c41462000102578063379607f514620001195780635a08dce6146200013e5780637e69b7b01462000191575b600080fd5b620000c362000287565b005b348015620000d257600080fd5b50620000ea620000e4366004620012c9565b620003da565b604051620000f9919062001417565b60405180910390f35b620000c362000113366004620014fd565b620004d5565b3480156200012657600080fd5b50620000c36200013836600462001520565b6200061a565b3480156200014b57600080fd5b50620001786200015d36600462001520565b6000908152600360205260409020546001600160a01b031690565b6040516001600160a01b039091168152602001620000f9565b620000c3620001a236600462001520565b62000683565b348015620001b557600080fd5b50620000c3620001c7366004620012c9565b6200086c565b348015620001da57600080fd5b50620000c3620001ec36600462001549565b620008ac565b6200020962000203366004620015c8565b620009f6565b604051908152602001620000f9565b3480156200022557600080fd5b50620000c3620002373660046200162a565b62000bd9565b3480156200024a57600080fd5b50620000ea6200025c36600462001520565b62000e12565b3480156200026f57600080fd5b50620000c362000281366004620012c9565b62000eb8565b3360009081526001602052604090205415620002ea5760405162461bcd60e51b815260206004820152601f60248201527f54686973206164647265737320697320616c72656164792061206a756467650060448201526064015b60405180910390fd5b655af3107a400034146200033a5760405162461bcd60e51b8152602060048201526016602482015275125b9d985b1a59081cdd185ad9481c1c9bdd9a59195960521b6044820152606401620002e1565b600280549060006200034c8362001690565b9091555050604080516080810182523380825260646020808401918252655af3107a4000848601908152600060608601818152600280548352828552888320975188546001600160a01b0319166001600160a01b039091161788559451600180890191909155925187860155516003909601805460ff19169615159690961790955591549284525291902055565b620003e4620011e0565b6001600160a01b038216600090815260046020526040902054620004365760405162461bcd60e51b81526020600482015260086024820152674e6f20636173657360c01b6044820152606401620002e1565b6001600160a01b0380831660009081526004602081815260408084205484526003909152808320548151632f5751d960e11b81529151941693635eaea3b293828401939092829003018186803b1580156200049057600080fd5b505afa158015620004a5573d6000803e3d6000fd5b505050506040513d6000823e601f3d908101601f19168201604052620004cf9190810190620018db565b92915050565b6000828152600360205260409081902054905163d0f63a6360e01b81523360048201526001600160a01b039091169063d0f63a639060240160206040518083038186803b1580156200052657600080fd5b505afa1580156200053b573d6000803e3d6000fd5b505050506040513d601f19601f8201168201806040525081019062000561919062001a1a565b620005a75760405162461bcd60e51b815260206004820152601560248201527454686973206973206e6f7420796f7572206361736560581b6044820152606401620002e1565b600082815260036020526040908190205490516309896d2560e41b8152600481018390526001600160a01b0390911690639896d2509034906024016000604051808303818588803b158015620005fc57600080fd5b505af115801562000611573d6000803e3d6000fd5b50505050505050565b600081815260036020526040808220548151634e71d92d60e01b815291516001600160a01b0390911692634e71d92d926004808201939182900301818387803b1580156200066757600080fd5b505af11580156200067c573d6000803e3d6000fd5b5050505050565b60008181526003602052604090819020549051630252917760e01b81523360048201526001600160a01b039091169063025291779060240160206040518083038186803b158015620006d457600080fd5b505afa158015620006e9573d6000803e3d6000fd5b505050506040513d601f19601f820116820180604052508101906200070f919062001a1a565b80620007a257506000818152600360205260409081902054905163d0f63a6360e01b81523360048201526001600160a01b039091169063d0f63a639060240160206040518083038186803b1580156200076757600080fd5b505afa1580156200077c573d6000803e3d6000fd5b505050506040513d601f19601f82011682018060405250810190620007a2919062001a1a565b620007f05760405162461bcd60e51b815260206004820181905260248201527f596f7520617265206e6f742072656c6174656420746f207468697320636173656044820152606401620002e1565b6000818152600360205260409081902054905163181a7d0960e31b81523360048201526001600160a01b039091169063c0d3e8489034906024016000604051808303818588803b1580156200084457600080fd5b505af115801562000859573d6000803e3d6000fd5b5050505050620008698162000f61565b50565b6001600160a01b0381166000908152600160208181526040808420548452908390528220018054600a9290620008a490849062001a3a565b909155505050565b600082815260036020526040908190205490516376c4b6b360e11b81523360048201526001600160a01b039091169063ed896d669060240160206040518083038186803b158015620008fd57600080fd5b505afa15801562000912573d6000803e3d6000fd5b505050506040513d601f19601f8201168201806040525081019062000938919062001a1a565b6200097e5760405162461bcd60e51b8152602060048201526015602482015274596f7520617265206e6f7420746865206a7564676560581b6044820152606401620002e1565b600082815260036020526040908190205490516377f29b1b60e01b815282151560048201523360248201526001600160a01b03909116906377f29b1b90604401600060405180830381600087803b158015620009d957600080fd5b505af1158015620009ee573d6000803e3d6000fd5b505050505050565b336000908152600160205260408120541562000a555760405162461bcd60e51b815260206004820152601a60248201527f41206a756467652063616e6e6f74206f70656e206120636173650000000000006044820152606401620002e1565b6001600160a01b0385166000908152600160205260409020541562000abd5760405162461bcd60e51b815260206004820152601d60248201527f41206a756467652063616e6e6f7420626520616e206f70706f6e656e740000006044820152606401620002e1565b633b9aca0034101562000b215760405162461bcd60e51b815260206004820152602560248201527f4d7573742070726f7669646520736f6d6520636f696e7320617320636f6c6c616044820152641d195c985b60da1b6064820152608401620002e1565b6005805490600062000b338362001690565b91905055506000343060055433898989893460405162000b5390620012a5565b62000b6698979695949392919062001a7e565b6040518091039082f090508015801562000b84573d6000803e3d6000fd5b5060058054600090815260036020908152604080832080546001600160a01b0319166001600160a01b039687161790559254338352600490915282822081905598909216825290208690555093949350505050565b60008381526003602052604090819020549051630252917760e01b81523360048201526001600160a01b039091169063025291779060240160206040518083038186803b15801562000c2a57600080fd5b505afa15801562000c3f573d6000803e3d6000fd5b505050506040513d601f19601f8201168201806040525081019062000c65919062001a1a565b1562000ce65760008381526003602052604090819020549051630befd51f60e01b81526001600160a01b0390911690630befd51f9062000cac908590859060040162001ad3565b600060405180830381600087803b15801562000cc757600080fd5b505af115801562000cdc573d6000803e3d6000fd5b5050505062000e02565b6000838152600360205260409081902054905163d0f63a6360e01b81523360048201526001600160a01b039091169063d0f63a639060240160206040518083038186803b15801562000d3757600080fd5b505afa15801562000d4c573d6000803e3d6000fd5b505050506040513d601f19601f8201168201806040525081019062000d72919062001a1a565b1562000db95760008381526003602052604090819020549051633578409b60e11b81526001600160a01b0390911690636af081369062000cac908590859060040162001ad3565b60405162461bcd60e51b815260206004820181905260248201527f596f7520617265206e6f742072656c6174656420746f207468697320636173656044820152606401620002e1565b62000e0d8362000f61565b505050565b62000e1c620011e0565b6000828152600360205260409020546001600160a01b031662000e6c5760405162461bcd60e51b81526020600482015260076024820152664e6f206361736560c81b6044820152606401620002e1565b600082815260036020526040808220548151632f5751d960e11b815291516001600160a01b0390911692635eaea3b29260048082019391829003018186803b1580156200049057600080fd5b6001600160a01b0381166000908152600160208181526040808420548085529184905290922001546032111562000f345760008181526020819052604080822060038101805460ff1916600117905560020154905181156108fc02919083818181858288f1935050505015801562000e0d573d6000803e3d6000fd5b600081815260208190526040812060010180546032929062000f5890849062001ae9565b90915550505050565b600081815260036020908152604091829020548251630990460560e21b815292516001600160a01b03909116926326411814926004808301939192829003018186803b15801562000fb157600080fd5b505afa15801562000fc6573d6000803e3d6000fd5b505050506040513d601f19601f8201168201806040525081019062000fec919062001a1a565b15620008695760005b80158062001014575060008181526020819052604090206003015460ff165b80620010b5575060008281526003602090815260408083205484845291839052918290205491516376c4b6b360e11b81526001600160a01b03928316600482015291169063ed896d669060240160206040518083038186803b1580156200107a57600080fd5b505afa1580156200108f573d6000803e3d6000fd5b505050506040513d601f19601f82011682018060405250810190620010b5919062001a1a565b156200111157600254620010cb60014362001ae9565b6040805191406020830152016040516020818303038152906040528051906020012060001c620010fc919062001b03565b6200110990600162001a3a565b905062000ff5565b600082815260036020908152604080832054848452918390529182902054915163ca04ddcb60e01b81526001600160a01b03928316600482015291169063ca04ddcb90602401602060405180830381600087803b1580156200117257600080fd5b505af115801562001187573d6000803e3d6000fd5b505050506040513d601f19601f82011682018060405250810190620011ad919062001a1a565b15620011d957600081815260208181526040808320546001600160a01b03168352600490915290208290555b5062000f61565b604051806101600160405280600081526020016200122b604051806080016040528060006001600160a01b031681526020016000801916815260200160608152602001600081525090565b81526040805160808101825260008082526020828101829052606093830184905292820152910190815260200160608152602001600081526020016060815260200160006008811115620012835762001283620013de565b8152602001600081526020016000815260200160008152602001600081525090565b6121358062001b2783390190565b6001600160a01b03811681146200086957600080fd5b600060208284031215620012dc57600080fd5b8135620012e981620012b3565b9392505050565b60005b838110156200130d578181015183820152602001620012f3565b838111156200131d576000848401525b50505050565b600081518084526200133d816020860160208601620012f0565b601f01601f19169290920160200192915050565b60018060a01b03815116825260208101516020830152600060408201516080604085015262001384608085018262001323565b606093840151949093019390935250919050565b600081518084526020808501945080840160005b83811015620013d35781516001600160a01b031687529582019590820190600101620013ac565b509495945050505050565b634e487b7160e01b600052602160045260246000fd5b600981106200141357634e487b7160e01b600052602160045260246000fd5b9052565b6020815281516020820152600060208301516101608060408501526200144261018085018362001351565b91506040850151601f198086850301606087015262001462848362001351565b9350606087015191508086850301608087015262001481848362001398565b9350608087015160a087015260a08701519150808685030160c087015250620014ab838262001323565b92505060c0850151620014c260e0860182620013f4565b5060e0850151610100858101919091528501516101208086019190915285015161014080860191909152909401519390920192909252919050565b600080604083850312156200151157600080fd5b50508035926020909101359150565b6000602082840312156200153357600080fd5b5035919050565b80151581146200086957600080fd5b600080604083850312156200155d57600080fd5b82359150602083013562001571816200153a565b809150509250929050565b60008083601f8401126200158f57600080fd5b50813567ffffffffffffffff811115620015a857600080fd5b602083019150836020828501011115620015c157600080fd5b9250929050565b60008060008060608587031215620015df57600080fd5b8435620015ec81620012b3565b9350602085013567ffffffffffffffff8111156200160957600080fd5b62001617878288016200157c565b9598909750949560400135949350505050565b6000806000604084860312156200164057600080fd5b83359250602084013567ffffffffffffffff8111156200165f57600080fd5b6200166d868287016200157c565b9497909650939450505050565b634e487b7160e01b600052601160045260246000fd5b6000600019821415620016a757620016a76200167a565b5060010190565b634e487b7160e01b600052604160045260246000fd5b604051610160810167ffffffffffffffff81118282101715620016eb57620016eb620016ae565b60405290565b604051601f8201601f1916810167ffffffffffffffff811182821017156200171d576200171d620016ae565b604052919050565b600082601f8301126200173757600080fd5b815167ffffffffffffffff811115620017545762001754620016ae565b62001769601f8201601f1916602001620016f1565b8181528460208386010111156200177f57600080fd5b62001792826020830160208701620012f0565b949350505050565b600060808284031215620017ad57600080fd5b6040516080810167ffffffffffffffff8282108183111715620017d457620017d4620016ae565b8160405282935084519150620017ea82620012b3565b8183526020850151602084015260408501519150808211156200180c57600080fd5b506200181b8582860162001725565b604083015250606083015160608201525092915050565b600082601f8301126200184457600080fd5b8151602067ffffffffffffffff821115620018635762001863620016ae565b8160051b62001874828201620016f1565b92835284810182019282810190878511156200188f57600080fd5b83870192505b84831015620018bb578251620018ab81620012b3565b8252918301919083019062001895565b979650505050505050565b805160098110620018d657600080fd5b919050565b600060208284031215620018ee57600080fd5b815167ffffffffffffffff808211156200190757600080fd5b9083019061016082860312156200191d57600080fd5b62001927620016c4565b825181526020830151828111156200193e57600080fd5b6200194c878286016200179a565b6020830152506040830151828111156200196557600080fd5b62001973878286016200179a565b6040830152506060830151828111156200198c57600080fd5b6200199a8782860162001832565b6060830152506080830151608082015260a083015182811115620019bd57600080fd5b620019cb8782860162001725565b60a083015250620019df60c08401620018c6565b60c082015260e08381015190820152610100808401519082015261012080840151908201526101409283015192810192909252509392505050565b60006020828403121562001a2d57600080fd5b8151620012e9816200153a565b6000821982111562001a505762001a506200167a565b500190565b81835281816020850137506000828201602090810191909152601f909101601f19169091010190565b6001600160a01b0389811682526020820189905287811660408301528616606082015260e06080820181905260009062001abc908301868862001a55565b60a08301949094525060c001529695505050505050565b6020815260006200179260208301848662001a55565b60008282101562001afe5762001afe6200167a565b500390565b60008262001b2157634e487b7160e01b600052601260045260246000fd5b50069056fe60806040526040516200213538038062002135833981016040819052620000269162000498565b8034146200007a5760405162461bcd60e51b815260206004820152601b60248201527f496e76616c696420636f6c6c61746572616c2070726f76696465640000000000604482015260640160405180910390fd5b86601260006101000a8154816001600160a01b0302191690836001600160a01b031602179055506040518061016001604052808781526020016040518060800160405280886001600160a01b031681526020018581526020016040518060200160405280600081525081526020018481525081526020016040518060800160405280876001600160a01b03168152602001600080191681526020016040518060200160405280600081525081526020016000815250815260200160006001600160401b0381111562000150576200015062000482565b6040519080825280602002602001820160405280156200017a578160200160208202803683370190505b5081526020016001815260200184815260200160016008811115620001a357620001a3620005d5565b8152602001600081526020016000815260200182815260200161025842620001cc9190620005eb565b9052805160009081556020808301518051600180546001600160a01b0319166001600160a01b039092169190911781558183015160025560408201518051929391926200021e9260039201906200036b565b506060919091015160039091015560408281015180516005840180546001600160a01b0319166001600160a01b039092169190911781556020808301516006860155928201518051929391926200027c92600787019201906200036b565b506060918201516003909101558201518051620002a4916009840191602090910190620003fa565b506080820151600a82015560a08201518051620002cc91600b8401916020909101906200036b565b5060c0820151600c8201805460ff19166001836008811115620002f357620002f3620005d5565b021790555060e0820151600d820155610100820151600e820155610120820151600f820155610140909101516010909101556040516001600160a01b0380861691908716907fb957e4dc3b04409e6c4b14ee40d0d8e5efe8caf593e96b517b5afcdbbc7ff32690600090a3505050505050506200064f565b828054620003799062000612565b90600052602060002090601f0160209004810192826200039d5760008555620003e8565b82601f10620003b857805160ff1916838001178555620003e8565b82800160010185558215620003e8579182015b82811115620003e8578251825591602001919060010190620003cb565b50620003f692915062000452565b5090565b828054828255906000526020600020908101928215620003e8579160200282015b82811115620003e857825182546001600160a01b0319166001600160a01b039091161782556020909201916001909101906200041b565b5b80821115620003f6576000815560010162000453565b6001600160a01b03811681146200047f57600080fd5b50565b634e487b7160e01b600052604160045260246000fd5b600080600080600080600060e0888a031215620004b457600080fd5b8751620004c18162000469565b8097505060208089015196506040890151620004dd8162000469565b60608a0151909650620004f08162000469565b60808a01519095506001600160401b03808211156200050e57600080fd5b818b0191508b601f8301126200052357600080fd5b81518181111562000538576200053862000482565b604051601f8201601f19908116603f0116810190838211818310171562000563576200056362000482565b816040528281528e868487010111156200057c57600080fd5b600093505b82841015620005a0578484018601518185018701529285019262000581565b82841115620005b25760008684830101525b80985050505050505060a0880151915060c0880151905092959891949750929550565b634e487b7160e01b600052602160045260246000fd5b600082198211156200060d57634e487b7160e01b600052601160045260246000fd5b500190565b600181811c908216806200062757607f821691505b602082108114156200064957634e487b7160e01b600052602260045260246000fd5b50919050565b611ad6806200065f6000396000f3fe6080604052600436106100c25760003560e01c80636af081361161007f578063c0d3e84811610059578063c0d3e848146101e3578063ca04ddcb146101f6578063d0f63a6314610216578063ed896d661461024557600080fd5b80636af081361461019057806377f29b1b146101b05780639896d250146101d057600080fd5b806302529177146100c75780630befd51f1461010b578063264118141461012d5780632f13b60c146101425780634e71d92d146101595780635eaea3b21461016e575b600080fd5b3480156100d357600080fd5b506100f66100e23660046116b5565b6001546001600160a01b0390811691161490565b60405190151581526020015b60405180910390f35b34801561011757600080fd5b5061012b6101263660046116d7565b610265565b005b34801561013957600080fd5b506100f6610479565b34801561014e57600080fd5b5060105442116100f6565b34801561016557600080fd5b5061012b6104a9565b34801561017a57600080fd5b50610183610504565b6040516101029190611857565b34801561019c57600080fd5b5061012b6101ab3660046116d7565b610816565b3480156101bc57600080fd5b5061012b6101cb366004611933565b6109b5565b61012b6101de36600461196d565b610bc0565b61012b6101f13660046116b5565b610ceb565b34801561020257600080fd5b506100f66102113660046116b5565b610ea5565b34801561022257600080fd5b506100f66102313660046116b5565b6005546001600160a01b0390811691161490565b34801561025157600080fd5b506100f66102603660046116b5565b610f91565b60105442111561027b57610277610ffe565b5050565b6012546001600160a01b031633146102ae5760405162461bcd60e51b81526004016102a590611986565b60405180910390fd5b6002600c5460ff1660088111156102c7576102c761181f565b14806102e957506003600c5460ff1660088111156102e7576102e761181f565b145b6103355760405162461bcd60e51b815260206004820181905260248201527f54686973206361736520646f6573206e6f74206163636570742070726f6f667360448201526064016102a5565b61033f60016113b2565b1561038c5760405162461bcd60e51b815260206004820152601d60248201527f5468652070726f6f6620697320616c72656164792070726f766964656400000060448201526064016102a5565b6002546040516103a290849084906020016119b5565b60405160208183030381529060405280519060200120146104055760405162461bcd60e51b815260206004820152601f60248201527f50726f6f6620646f6573206e6f74206d617463682070726f6f6620686173680060448201526064016102a5565b610411600383836114ef565b50600c5460ff1660088111156104295761042961181f565b6104349060016119db565b60088111156104455761044561181f565b600c805460ff191660018360088111156104615761046161181f565b0217905550610472610258426119db565b6010555050565b60006004600c5460ff1660088111156104945761049461181f565b1480156104a45750600a54600954105b905090565b60105442116104fa5760405162461bcd60e51b815260206004820152601760248201527f5468652063617365206973206e6f74206578706972656400000000000000000060448201526064016102a5565b610502610ffe565b565b61050c611573565b60408051610160810182526000805482528251608081018452600180546001600160a01b03168252600254602083810191909152600380549596949591870194840191610558906119f3565b80601f0160208091040260200160405190810160405280929190818152602001828054610584906119f3565b80156105d15780601f106105a6576101008083540402835291602001916105d1565b820191906000526020600020905b8154815290600101906020018083116105b457829003601f168201915b505050918352505060039190910154602091820152908252604080516080810182526005850180546001600160a01b03168252600686015482850152600786018054959094019491939092840191610628906119f3565b80601f0160208091040260200160405190810160405280929190818152602001828054610654906119f3565b80156106a15780601f10610676576101008083540402835291602001916106a1565b820191906000526020600020905b81548152906001019060200180831161068457829003601f168201915b5050505050815260200160038201548152505081526020016009820180548060200260200160405190810160405280929190818152602001828054801561071157602002820191906000526020600020905b81546001600160a01b031681526001909101906020018083116106f3575b50505050508152602001600a8201548152602001600b82018054610734906119f3565b80601f0160208091040260200160405190810160405280929190818152602001828054610760906119f3565b80156107ad5780601f10610782576101008083540402835291602001916107ad565b820191906000526020600020905b81548152906001019060200180831161079057829003601f168201915b5050509183525050600c82015460209091019060ff1660088111156107d4576107d461181f565b60088111156107e5576107e561181f565b8152602001600d8201548152602001600e8201548152602001600f8201548152602001601082015481525050905090565b60105442111561082857610277610ffe565b6012546001600160a01b031633146108525760405162461bcd60e51b81526004016102a590611986565b6002600c5460ff16600881111561086b5761086b61181f565b148061088d57506003600c5460ff16600881111561088b5761088b61181f565b145b6108d95760405162461bcd60e51b815260206004820181905260248201527f54686973206361736520646f6573206e6f74206163636570742070726f6f667360448201526064016102a5565b6108e360056113b2565b156109305760405162461bcd60e51b815260206004820152601d60248201527f5468652070726f6f6620697320616c72656164792070726f766964656400000060448201526064016102a5565b60065460405161094690849084906020016119b5565b60405160208183030381529060405280519060200120146109a95760405162461bcd60e51b815260206004820152601f60248201527f50726f6f6620646f6573206e6f74206d617463682070726f6f6620686173680060448201526064016102a5565b610411600783836114ef565b6010544211156109c757610277610ffe565b6012546001600160a01b031633146109f15760405162461bcd60e51b81526004016102a590611986565b6004600c5460ff166008811115610a0a57610a0a61181f565b14610a575760405162461bcd60e51b815260206004820152601d60248201527f546869732063617365206973206e6f74206265696e67206a756467656400000060448201526064016102a5565b6001600160a01b03811660009081526011602052604090205460ff16610ab65760405162461bcd60e51b8152602060048201526014602482015273151a1a5cc81a9d5919d9481a185cc81d9bdd195960621b60448201526064016102a5565b8115610ad85760016000600d016000828254610ad291906119db565b90915550505b6001600160a01b0381166000908152601160205260408120805460ff19169055600e805460019290610b0b9084906119db565b9091555050600a54600e541415610b5357600a54610b2b90600290611a2e565b600d5410610b4557600c805460ff19166005179055610b53565b600c805460ff191660061790555b6012546040516311ab9e9b60e31b81526001600160a01b03838116600483015290911690638d5cf4d890602401600060405180830381600087803b158015610b9a57600080fd5b505af1158015610bae573d6000803e3d6000fd5b505050506102584261047291906119db565b601054421115610bd557610bd2610ffe565b50565b6012546001600160a01b03163314610bff5760405162461bcd60e51b81526004016102a590611986565b6001600c5460ff166008811115610c1857610c1861181f565b14610c2257600080fd5b600f543414610c825760405162461bcd60e51b815260206004820152602660248201527f50726f766964652074686520726967687420616d6f756e74206f6620636f6c6c604482015265185d195c985b60d21b60648201526084016102a5565b6006819055600f54600855600c805460ff191660021790556005546001546040516001600160a01b0392831692909116907fdd5f05630ec0ad93ddee9d95393a7402ae7eac8de7af06b03249fee0478b876d90600090a3610ce5610258426119db565b60105550565b601054421115610cfd57610bd2610ffe565b6012546001600160a01b03163314610d275760405162461bcd60e51b81526004016102a590611986565b6005600c5460ff166008811115610d4057610d4061181f565b1480610d6257506006600c5460ff166008811115610d6057610d6061181f565b145b610dae5760405162461bcd60e51b815260206004820152601b60248201527f54686520636173652063616e6e6f742062652061707065616c6564000000000060448201526064016102a5565b600f54610dbc906003611a50565b3414610dc757600080fd5b6001546001600160a01b0382811691161415610dfd5760048054349190600090610df29084906119db565b90915550610e2e9050565b6005546001600160a01b0382811691161415610e2e5760088054349190600090610e289084906119db565b90915550505b60036000600f016000828254610e449190611a50565b9091555050600a805460039190600090610e5f908490611a50565b90915550506040805160008152602081019182905251610e8191600991611634565b506000600d819055600e55600c805460ff19166004179055610ce5610258426119db565b6000610eb2601054421190565b15610ec457610ebf610ffe565b919050565b6012546001600160a01b03163314610eee5760405162461bcd60e51b81526004016102a590611986565b6004600c5460ff166008811115610f0757610f0761181f565b148015610f1a5750610f1882610f91565b155b15610f8957506001600160a01b03166000818152601160205260408120805460ff1916600190811790915560098054808301825592527f6e1540171b6c0c960b71a7020d9f60077f6af931a8bbf590da0223dacf75c7af90910180546001600160a01b03191690921790915590565b506000919050565b6000805b600954811015610ff557826001600160a01b031660006009018281548110610fbf57610fbf611a6f565b6000918252602090912001546001600160a01b03161415610fe35750600192915050565b80610fed81611a85565b915050610f95565b50600092915050565b6001600c5460ff1660088111156110175761101761181f565b148061103957506002600c5460ff1660088111156110375761103761181f565b145b1561107e57600c805460ff191660071790556110536113ce565b6040517f3b0a072432f66c2c62b2ffa05c0384d649697f4a86708232650b4b37372f232c90600090a1565b6003600c5460ff1660088111156110975761109761181f565b141561114e5760006110a960056113b2565b156110c057506005546001600160a01b03166110dd565b6110ca60016113b2565b156110dd57506001546001600160a01b03165b600c8054600760ff199091161790556040516001600160a01b038216904780156108fc02916000818181858888f19350505050158015611121573d6000803e3d6000fd5b506040517f3b0a072432f66c2c62b2ffa05c0384d649697f4a86708232650b4b37372f232c90600090a150565b6004600c5460ff1660088111156111675761116761181f565b14156112a357600c805460ff191660071790556111826113ce565b60005b60095481101561127757601160008060090183815481106111a8576111a8611a6f565b60009182526020808320909101546001600160a01b0316835282019290925260400190205460ff161561126557601254600980546001600160a01b039092169163f3181bff9190849081106111ff576111ff611a6f565b60009182526020909120015460405160e083901b6001600160e01b03191681526001600160a01b039091166004820152602401600060405180830381600087803b15801561124c57600080fd5b505af1158015611260573d6000803e3d6000fd5b505050505b8061126f81611a85565b915050611185565b506040517f3b0a072432f66c2c62b2ffa05c0384d649697f4a86708232650b4b37372f232c90600090a1565b6005600c5460ff1660088111156112bc576112bc61181f565b141561134157600c805460ff19166008908117909155546112dc90611458565b6001546040516001600160a01b03909116904780156108fc02916000818181858888f19350505050158015611315573d6000803e3d6000fd5b506040517f9ab8bf53a18ac51a5a24e74d7dcf0f9e8f30c86b3009a4934fb1489632e7953e90600090a1565b6006600c5460ff16600881111561135a5761135a61181f565b141561050257600c805460ff1916600817905560045461137990611458565b6005546040516001600160a01b03909116904780156108fc02916000818181858888f19350505050158015611315573d6000803e3d6000fd5b6000808260020180546113c4906119f3565b9050119050919050565b60045415611414576001546004546040516001600160a01b039092169181156108fc0291906000818181858888f19350505050158015611412573d6000803e3d6000fd5b505b60085415610502576005546008546040516001600160a01b039092169181156108fc0291906000818181858888f19350505050158015610bd2573d6000803e3d6000fd5b6000620186a061146a6103e884611a50565b6114749190611a2e565b905060005b6009548110156114ea57600980548290811061149757611497611a6f565b60009182526020822001546040516001600160a01b039091169184156108fc02918591818181858888f193505050501580156114d7573d6000803e3d6000fd5b50806114e281611a85565b915050611479565b505050565b8280546114fb906119f3565b90600052602060002090601f01602090048101928261151d5760008555611563565b82601f106115365782800160ff19823516178555611563565b82800160010185558215611563579182015b82811115611563578235825591602001919060010190611548565b5061156f929150611689565b5090565b604051806101600160405280600081526020016115bd604051806080016040528060006001600160a01b031681526020016000801916815260200160608152602001600081525090565b815260408051608081018252600080825260208281018290526060938301849052928201529101908152602001606081526020016000815260200160608152602001600060088111156116125761161261181f565b8152602001600081526020016000815260200160008152602001600081525090565b828054828255906000526020600020908101928215611563579160200282015b8281111561156357825182546001600160a01b0319166001600160a01b03909116178255602090920191600190910190611654565b5b8082111561156f576000815560010161168a565b80356001600160a01b0381168114610ebf57600080fd5b6000602082840312156116c757600080fd5b6116d08261169e565b9392505050565b600080602083850312156116ea57600080fd5b823567ffffffffffffffff8082111561170257600080fd5b818501915085601f83011261171657600080fd5b81358181111561172557600080fd5b86602082850101111561173757600080fd5b60209290920196919550909350505050565b6000815180845260005b8181101561176f57602081850181015186830182015201611753565b81811115611781576000602083870101525b50601f01601f19169290920160200192915050565b60018060a01b0381511682526020810151602083015260006040820151608060408501526117c76080850182611749565b606093840151949093019390935250919050565b600081518084526020808501945080840160005b838110156118145781516001600160a01b0316875295820195908201906001016117ef565b509495945050505050565b634e487b7160e01b600052602160045260246000fd5b6009811061185357634e487b7160e01b600052602160045260246000fd5b9052565b602081528151602082015260006020830151610160806040850152611880610180850183611796565b91506040850151601f198086850301606087015261189e8483611796565b935060608701519150808685030160808701526118bb84836117db565b9350608087015160a087015260a08701519150808685030160c0870152506118e38382611749565b92505060c08501516118f860e0860182611835565b5060e0850151610100858101919091528501516101208086019190915285015161014080860191909152909401519390920192909252919050565b6000806040838503121561194657600080fd5b8235801515811461195657600080fd5b91506119646020840161169e565b90509250929050565b60006020828403121561197f57600080fd5b5035919050565b602080825260159082015274125b9d985b1a5908199d5b98dd1a5bdb8818d85b1b605a1b604082015260600190565b8183823760009101908152919050565b634e487b7160e01b600052601160045260246000fd5b600082198211156119ee576119ee6119c5565b500190565b600181811c90821680611a0757607f821691505b60208210811415611a2857634e487b7160e01b600052602260045260246000fd5b50919050565b600082611a4b57634e487b7160e01b600052601260045260246000fd5b500490565b6000816000190483118215151615611a6a57611a6a6119c5565b500290565b634e487b7160e01b600052603260045260246000fd5b6000600019821415611a9957611a996119c5565b506001019056fea26469706673582212209c92ecf8dbeeee94b1a295c7e6121a53f0a27eddeb8de7a4b33c972632f5970764736f6c63430008090033a2646970667358221220586ec6cea094151f6e97cc623b1ba7eac240cfc12ca154e9ac2a640f6d5e966a64736f6c63430008090033",
  "immutableReferences": {},
  "source": "// SPDX-License-Identifier: MIT\npragma solidity 0.8.9;\nimport './IJudgeManager.sol';\nimport './Case.sol';\n\ncontract CryptoJudges is IJudgeManager {\n\tstruct Judge {\n\t\taddress addr;\n\t\tuint score;\n\t\tuint stake;\n\t\tbool banned;\n\t}\n\n\tmapping (uint => Judge) JudgesData;\n\tmapping (address => uint) Judges;\n\tuint currentJudgeId;\n\n\tmapping (uint => Case) Cases;\n\tmapping (address => uint) lastCases;\n\tuint currentCaseId;\n\n\tuint constant REQUIRED_JUDGE_STAKE = 100000 gwei; // 0.0001 ether;\n\tuint constant MINIMUM_CASE_COLLATERAL = 1 gwei; //gwei;\n\tuint constant JUDGE_SCORE_INITIAL = 100;\n\tuint constant JUDGE_SCORE_INCREMENT = 10;\n\tuint constant JUDGE_SCORE_DECREMENT = 50;\n\n\tconstructor() {\n\t\tcurrentJudgeId = 0; // id == 0 -> null judge/case/request\n\t\tcurrentCaseId = 0;\n\t}\n\n\t//////\n\t// Judge management\n\t//////\n\n\tfunction registerJudge() public payable {\n\t\trequire(Judges[msg.sender] == 0, \"This address is already a judge\");\n\t\trequire(msg.value == REQUIRED_JUDGE_STAKE, \"Invalid stake provided\");\n\n\t\tcurrentJudgeId++;\n\t\tJudgesData[currentJudgeId] = Judge(msg.sender, JUDGE_SCORE_INITIAL, REQUIRED_JUDGE_STAKE, false);\n\t\tJudges[msg.sender] = currentJudgeId;\n\t}\n\n\tfunction reportGood(address judge) public {\n\t\tJudgesData[Judges[judge]].score += JUDGE_SCORE_INCREMENT;\n\t}\n\n\tfunction reportBad(address judge) public {\n\t\tuint judgeId = Judges[judge];\n\t\tif (JudgesData[judgeId].score < JUDGE_SCORE_DECREMENT) { // score is too low, kick the judge\n\t\t\tJudgesData[judgeId].banned = true;\n\t\t\tpayable(address(0x0)).transfer(JudgesData[judgeId].stake);\n\t\t\treturn;\n\t\t}\n\t\tJudgesData[judgeId].score -= JUDGE_SCORE_DECREMENT;\n\t}\n\n\t//////\n\t// Case management\n\t//////\n\n\tfunction createCase(address opponent, string calldata description, bytes32 proofHash) public payable returns (uint caseId) {\n\t\trequire(Judges[msg.sender] == 0, \"A judge cannot open a case\");\n\t\trequire(Judges[opponent] == 0, \"A judge cannot be an opponent\");\n\t\trequire(msg.value >= MINIMUM_CASE_COLLATERAL, \"Must provide some coins as collateral\");\n\n\t\tcurrentCaseId++;\n\t\tCase newCase = (new Case){value:msg.value}(\n\t\t\tthis,\n\t\t\tcurrentCaseId,\n\t\t\tmsg.sender,\n\t\t\topponent,\n\t\t\tdescription,\n\t\t\tproofHash,\n\t\t\tmsg.value);\n\t\tCases[currentCaseId] = newCase;\n\n\t\tlastCases[msg.sender] = currentCaseId;\n\t\tlastCases[opponent] = currentCaseId;\n\n\t\treturn currentCaseId;\n\t}\n\n\tfunction getCase(address participant) public view returns (CaseData memory) {\n\t\trequire(lastCases[participant] != 0, \"No cases\");\n\t\t\n\t\treturn Cases[lastCases[participant]].getCaseData();\n\t}\n\t\n\tfunction getCaseById(uint caseId) public view returns (CaseData memory) {\n\t\trequire(address(Cases[caseId]) != address(0x0), \"No case\");\n\t\treturn Cases[caseId].getCaseData();\n\t}\n\n\tfunction caseContract(uint caseId) public view returns (address) {\n\t\treturn address(Cases[caseId]);\n\t}\n\n\tfunction acceptCase(uint caseId, bytes32 proofHash) public payable {\n\t\trequire(Cases[caseId].isOpponent(msg.sender), \"This is not your case\");\n\t\t\n\t\tCases[caseId].acceptCase{value:msg.value}(proofHash);\n\t}\n\n\tfunction discloseProof(uint caseId, string calldata proof) public {\n\t\tif (Cases[caseId].isRequester(msg.sender)) {\n\t\t\tCases[caseId].discloseRequesterProof(proof);\n\t\t} else if (Cases[caseId].isOpponent(msg.sender)) {\n\t\t\tCases[caseId].discloseOpponentProof(proof);\n\t\t} else {\n\t\t\trevert(\"You are not related to this case\");\n\t\t}\n\n\t\tassignJudge(caseId);\n\t}\n\n\tfunction setDecision(uint caseId, bool win) public {\n\t\trequire(Cases[caseId].isJudge(msg.sender), \"You are not the judge\");\n\t\tCases[caseId].setDecision(win, msg.sender);\n\t}\n\n\tfunction appeal(uint caseId) public payable {\n\t\trequire(Cases[caseId].isRequester(msg.sender) || Cases[caseId].isOpponent(msg.sender), \"You are not related to this case\");\n\t\t\n\t\tCases[caseId].appeal{value:msg.value}(msg.sender);\n\t\tassignJudge(caseId);\n\t}\n\n\tfunction claim(uint caseId) public {\n\t\tCases[caseId].claim();\n\t}\n\n\tfunction assignJudge(uint caseId) private {\n\t\twhile (Cases[caseId].needsJudges()) {\n\t\t\tuint judge = 0;\n\t\t\twhile (judge == 0 || JudgesData[judge].banned || Cases[caseId].isJudge(JudgesData[judge].addr)) { // keep rolling untill we find a judge\n\t\t\t\tjudge = (uint(keccak256(abi.encodePacked(blockhash(block.number - 1)))) % currentJudgeId) + 1;\n\t\t\t}\n\t\t\tif (Cases[caseId].assignJudge(JudgesData[judge].addr)) {\n\t\t\t\tlastCases[JudgesData[judge].addr] = caseId;\n\t\t\t}\n\t\t}\n\t}\n}\n",
  "sourcePath": "C:\\Users\\msotn\\Desktop\\Crypto Judges\\contracts\\CryptoJudges.sol",
  "compiler": {
    "name": "solc",
    "version": "0.8.9+commit.e5eed63a.Emscripten.clang"
  },
  "schemaVersion": "3.4.3",
  "updatedAt": "2021-10-24T09:41:52.237Z",
  "networkType": "ethereum",
  "devdoc": {
    "kind": "dev",
    "methods": {},
    "version": 1
  },
  "userdoc": {
    "kind": "user",
    "methods": {},
    "version": 1
  }
}