{
  "contractName": "CryptoJudges",
  "abi": [
    {
      "inputs": [],
      "stateMutability": "nonpayable",
      "type": "constructor"
    },
    {
      "inputs": [],
      "name": "registerJudge",
      "outputs": [],
      "stateMutability": "payable",
      "type": "function"
    },
    {
      "inputs": [
        {
          "internalType": "address",
          "name": "judge",
          "type": "address"
        }
      ],
      "name": "reportGood",
      "outputs": [],
      "stateMutability": "nonpayable",
      "type": "function"
    },
    {
      "inputs": [
        {
          "internalType": "address",
          "name": "judge",
          "type": "address"
        }
      ],
      "name": "reportBad",
      "outputs": [],
      "stateMutability": "nonpayable",
      "type": "function"
    },
    {
      "inputs": [
        {
          "internalType": "address",
          "name": "opponent",
          "type": "address"
        },
        {
          "internalType": "string",
          "name": "description",
          "type": "string"
        },
        {
          "internalType": "bytes32",
          "name": "proofHash",
          "type": "bytes32"
        }
      ],
      "name": "createCase",
      "outputs": [
        {
          "internalType": "uint256",
          "name": "caseId",
          "type": "uint256"
        }
      ],
      "stateMutability": "payable",
      "type": "function"
    },
    {
      "inputs": [
        {
          "internalType": "address",
          "name": "participant",
          "type": "address"
        }
      ],
      "name": "getCase",
      "outputs": [
        {
          "components": [
            {
              "components": [
                {
                  "internalType": "address",
                  "name": "addr",
                  "type": "address"
                },
                {
                  "internalType": "bytes32",
                  "name": "proofHash",
                  "type": "bytes32"
                },
                {
                  "internalType": "string",
                  "name": "proof",
                  "type": "string"
                },
                {
                  "internalType": "uint256",
                  "name": "collateral",
                  "type": "uint256"
                }
              ],
              "internalType": "struct CaseParticipant",
              "name": "requester",
              "type": "tuple"
            },
            {
              "components": [
                {
                  "internalType": "address",
                  "name": "addr",
                  "type": "address"
                },
                {
                  "internalType": "bytes32",
                  "name": "proofHash",
                  "type": "bytes32"
                },
                {
                  "internalType": "string",
                  "name": "proof",
                  "type": "string"
                },
                {
                  "internalType": "uint256",
                  "name": "collateral",
                  "type": "uint256"
                }
              ],
              "internalType": "struct CaseParticipant",
              "name": "opponent",
              "type": "tuple"
            },
            {
              "internalType": "address[]",
              "name": "judges",
              "type": "address[]"
            },
            {
              "internalType": "uint256",
              "name": "judgesRequired",
              "type": "uint256"
            },
            {
              "internalType": "string",
              "name": "description",
              "type": "string"
            },
            {
              "internalType": "enum CaseStates",
              "name": "state",
              "type": "uint8"
            },
            {
              "internalType": "uint256",
              "name": "tally",
              "type": "uint256"
            },
            {
              "internalType": "uint256",
              "name": "votes",
              "type": "uint256"
            },
            {
              "internalType": "uint256",
              "name": "baseCollateral",
              "type": "uint256"
            },
            {
              "internalType": "uint256",
              "name": "expiration",
              "type": "uint256"
            }
          ],
          "internalType": "struct CaseData",
          "name": "",
          "type": "tuple"
        }
      ],
      "stateMutability": "view",
      "type": "function"
    },
    {
      "inputs": [
        {
          "internalType": "uint256",
          "name": "caseId",
          "type": "uint256"
        }
      ],
      "name": "getCaseById",
      "outputs": [
        {
          "components": [
            {
              "components": [
                {
                  "internalType": "address",
                  "name": "addr",
                  "type": "address"
                },
                {
                  "internalType": "bytes32",
                  "name": "proofHash",
                  "type": "bytes32"
                },
                {
                  "internalType": "string",
                  "name": "proof",
                  "type": "string"
                },
                {
                  "internalType": "uint256",
                  "name": "collateral",
                  "type": "uint256"
                }
              ],
              "internalType": "struct CaseParticipant",
              "name": "requester",
              "type": "tuple"
            },
            {
              "components": [
                {
                  "internalType": "address",
                  "name": "addr",
                  "type": "address"
                },
                {
                  "internalType": "bytes32",
                  "name": "proofHash",
                  "type": "bytes32"
                },
                {
                  "internalType": "string",
                  "name": "proof",
                  "type": "string"
                },
                {
                  "internalType": "uint256",
                  "name": "collateral",
                  "type": "uint256"
                }
              ],
              "internalType": "struct CaseParticipant",
              "name": "opponent",
              "type": "tuple"
            },
            {
              "internalType": "address[]",
              "name": "judges",
              "type": "address[]"
            },
            {
              "internalType": "uint256",
              "name": "judgesRequired",
              "type": "uint256"
            },
            {
              "internalType": "string",
              "name": "description",
              "type": "string"
            },
            {
              "internalType": "enum CaseStates",
              "name": "state",
              "type": "uint8"
            },
            {
              "internalType": "uint256",
              "name": "tally",
              "type": "uint256"
            },
            {
              "internalType": "uint256",
              "name": "votes",
              "type": "uint256"
            },
            {
              "internalType": "uint256",
              "name": "baseCollateral",
              "type": "uint256"
            },
            {
              "internalType": "uint256",
              "name": "expiration",
              "type": "uint256"
            }
          ],
          "internalType": "struct CaseData",
          "name": "",
          "type": "tuple"
        }
      ],
      "stateMutability": "view",
      "type": "function"
    },
    {
      "inputs": [
        {
          "internalType": "uint256",
          "name": "caseId",
          "type": "uint256"
        }
      ],
      "name": "caseContract",
      "outputs": [
        {
          "internalType": "address",
          "name": "",
          "type": "address"
        }
      ],
      "stateMutability": "view",
      "type": "function"
    },
    {
      "inputs": [
        {
          "internalType": "uint256",
          "name": "caseId",
          "type": "uint256"
        },
        {
          "internalType": "bytes32",
          "name": "proofHash",
          "type": "bytes32"
        }
      ],
      "name": "acceptCase",
      "outputs": [],
      "stateMutability": "payable",
      "type": "function"
    },
    {
      "inputs": [
        {
          "internalType": "uint256",
          "name": "caseId",
          "type": "uint256"
        },
        {
          "internalType": "string",
          "name": "proof",
          "type": "string"
        }
      ],
      "name": "discloseProof",
      "outputs": [],
      "stateMutability": "nonpayable",
      "type": "function"
    },
    {
      "inputs": [
        {
          "internalType": "uint256",
          "name": "caseId",
          "type": "uint256"
        },
        {
          "internalType": "bool",
          "name": "win",
          "type": "bool"
        }
      ],
      "name": "setDecision",
      "outputs": [],
      "stateMutability": "nonpayable",
      "type": "function"
    },
    {
      "inputs": [
        {
          "internalType": "uint256",
          "name": "caseId",
          "type": "uint256"
        }
      ],
      "name": "appeal",
      "outputs": [],
      "stateMutability": "payable",
      "type": "function"
    },
    {
      "inputs": [
        {
          "internalType": "uint256",
          "name": "caseId",
          "type": "uint256"
        }
      ],
      "name": "claim",
      "outputs": [],
      "stateMutability": "nonpayable",
      "type": "function"
    }
  ],
  "bytecode": "0x608060405234801561001057600080fd5b5060006002819055600555613b9d8061002a6000396000f3fe608060405260043610620000b45760003560e01c80638d5cf4d8116200006c5780638d5cf4d814620001a857806393e0ea0314620001cd578063a33338f714620001f2578063e04c3a7e1462000218578063e2c3b374146200023d578063f3181bff146200026257600080fd5b806228434e14620000b95780630d9de3f714620000c5578063272ba1c41462000102578063379607f514620001195780635a08dce6146200013e5780637e69b7b01462000191575b600080fd5b620000c362000287565b005b348015620000d257600080fd5b50620000ea620000e43660046200129b565b620003cd565b604051620000f99190620013e9565b60405180910390f35b620000c362000113366004620014c4565b620004c8565b3480156200012657600080fd5b50620000c362000138366004620014e7565b6200060d565b3480156200014b57600080fd5b50620001786200015d366004620014e7565b6000908152600360205260409020546001600160a01b031690565b6040516001600160a01b039091168152602001620000f9565b620000c3620001a2366004620014e7565b62000676565b348015620001b557600080fd5b50620000c3620001c73660046200129b565b6200085f565b348015620001da57600080fd5b50620000c3620001ec36600462001510565b6200089f565b62000209620002033660046200158f565b620009e9565b604051908152602001620000f9565b3480156200022557600080fd5b50620000c362000237366004620015f1565b62000bc5565b3480156200024a57600080fd5b50620000ea6200025c366004620014e7565b62000dfe565b3480156200026f57600080fd5b50620000c3620002813660046200129b565b62000ea4565b3360009081526001602052604090205415620002ea5760405162461bcd60e51b815260206004820152601f60248201527f54686973206164647265737320697320616c72656164792061206a756467650060448201526064015b60405180910390fd5b60643414620003355760405162461bcd60e51b8152602060048201526016602482015275125b9d985b1a59081cdd185ad9481c1c9bdd9a59195960521b6044820152606401620002e1565b60028054906000620003478362001657565b9091555050604080516080810182523380825260646020808401828152848601928352600060608601818152600280548352828552888320975188546001600160a01b0319166001600160a01b039091161788559251600180890191909155945187840155516003909601805460ff191696151596909617909555549284525291902055565b620003d7620011cc565b6001600160a01b038216600090815260046020526040902054620004295760405162461bcd60e51b81526020600482015260086024820152674e6f20636173657360c01b6044820152606401620002e1565b6001600160a01b0380831660009081526004602081815260408084205484526003909152808320548151632f5751d960e11b81529151941693635eaea3b293828401939092829003018186803b1580156200048357600080fd5b505afa15801562000498573d6000803e3d6000fd5b505050506040513d6000823e601f3d908101601f19168201604052620004c29190810190620018a2565b92915050565b6000828152600360205260409081902054905163d0f63a6360e01b81523360048201526001600160a01b039091169063d0f63a639060240160206040518083038186803b1580156200051957600080fd5b505afa1580156200052e573d6000803e3d6000fd5b505050506040513d601f19601f82011682018060405250810190620005549190620019d6565b6200059a5760405162461bcd60e51b815260206004820152601560248201527454686973206973206e6f7420796f7572206361736560581b6044820152606401620002e1565b600082815260036020526040908190205490516309896d2560e41b8152600481018390526001600160a01b0390911690639896d2509034906024016000604051808303818588803b158015620005ef57600080fd5b505af115801562000604573d6000803e3d6000fd5b50505050505050565b600081815260036020526040808220548151634e71d92d60e01b815291516001600160a01b0390911692634e71d92d926004808201939182900301818387803b1580156200065a57600080fd5b505af11580156200066f573d6000803e3d6000fd5b5050505050565b60008181526003602052604090819020549051630252917760e01b81523360048201526001600160a01b039091169063025291779060240160206040518083038186803b158015620006c757600080fd5b505afa158015620006dc573d6000803e3d6000fd5b505050506040513d601f19601f82011682018060405250810190620007029190620019d6565b806200079557506000818152600360205260409081902054905163d0f63a6360e01b81523360048201526001600160a01b039091169063d0f63a639060240160206040518083038186803b1580156200075a57600080fd5b505afa1580156200076f573d6000803e3d6000fd5b505050506040513d601f19601f82011682018060405250810190620007959190620019d6565b620007e35760405162461bcd60e51b815260206004820181905260248201527f596f7520617265206e6f742072656c6174656420746f207468697320636173656044820152606401620002e1565b6000818152600360205260409081902054905163181a7d0960e31b81523360048201526001600160a01b039091169063c0d3e8489034906024016000604051808303818588803b1580156200083757600080fd5b505af11580156200084c573d6000803e3d6000fd5b50505050506200085c8162000f4d565b50565b6001600160a01b0381166000908152600160208181526040808420548452908390528220018054600a929062000897908490620019f6565b909155505050565b600082815260036020526040908190205490516376c4b6b360e11b81523360048201526001600160a01b039091169063ed896d669060240160206040518083038186803b158015620008f057600080fd5b505afa15801562000905573d6000803e3d6000fd5b505050506040513d601f19601f820116820180604052508101906200092b9190620019d6565b620009715760405162461bcd60e51b8152602060048201526015602482015274596f7520617265206e6f7420746865206a7564676560581b6044820152606401620002e1565b600082815260036020526040908190205490516377f29b1b60e01b815282151560048201523360248201526001600160a01b03909116906377f29b1b90604401600060405180830381600087803b158015620009cc57600080fd5b505af1158015620009e1573d6000803e3d6000fd5b505050505050565b336000908152600160205260408120541562000a485760405162461bcd60e51b815260206004820152601a60248201527f41206a756467652063616e6e6f74206f70656e206120636173650000000000006044820152606401620002e1565b6001600160a01b0385166000908152600160205260409020541562000ab05760405162461bcd60e51b815260206004820152601d60248201527f41206a756467652063616e6e6f7420626520616e206f70706f6e656e740000006044820152606401620002e1565b600134101562000b115760405162461bcd60e51b815260206004820152602560248201527f4d7573742070726f7669646520736f6d6520636f696e7320617320636f6c6c616044820152641d195c985b60da1b6064820152608401620002e1565b6005805490600062000b238362001657565b91905055506000343033888888883460405162000b409062001277565b62000b52979695949392919062001a3a565b6040518091039082f090508015801562000b70573d6000803e3d6000fd5b5060058054600090815260036020908152604080832080546001600160a01b0319166001600160a01b039687161790559254338352600490915282822081905598909216825290208690555093949350505050565b60008381526003602052604090819020549051630252917760e01b81523360048201526001600160a01b039091169063025291779060240160206040518083038186803b15801562000c1657600080fd5b505afa15801562000c2b573d6000803e3d6000fd5b505050506040513d601f19601f8201168201806040525081019062000c519190620019d6565b1562000cd25760008381526003602052604090819020549051630befd51f60e01b81526001600160a01b0390911690630befd51f9062000c98908590859060040162001a87565b600060405180830381600087803b15801562000cb357600080fd5b505af115801562000cc8573d6000803e3d6000fd5b5050505062000dee565b6000838152600360205260409081902054905163d0f63a6360e01b81523360048201526001600160a01b039091169063d0f63a639060240160206040518083038186803b15801562000d2357600080fd5b505afa15801562000d38573d6000803e3d6000fd5b505050506040513d601f19601f8201168201806040525081019062000d5e9190620019d6565b1562000da55760008381526003602052604090819020549051633578409b60e11b81526001600160a01b0390911690636af081369062000c98908590859060040162001a87565b60405162461bcd60e51b815260206004820181905260248201527f596f7520617265206e6f742072656c6174656420746f207468697320636173656044820152606401620002e1565b62000df98362000f4d565b505050565b62000e08620011cc565b6000828152600360205260409020546001600160a01b031662000e585760405162461bcd60e51b81526020600482015260076024820152664e6f206361736560c81b6044820152606401620002e1565b600082815260036020526040808220548151632f5751d960e11b815291516001600160a01b0390911692635eaea3b29260048082019391829003018186803b1580156200048357600080fd5b6001600160a01b0381166000908152600160208181526040808420548085529184905290922001546014111562000f205760008181526020819052604080822060038101805460ff1916600117905560020154905181156108fc02919083818181858288f1935050505015801562000df9573d6000803e3d6000fd5b600081815260208190526040812060010180546014929062000f4490849062001a9d565b90915550505050565b600081815260036020908152604091829020548251630990460560e21b815292516001600160a01b03909116926326411814926004808301939192829003018186803b15801562000f9d57600080fd5b505afa15801562000fb2573d6000803e3d6000fd5b505050506040513d601f19601f8201168201806040525081019062000fd89190620019d6565b156200085c5760005b80158062001000575060008181526020819052604090206003015460ff165b80620010a1575060008281526003602090815260408083205484845291839052918290205491516376c4b6b360e11b81526001600160a01b03928316600482015291169063ed896d669060240160206040518083038186803b1580156200106657600080fd5b505afa1580156200107b573d6000803e3d6000fd5b505050506040513d601f19601f82011682018060405250810190620010a19190620019d6565b15620010fd57600254620010b760014362001a9d565b6040805191406020830152016040516020818303038152906040528051906020012060001c620010e8919062001ab7565b620010f5906001620019f6565b905062000fe1565b600082815260036020908152604080832054848452918390529182902054915163ca04ddcb60e01b81526001600160a01b03928316600482015291169063ca04ddcb90602401602060405180830381600087803b1580156200115e57600080fd5b505af115801562001173573d6000803e3d6000fd5b505050506040513d601f19601f82011682018060405250810190620011999190620019d6565b15620011c557600081815260208181526040808320546001600160a01b03168352600490915290208290555b5062000f4d565b604080516101c0810190915260006101408201818152610160830182905260606101808401526101a0830191909152819081526040805160808101825260008082526020828101829052606093830184905292820152910190815260200160608152602001600081526020016060815260200160006008811115620012555762001255620013b0565b8152602001600081526020016000815260200160008152602001600081525090565b61208d8062001adb83390190565b6001600160a01b03811681146200085c57600080fd5b600060208284031215620012ae57600080fd5b8135620012bb8162001285565b9392505050565b60005b83811015620012df578181015183820152602001620012c5565b83811115620012ef576000848401525b50505050565b600081518084526200130f816020860160208601620012c2565b601f01601f19169290920160200192915050565b60018060a01b038151168252602081015160208301526000604082015160806040850152620013566080850182620012f5565b606093840151949093019390935250919050565b600081518084526020808501945080840160005b83811015620013a55781516001600160a01b0316875295820195908201906001016200137e565b509495945050505050565b634e487b7160e01b600052602160045260246000fd5b60098110620013e557634e487b7160e01b600052602160045260246000fd5b9052565b60208152600082516101408060208501526200140a61016085018362001323565b91506020850151601f19808685030160408701526200142a848362001323565b935060408701519150808685030160608701526200144984836200136a565b93506060870151608087015260808701519150808685030160a087015250620014738382620012f5565b92505060a08501516200148a60c0860182620013c6565b5060c085015160e0858101919091528501516101008086019190915285015161012080860191909152909401519390920192909252919050565b60008060408385031215620014d857600080fd5b50508035926020909101359150565b600060208284031215620014fa57600080fd5b5035919050565b80151581146200085c57600080fd5b600080604083850312156200152457600080fd5b823591506020830135620015388162001501565b809150509250929050565b60008083601f8401126200155657600080fd5b50813567ffffffffffffffff8111156200156f57600080fd5b6020830191508360208285010111156200158857600080fd5b9250929050565b60008060008060608587031215620015a657600080fd5b8435620015b38162001285565b9350602085013567ffffffffffffffff811115620015d057600080fd5b620015de8782880162001543565b9598909750949560400135949350505050565b6000806000604084860312156200160757600080fd5b83359250602084013567ffffffffffffffff8111156200162657600080fd5b620016348682870162001543565b9497909650939450505050565b634e487b7160e01b600052601160045260246000fd5b60006000198214156200166e576200166e62001641565b5060010190565b634e487b7160e01b600052604160045260246000fd5b604051610140810167ffffffffffffffff81118282101715620016b257620016b262001675565b60405290565b604051601f8201601f1916810167ffffffffffffffff81118282101715620016e457620016e462001675565b604052919050565b600082601f830112620016fe57600080fd5b815167ffffffffffffffff8111156200171b576200171b62001675565b62001730601f8201601f1916602001620016b8565b8181528460208386010111156200174657600080fd5b62001759826020830160208701620012c2565b949350505050565b6000608082840312156200177457600080fd5b6040516080810167ffffffffffffffff82821081831117156200179b576200179b62001675565b8160405282935084519150620017b18262001285565b818352602085015160208401526040850151915080821115620017d357600080fd5b50620017e285828601620016ec565b604083015250606083015160608201525092915050565b600082601f8301126200180b57600080fd5b8151602067ffffffffffffffff8211156200182a576200182a62001675565b8160051b6200183b828201620016b8565b92835284810182019282810190878511156200185657600080fd5b83870192505b8483101562001882578251620018728162001285565b825291830191908301906200185c565b979650505050505050565b8051600981106200189d57600080fd5b919050565b600060208284031215620018b557600080fd5b815167ffffffffffffffff80821115620018ce57600080fd5b908301906101408286031215620018e457600080fd5b620018ee6200168b565b825182811115620018fe57600080fd5b6200190c8782860162001761565b8252506020830151828111156200192257600080fd5b620019308782860162001761565b6020830152506040830151828111156200194957600080fd5b6200195787828601620017f9565b604083015250606083015160608201526080830151828111156200197a57600080fd5b6200198887828601620016ec565b6080830152506200199c60a084016200188d565b60a082015260c0838101519082015260e0808401519082015261010080840151908201526101209283015192810192909252509392505050565b600060208284031215620019e957600080fd5b8151620012bb8162001501565b6000821982111562001a0c5762001a0c62001641565b500190565b81835281816020850137506000828201602090810191909152601f909101601f19169091010190565b6001600160a01b03888116825287811660208301528616604082015260c06060820181905260009062001a71908301868862001a11565b60808301949094525060a0015295945050505050565b6020815260006200175960208301848662001a11565b60008282101562001ab25762001ab262001641565b500390565b60008262001ad557634e487b7160e01b600052601260045260246000fd5b50069056fe60806040526040516200208d3803806200208d83398101604081905262000026916200042f565b8034146200007a5760405162461bcd60e51b815260206004820152601b60248201527f496e76616c696420636f6c6c61746572616c2070726f76696465640000000000604482015260640160405180910390fd5b601180546001600160a01b0319166001600160a01b0388811691909117909155604080516101c0810182528783166101408201908152610160820186905282516020808201855260008083526101808501929092526101a08401879052918352835160808101855294891685528482018190528351808301855281815285850152606085018190528183019490945282518481529081018352909291830191508152602001600181526020018481526020016001600881111562000142576200014262000561565b81526020016000815260200160008152602001828152602001601e426200016a919062000577565b905280518051600080546001600160a01b0319166001600160a01b03909216919091178155602080830151600155604083015180519293928492620001b59260029291019062000302565b506060919091015160039091015560208281015180516004840180546001600160a01b0319166001600160a01b03909216919091178155818301516005850155604082015180519293919262000212926006870192019062000302565b5060608201518160030155505060408201518160080190805190602001906200023d92919062000391565b5060608201516009820155608082015180516200026591600a84019160209091019062000302565b5060a0820151600b8201805460ff191660018360088111156200028c576200028c62000561565b021790555060c0820151600c82015560e0820151600d820155610100820151600e82015561012090910151600f909101556040516001600160a01b0380861691908716907fb957e4dc3b04409e6c4b14ee40d0d8e5efe8caf593e96b517b5afcdbbc7ff32690600090a3505050505050620005db565b82805462000310906200059e565b90600052602060002090601f0160209004810192826200033457600085556200037f565b82601f106200034f57805160ff19168380011785556200037f565b828001600101855582156200037f579182015b828111156200037f57825182559160200191906001019062000362565b506200038d929150620003e9565b5090565b8280548282559060005260206000209081019282156200037f579160200282015b828111156200037f57825182546001600160a01b0319166001600160a01b03909116178255602090920191600190910190620003b2565b5b808211156200038d5760008155600101620003ea565b6001600160a01b03811681146200041657600080fd5b50565b634e487b7160e01b600052604160045260246000fd5b60008060008060008060c087890312156200044957600080fd5b8651620004568162000400565b809650506020808801516200046b8162000400565b60408901519096506200047e8162000400565b60608901519095506001600160401b03808211156200049c57600080fd5b818a0191508a601f830112620004b157600080fd5b815181811115620004c657620004c662000419565b604051601f8201601f19908116603f01168101908382118183101715620004f157620004f162000419565b816040528281528d868487010111156200050a57600080fd5b600093505b828410156200052e57848401860151818501870152928501926200050f565b82841115620005405760008684830101525b8098505050505050506080870151915060a087015190509295509295509295565b634e487b7160e01b600052602160045260246000fd5b600082198211156200059957634e487b7160e01b600052601160045260246000fd5b500190565b600181811c90821680620005b357607f821691505b60208210811415620005d557634e487b7160e01b600052602260045260246000fd5b50919050565b611aa280620005eb6000396000f3fe6080604052600436106100c25760003560e01c80636af081361161007f578063c0d3e84811610059578063c0d3e848146101e3578063ca04ddcb146101f6578063d0f63a6314610216578063ed896d661461024557600080fd5b80636af081361461019057806377f29b1b146101b05780639896d250146101d057600080fd5b806302529177146100c75780630befd51f1461010b578063264118141461012d5780632f13b60c146101425780634e71d92d146101595780635eaea3b21461016e575b600080fd5b3480156100d357600080fd5b506100f66100e236600461168c565b6000546001600160a01b0390811691161490565b60405190151581526020015b60405180910390f35b34801561011757600080fd5b5061012b6101263660046116ae565b610265565b005b34801561013957600080fd5b506100f6610478565b34801561014e57600080fd5b50600f5442116100f6565b34801561016557600080fd5b5061012b6104a8565b34801561017a57600080fd5b50610183610503565b604051610102919061182e565b34801561019c57600080fd5b5061012b6101ab3660046116ae565b61080c565b3480156101bc57600080fd5b5061012b6101cb3660046118ff565b6109ab565b61012b6101de366004611939565b610bb5565b61012b6101f136600461168c565b610cdd565b34801561020257600080fd5b506100f661021136600461168c565b610e96565b34801561022257600080fd5b506100f661023136600461168c565b6004546001600160a01b0390811691161490565b34801561025157600080fd5b506100f661026036600461168c565b610f82565b600f5442111561027b57610277610fef565b5050565b6011546001600160a01b031633146102ae5760405162461bcd60e51b81526004016102a590611952565b60405180910390fd5b6002600b5460ff1660088111156102c7576102c76117f6565b14806102e957506003600b5460ff1660088111156102e7576102e76117f6565b145b6103355760405162461bcd60e51b815260206004820181905260248201527f54686973206361736520646f6573206e6f74206163636570742070726f6f667360448201526064016102a5565b61033f60006113a3565b1561038c5760405162461bcd60e51b815260206004820152601d60248201527f5468652070726f6f6620697320616c72656164792070726f766964656400000060448201526064016102a5565b6001546040516103a29084908490602001611981565b60405160208183030381529060405280519060200120146104055760405162461bcd60e51b815260206004820152601f60248201527f50726f6f6620646f6573206e6f74206d617463682070726f6f6620686173680060448201526064016102a5565b610411600283836114df565b50600b5460ff166008811115610429576104296117f6565b6104349060016119a7565b6008811115610445576104456117f6565b600b805460ff19166001836008811115610461576104616117f6565b0217905550610471601e426119a7565b600f555050565b60006004600b5460ff166008811115610493576104936117f6565b1480156104a35750600954600854105b905090565b600f5442116104f95760405162461bcd60e51b815260206004820152601760248201527f5468652063617365206973206e6f74206578706972656400000000000000000060448201526064016102a5565b610501610fef565b565b61050b611563565b604080516101c08101909152600080546001600160a01b031661014083019081526001546101608401526002805484929184916101808501919061054e906119bf565b80601f016020809104026020016040519081016040528092919081815260200182805461057a906119bf565b80156105c75780601f1061059c576101008083540402835291602001916105c7565b820191906000526020600020905b8154815290600101906020018083116105aa57829003601f168201915b505050918352505060039190910154602091820152908252604080516080810182526004850180546001600160a01b0316825260058601548285015260068601805495909401949193909284019161061e906119bf565b80601f016020809104026020016040519081016040528092919081815260200182805461064a906119bf565b80156106975780601f1061066c57610100808354040283529160200191610697565b820191906000526020600020905b81548152906001019060200180831161067a57829003601f168201915b5050505050815260200160038201548152505081526020016008820180548060200260200160405190810160405280929190818152602001828054801561070757602002820191906000526020600020905b81546001600160a01b031681526001909101906020018083116106e9575b5050505050815260200160098201548152602001600a8201805461072a906119bf565b80601f0160208091040260200160405190810160405280929190818152602001828054610756906119bf565b80156107a35780601f10610778576101008083540402835291602001916107a3565b820191906000526020600020905b81548152906001019060200180831161078657829003601f168201915b5050509183525050600b82015460209091019060ff1660088111156107ca576107ca6117f6565b60088111156107db576107db6117f6565b8152602001600c8201548152602001600d8201548152602001600e8201548152602001600f82015481525050905090565b600f5442111561081e57610277610fef565b6011546001600160a01b031633146108485760405162461bcd60e51b81526004016102a590611952565b6002600b5460ff166008811115610861576108616117f6565b148061088357506003600b5460ff166008811115610881576108816117f6565b145b6108cf5760405162461bcd60e51b815260206004820181905260248201527f54686973206361736520646f6573206e6f74206163636570742070726f6f667360448201526064016102a5565b6108d960046113a3565b156109265760405162461bcd60e51b815260206004820152601d60248201527f5468652070726f6f6620697320616c72656164792070726f766964656400000060448201526064016102a5565b60055460405161093c9084908490602001611981565b604051602081830303815290604052805190602001201461099f5760405162461bcd60e51b815260206004820152601f60248201527f50726f6f6620646f6573206e6f74206d617463682070726f6f6620686173680060448201526064016102a5565b610411600683836114df565b600f544211156109bd57610277610fef565b6011546001600160a01b031633146109e75760405162461bcd60e51b81526004016102a590611952565b6004600b5460ff166008811115610a0057610a006117f6565b14610a4d5760405162461bcd60e51b815260206004820152601d60248201527f546869732063617365206973206e6f74206265696e67206a756467656400000060448201526064016102a5565b6001600160a01b03811660009081526010602052604090205460ff16610aac5760405162461bcd60e51b8152602060048201526014602482015273151a1a5cc81a9d5919d9481a185cc81d9bdd195960621b60448201526064016102a5565b8115610ace5760016000600c016000828254610ac891906119a7565b90915550505b6001600160a01b0381166000908152601060205260408120805460ff19169055600d805460019290610b019084906119a7565b9091555050600954600d541415610b4957600954610b21906002906119fa565b600c5410610b3b57600b805460ff19166005179055610b49565b600b805460ff191660061790555b6011546040516311ab9e9b60e31b81526001600160a01b03838116600483015290911690638d5cf4d890602401600060405180830381600087803b158015610b9057600080fd5b505af1158015610ba4573d6000803e3d6000fd5b50505050601e4261047191906119a7565b600f54421115610bca57610bc7610fef565b50565b6011546001600160a01b03163314610bf45760405162461bcd60e51b81526004016102a590611952565b6001600b5460ff166008811115610c0d57610c0d6117f6565b14610c1757600080fd5b600e543414610c775760405162461bcd60e51b815260206004820152602660248201527f50726f766964652074686520726967687420616d6f756e74206f6620636f6c6c604482015265185d195c985b60d21b60648201526084016102a5565b6005819055600e54600755600b805460ff19166002179055600454600080546040516001600160a01b0393841693909116917fdd5f05630ec0ad93ddee9d95393a7402ae7eac8de7af06b03249fee0478b876d91a3610cd7601e426119a7565b600f5550565b600f54421115610cef57610bc7610fef565b6011546001600160a01b03163314610d195760405162461bcd60e51b81526004016102a590611952565b6005600b5460ff166008811115610d3257610d326117f6565b1480610d5457506006600b5460ff166008811115610d5257610d526117f6565b145b610da05760405162461bcd60e51b815260206004820152601b60248201527f54686520636173652063616e6e6f742062652061707065616c6564000000000060448201526064016102a5565b600e54610dae906003611a1c565b3414610db957600080fd5b6000546001600160a01b0382811691161415610def5760038054349190600090610de49084906119a7565b90915550610e209050565b6004546001600160a01b0382811691161415610e205760078054349190600090610e1a9084906119a7565b90915550505b60036000600e016000828254610e369190611a1c565b90915550506009805460039190600090610e51908490611a1c565b90915550506040805160008152602081019182905251610e739160089161160b565b506000600c819055600d55600b805460ff19166004179055610cd7601e426119a7565b6000610ea3600f54421190565b15610eb557610eb0610fef565b919050565b6011546001600160a01b03163314610edf5760405162461bcd60e51b81526004016102a590611952565b6004600b5460ff166008811115610ef857610ef86117f6565b148015610f0b5750610f0982610f82565b155b15610f7a57506001600160a01b03166000818152601060205260408120805460ff1916600190811790915560088054808301825592527ff3f7a9fe364faab93b216da50a3214154f22a0a2b415b23a84c8169e8b636ee390910180546001600160a01b03191690921790915590565b506000919050565b6000805b600854811015610fe657826001600160a01b031660006008018281548110610fb057610fb0611a3b565b6000918252602090912001546001600160a01b03161415610fd45750600192915050565b80610fde81611a51565b915050610f86565b50600092915050565b6001600b5460ff166008811115611008576110086117f6565b148061102a57506002600b5460ff166008811115611028576110286117f6565b145b1561106f57600b805460ff191660071790556110446113bf565b6040517f3b0a072432f66c2c62b2ffa05c0384d649697f4a86708232650b4b37372f232c90600090a1565b6003600b5460ff166008811115611088576110886117f6565b141561113f57600061109a60046113a3565b156110b157506004546001600160a01b03166110ce565b6110bb60006113a3565b156110ce57506000546001600160a01b03165b600b8054600760ff199091161790556040516001600160a01b038216904780156108fc02916000818181858888f19350505050158015611112573d6000803e3d6000fd5b506040517f3b0a072432f66c2c62b2ffa05c0384d649697f4a86708232650b4b37372f232c90600090a150565b6004600b5460ff166008811115611158576111586117f6565b141561129457600b805460ff191660071790556111736113bf565b60005b600854811015611268576010600080600801838154811061119957611199611a3b565b60009182526020808320909101546001600160a01b0316835282019290925260400190205460ff161561125657601154600880546001600160a01b039092169163f3181bff9190849081106111f0576111f0611a3b565b60009182526020909120015460405160e083901b6001600160e01b03191681526001600160a01b039091166004820152602401600060405180830381600087803b15801561123d57600080fd5b505af1158015611251573d6000803e3d6000fd5b505050505b8061126081611a51565b915050611176565b506040517f3b0a072432f66c2c62b2ffa05c0384d649697f4a86708232650b4b37372f232c90600090a1565b6005600b5460ff1660088111156112ad576112ad6117f6565b141561133257600b805460ff191660081790556007546112cc90611448565b600080546040516001600160a01b03909116914780156108fc02929091818181858888f19350505050158015611306573d6000803e3d6000fd5b506040517f9ab8bf53a18ac51a5a24e74d7dcf0f9e8f30c86b3009a4934fb1489632e7953e90600090a1565b6006600b5460ff16600881111561134b5761134b6117f6565b141561050157600b805460ff1916600817905560035461136a90611448565b6004546040516001600160a01b03909116904780156108fc02916000818181858888f19350505050158015611306573d6000803e3d6000fd5b6000808260020180546113b5906119bf565b9050119050919050565b6003541561140457600080546003546040516001600160a01b039092169281156108fc029290818181858888f19350505050158015611402573d6000803e3d6000fd5b505b60075415610501576004546007546040516001600160a01b039092169181156108fc0291906000818181858888f19350505050158015610bc7573d6000803e3d6000fd5b6000620186a061145a6103e884611a1c565b61146491906119fa565b905060005b6008548110156114da57600880548290811061148757611487611a3b565b60009182526020822001546040516001600160a01b039091169184156108fc02918591818181858888f193505050501580156114c7573d6000803e3d6000fd5b50806114d281611a51565b915050611469565b505050565b8280546114eb906119bf565b90600052602060002090601f01602090048101928261150d5760008555611553565b82601f106115265782800160ff19823516178555611553565b82800160010185558215611553579182015b82811115611553578235825591602001919060010190611538565b5061155f929150611660565b5090565b604080516101c0810190915260006101408201818152610160830182905260606101808401526101a08301919091528190815260408051608081018252600080825260208281018290526060938301849052928201529101908152602001606081526020016000815260200160608152602001600060088111156115e9576115e96117f6565b8152602001600081526020016000815260200160008152602001600081525090565b828054828255906000526020600020908101928215611553579160200282015b8281111561155357825182546001600160a01b0319166001600160a01b0390911617825560209092019160019091019061162b565b5b8082111561155f5760008155600101611661565b80356001600160a01b0381168114610eb057600080fd5b60006020828403121561169e57600080fd5b6116a782611675565b9392505050565b600080602083850312156116c157600080fd5b823567ffffffffffffffff808211156116d957600080fd5b818501915085601f8301126116ed57600080fd5b8135818111156116fc57600080fd5b86602082850101111561170e57600080fd5b60209290920196919550909350505050565b6000815180845260005b818110156117465760208185018101518683018201520161172a565b81811115611758576000602083870101525b50601f01601f19169290920160200192915050565b60018060a01b03815116825260208101516020830152600060408201516080604085015261179e6080850182611720565b606093840151949093019390935250919050565b600081518084526020808501945080840160005b838110156117eb5781516001600160a01b0316875295820195908201906001016117c6565b509495945050505050565b634e487b7160e01b600052602160045260246000fd5b6009811061182a57634e487b7160e01b600052602160045260246000fd5b9052565b602081526000825161014080602085015261184d61016085018361176d565b91506020850151601f198086850301604087015261186b848361176d565b9350604087015191508086850301606087015261188884836117b2565b93506060870151608087015260808701519150808685030160a0870152506118b08382611720565b92505060a08501516118c560c086018261180c565b5060c085015160e0858101919091528501516101008086019190915285015161012080860191909152909401519390920192909252919050565b6000806040838503121561191257600080fd5b8235801515811461192257600080fd5b915061193060208401611675565b90509250929050565b60006020828403121561194b57600080fd5b5035919050565b602080825260159082015274125b9d985b1a5908199d5b98dd1a5bdb8818d85b1b605a1b604082015260600190565b8183823760009101908152919050565b634e487b7160e01b600052601160045260246000fd5b600082198211156119ba576119ba611991565b500190565b600181811c908216806119d357607f821691505b602082108114156119f457634e487b7160e01b600052602260045260246000fd5b50919050565b600082611a1757634e487b7160e01b600052601260045260246000fd5b500490565b6000816000190483118215151615611a3657611a36611991565b500290565b634e487b7160e01b600052603260045260246000fd5b6000600019821415611a6557611a65611991565b506001019056fea264697066735822122070a80abdb170ef5dbcc6741025efc6921a6aa4aca8dce03c191126bfd29a680864736f6c63430008090033a2646970667358221220d0fc20c8312cf65fd76c51b57b1516a8b1fb96706cf9c69b205210a6404ef0d064736f6c63430008090033",
  "immutableReferences": {},
  "source": "// SPDX-License-Identifier: MIT\npragma solidity 0.8.9;\nimport './IJudgeManager.sol';\nimport './Case.sol';\n\ncontract CryptoJudges is IJudgeManager {\n\tstruct Judge {\n\t\taddress addr;\n\t\tuint score;\n\t\tuint stake;\n\t\tbool banned;\n\t}\n\n\tmapping (uint => Judge) JudgesData;\n\tmapping (address => uint) Judges;\n\tuint currentJudgeId;\n\n\tmapping (uint => Case) Cases;\n\tmapping (address => uint) lastCases;\n\tuint currentCaseId;\n\n\tuint constant REQUIRED_JUDGE_STAKE = 100; //1 ether;\n\tuint constant MINIMUM_CASE_COLLATERAL = 1; //gwei;\n\tuint constant JUDGE_SCORE_INITIAL = 100;\n\tuint constant JUDGE_SCORE_INCREMENT = 10;\n\tuint constant JUDGE_SCORE_DECREMENT = 20;\n\n\tconstructor() {\n\t\tcurrentJudgeId = 0; // id == 0 -> null judge/case/request\n\t\tcurrentCaseId = 0;\n\t}\n\n\t//////\n\t// Judge management\n\t//////\n\n\tfunction registerJudge() public payable {\n\t\trequire(Judges[msg.sender] == 0, \"This address is already a judge\");\n\t\trequire(msg.value == REQUIRED_JUDGE_STAKE, \"Invalid stake provided\");\n\n\t\tcurrentJudgeId++;\n\t\tJudgesData[currentJudgeId] = Judge(msg.sender, JUDGE_SCORE_INITIAL, REQUIRED_JUDGE_STAKE, false);\n\t\tJudges[msg.sender] = currentJudgeId;\n\t}\n\n\tfunction reportGood(address judge) public {\n\t\tJudgesData[Judges[judge]].score += JUDGE_SCORE_INCREMENT;\n\t}\n\n\tfunction reportBad(address judge) public {\n\t\tuint judgeId = Judges[judge];\n\t\tif (JudgesData[judgeId].score < JUDGE_SCORE_DECREMENT) { // score is too low, kick the judge\n\t\t\tJudgesData[judgeId].banned = true;\n\t\t\tpayable(address(0x0)).transfer(JudgesData[judgeId].stake);\n\t\t\treturn;\n\t\t}\n\t\tJudgesData[judgeId].score -= JUDGE_SCORE_DECREMENT;\n\t}\n\n\t//////\n\t// Case management\n\t//////\n\n\tfunction createCase(address opponent, string calldata description, bytes32 proofHash) public payable returns (uint caseId) {\n\t\trequire(Judges[msg.sender] == 0, \"A judge cannot open a case\");\n\t\trequire(Judges[opponent] == 0, \"A judge cannot be an opponent\");\n\t\trequire(msg.value >= MINIMUM_CASE_COLLATERAL, \"Must provide some coins as collateral\");\n\n\t\tcurrentCaseId++;\n\t\tCase newCase = (new Case){value:msg.value}(\n\t\t\tthis,\n\t\t\tmsg.sender,\n\t\t\topponent,\n\t\t\tdescription,\n\t\t\tproofHash,\n\t\t\tmsg.value);\n\t\tCases[currentCaseId] = newCase;\n\n\t\tlastCases[msg.sender] = currentCaseId;\n\t\tlastCases[opponent] = currentCaseId;\n\n\t\treturn currentCaseId;\n\t}\n\n\tfunction getCase(address participant) public view returns (CaseData memory) {\n\t\trequire(lastCases[participant] != 0, \"No cases\");\n\t\t\n\t\treturn Cases[lastCases[participant]].getCaseData();\n\t}\n\t\n\tfunction getCaseById(uint caseId) public view returns (CaseData memory) {\n\t\trequire(address(Cases[caseId]) != address(0x0), \"No case\");\n\t\treturn Cases[caseId].getCaseData();\n\t}\n\n\tfunction caseContract(uint caseId) public view returns (address) {\n\t\treturn address(Cases[caseId]);\n\t}\n\n\tfunction acceptCase(uint caseId, bytes32 proofHash) public payable {\n\t\trequire(Cases[caseId].isOpponent(msg.sender), \"This is not your case\");\n\t\t\n\t\tCases[caseId].acceptCase{value:msg.value}(proofHash);\n\t}\n\n\tfunction discloseProof(uint caseId, string calldata proof) public {\n\t\tif (Cases[caseId].isRequester(msg.sender)) {\n\t\t\tCases[caseId].discloseRequesterProof(proof);\n\t\t} else if (Cases[caseId].isOpponent(msg.sender)) {\n\t\t\tCases[caseId].discloseOpponentProof(proof);\n\t\t} else {\n\t\t\trevert(\"You are not related to this case\");\n\t\t}\n\n\t\tassignJudge(caseId);\n\t}\n\n\tfunction setDecision(uint caseId, bool win) public {\n\t\trequire(Cases[caseId].isJudge(msg.sender), \"You are not the judge\");\n\t\tCases[caseId].setDecision(win, msg.sender);\n\t}\n\n\tfunction appeal(uint caseId) public payable {\n\t\trequire(Cases[caseId].isRequester(msg.sender) || Cases[caseId].isOpponent(msg.sender), \"You are not related to this case\");\n\t\t\n\t\tCases[caseId].appeal{value:msg.value}(msg.sender);\n\t\tassignJudge(caseId);\n\t}\n\n\tfunction claim(uint caseId) public {\n\t\tCases[caseId].claim();\n\t}\n\n\tfunction assignJudge(uint caseId) private {\n\t\twhile (Cases[caseId].needsJudges()) {\n\t\t\tuint judge = 0;\n\t\t\twhile (judge == 0 || JudgesData[judge].banned || Cases[caseId].isJudge(JudgesData[judge].addr)) { // keep rolling untill we find a judge\n\t\t\t\tjudge = (uint(keccak256(abi.encodePacked(blockhash(block.number - 1)))) % currentJudgeId) + 1;\n\t\t\t}\n\t\t\tif (Cases[caseId].assignJudge(JudgesData[judge].addr)) {\n\t\t\t\tlastCases[JudgesData[judge].addr] = caseId;\n\t\t\t}\n\t\t}\n\t}\n}\n",
  "sourcePath": "C:\\Users\\msotn\\Desktop\\Crypto Judges\\contracts\\CryptoJudges.sol",
  "compiler": {
    "name": "solc",
    "version": "0.8.9+commit.e5eed63a.Emscripten.clang"
  },
  "schemaVersion": "3.4.3",
  "updatedAt": "2021-10-23T14:34:42.565Z",
  "devdoc": {
    "kind": "dev",
    "methods": {},
    "version": 1
  },
  "userdoc": {
    "kind": "user",
    "methods": {},
    "version": 1
  }
}